{
  "contractName": "BadgeLookup",
  "abi": [
    {
      "inputs": [],
      "stateMutability": "nonpayable",
      "type": "constructor"
    },
    {
      "inputs": [],
      "name": "apiUrl",
      "outputs": [
        {
          "internalType": "string",
          "name": "",
          "type": "string"
        }
      ],
      "stateMutability": "view",
      "type": "function",
      "constant": true
    },
    {
      "inputs": [
        {
          "internalType": "uint256",
          "name": "",
          "type": "uint256"
        }
      ],
      "name": "badgeUrl",
      "outputs": [
        {
          "internalType": "string",
          "name": "",
          "type": "string"
        }
      ],
      "stateMutability": "view",
      "type": "function",
      "constant": true
    },
    {
      "inputs": [],
      "name": "totalBadges",
      "outputs": [
        {
          "internalType": "uint256",
          "name": "",
          "type": "uint256"
        }
      ],
      "stateMutability": "view",
      "type": "function",
      "constant": true
    },
    {
      "inputs": [
        {
          "internalType": "uint256",
          "name": "id",
          "type": "uint256"
        }
      ],
      "name": "getBadgeById",
      "outputs": [
        {
          "internalType": "string",
          "name": "url",
          "type": "string"
        }
      ],
      "stateMutability": "view",
      "type": "function",
      "constant": true
    },
    {
      "inputs": [],
      "name": "getTotalBadges",
      "outputs": [
        {
          "internalType": "uint256",
          "name": "",
          "type": "uint256"
        }
      ],
      "stateMutability": "view",
      "type": "function",
      "constant": true
    }
  ],
  "bytecode": "0x608060405234801561001057600080fd5b506000808061001e90610285565b91505060405180606001604052806037815260200161086b603791396001600083815260200190815260200160002090805190602001906100609291906101a6565b50808061006c90610285565b9150506040518060600160405280603881526020016108a2603891396001600083815260200190815260200160002090805190602001906100ae9291906101a6565b5080806100ba90610285565b915050604051806060016040528060388152602001610833603891396001600083815260200190815260200160002090805190602001906100fc9291906101a6565b50808061010890610285565b9150506040518060600160405280603781526020016107fc6037913960016000838152602001908152602001600020908051906020019061014a9291906101a6565b50808061015690610285565b9150506040518060600160405280603881526020016107c4603891396001600083815260200190815260200160002090805190602001906101989291906101a6565b50806000819055505061032c565b8280546101b290610253565b90600052602060002090601f0160209004810192826101d4576000855561021b565b82601f106101ed57805160ff191683800117855561021b565b8280016001018555821561021b579182015b8281111561021a5782518255916020019190600101906101ff565b5b509050610228919061022c565b5090565b5b8082111561024557600081600090555060010161022d565b5090565b6000819050919050565b6000600282049050600182168061026b57607f821691505b6020821081141561027f5761027e6102fd565b5b50919050565b600061029082610249565b91507fffffffffffffffffffffffffffffffffffffffffffffffffffffffffffffffff8214156102c3576102c26102ce565b5b600182019050919050565b7f4e487b7100000000000000000000000000000000000000000000000000000000600052601160045260246000fd5b7f4e487b7100000000000000000000000000000000000000000000000000000000600052602260045260246000fd5b6104898061033b6000396000f3fe608060405234801561001057600080fd5b50600436106100575760003560e01c806347ea81841461005c5780638367e1201461007a5780639dac0d4f14610098578063a490a697146100c8578063b4857ad4146100e6575b600080fd5b610064610116565b604051610071919061032e565b60405180910390f35b61008261011f565b60405161008f919061030c565b60405180910390f35b6100b260048036038101906100ad919061029b565b61013b565b6040516100bf919061030c565b60405180910390f35b6100d06101db565b6040516100dd919061032e565b60405180910390f35b61010060048036038101906100fb919061029b565b6101e1565b60405161010d919061030c565b60405180910390f35b60008054905090565b60405180606001604052806028815260200161042c6028913981565b6001602052806000526040600020600091509050805461015a906103a2565b80601f0160208091040260200160405190810160405280929190818152602001828054610186906103a2565b80156101d35780601f106101a8576101008083540402835291602001916101d3565b820191906000526020600020905b8154815290600101906020018083116101b657829003601f168201915b505050505081565b60005481565b6060600160008381526020019081526020016000208054610201906103a2565b80601f016020809104026020016040519081016040528092919081815260200182805461022d906103a2565b801561027a5780601f1061024f5761010080835404028352916020019161027a565b820191906000526020600020905b81548152906001019060200180831161025d57829003601f168201915b50505050509050919050565b60008135905061029581610414565b92915050565b6000602082840312156102ad57600080fd5b60006102bb84828501610286565b91505092915050565b60006102cf82610349565b6102d98185610354565b93506102e981856020860161036f565b6102f281610403565b840191505092915050565b61030681610365565b82525050565b6000602082019050818103600083015261032681846102c4565b905092915050565b600060208201905061034360008301846102fd565b92915050565b600081519050919050565b600082825260208201905092915050565b6000819050919050565b60005b8381101561038d578082015181840152602081019050610372565b8381111561039c576000848401525b50505050565b600060028204905060018216806103ba57607f821691505b602082108114156103ce576103cd6103d4565b5b50919050565b7f4e487b7100000000000000000000000000000000000000000000000000000000600052602260045260246000fd5b6000601f19601f8301169050919050565b61041d81610365565b811461042857600080fd5b5056fe68747470733a2f2f73796e7468657469786261646765732e676c697463682e6d652f62616467652fa264697066735822122038cf4afa1e0093ee33030ec4d3cf2f4f41b661018cd9b9e38bcb807dbb829c5b64736f6c6343000804003368747470733a2f2f73796e7468657469786261646765732e6e65746c6966792e636f6d2f6261646765732f746f705f313030302e6a736f6e68747470733a2f2f73796e7468657469786261646765732e6e65746c6966792e636f6d2f6261646765732f746f705f3130302e6a736f6e68747470733a2f2f73796e7468657469786261646765732e6e65746c6966792e636f6d2f6261646765732f3336355f646179732e6a736f6e68747470733a2f2f73796e7468657469786261646765732e6e65746c6966792e636f6d2f6261646765732f39305f646179732e6a736f6e68747470733a2f2f73796e7468657469786261646765732e6e65746c6966792e636f6d2f6261646765732f3138305f646179732e6a736f6e",
  "immutableReferences": {},
  "source": "// SPDX-License-Identifier: MIT\npragma solidity >=0.8.0 <0.9.0;\n\ncontract BadgeLookup {\n\n    string constant public apiUrl = \"https://synthetixbadges.glitch.me/badge/\";               // api.synthetix.io\n\n    // Badge Lookups\n    uint256 public totalBadges;\n\n    // Internals\n    mapping (uint256 => string) public badgeUrl;\n\n     /**\n     * Simple lookup contract that can be replaced with new information.\n     */\n    constructor() {\n\n        // Replace these with IPFS URLs\n        uint256 id;\n        id++;\n        badgeUrl[id] = \"https://synthetixbadges.netlify.com/badges/90_days.json\";\n        id++;\n        badgeUrl[id] = \"https://synthetixbadges.netlify.com/badges/180_days.json\";\n        id++;\n        badgeUrl[id] = \"https://synthetixbadges.netlify.com/badges/365_days.json\";\n        id++;\n        badgeUrl[id] = \"https://synthetixbadges.netlify.com/badges/top_100.json\";\n        id++;\n        badgeUrl[id] = \"https://synthetixbadges.netlify.com/badges/top_1000.json\";\n        totalBadges = id;\n    }\n\n    /**\n     * Token lookup for myself or someone else.\n     */\n    function getBadgeById(uint256 id) view public returns(string memory url) {\n        url = badgeUrl[id];\n        return url;\n    }\n\n    /**\n     * Get total badges.\n     */\n    function getTotalBadges() view public returns(uint256) {\n        return totalBadges;\n    }\n\n}\n\n\n\n",
  "sourcePath": "/Users/Shared/Code/experimental/synthetix-badges/contracts/BadgeLookup.sol",
  "compiler": {
    "name": "solc",
    "version": "0.8.4+commit.c7e474f2.Emscripten.clang"
  },
  "schemaVersion": "3.4.1",
  "updatedAt": "2021-05-22T01:38:22.048Z",
  "networkType": "ethereum",
  "devdoc": {
    "kind": "dev",
    "methods": {},
    "version": 1
  },
  "userdoc": {
    "kind": "user",
    "methods": {
      "constructor": {
        "notice": "Simple lookup contract that can be replaced with new information."
      },
      "getBadgeById(uint256)": {
        "notice": "Token lookup for myself or someone else."
      },
      "getTotalBadges()": {
        "notice": "Get total badges."
      }
    },
    "version": 1
  }
}