{
  "contractName": "BadgeLookup",
  "abi": [
    {
      "inputs": [],
      "stateMutability": "payable",
      "type": "constructor",
      "payable": true
    },
    {
      "inputs": [
        {
          "internalType": "uint256",
          "name": "",
          "type": "uint256"
        }
      ],
      "name": "badgeUrl",
      "outputs": [
        {
          "internalType": "string",
          "name": "",
          "type": "string"
        }
      ],
      "stateMutability": "view",
      "type": "function",
      "constant": true
    },
    {
      "inputs": [],
      "name": "totalBadges",
      "outputs": [
        {
          "internalType": "uint256",
          "name": "",
          "type": "uint256"
        }
      ],
      "stateMutability": "view",
      "type": "function",
      "constant": true
    },
    {
      "inputs": [
        {
          "internalType": "uint256",
          "name": "id",
          "type": "uint256"
        }
      ],
      "name": "getBadgeById",
      "outputs": [
        {
          "internalType": "string",
          "name": "",
          "type": "string"
        }
      ],
      "stateMutability": "view",
      "type": "function",
      "constant": true
    },
    {
      "inputs": [],
      "name": "getTotalBadges",
      "outputs": [
        {
          "internalType": "uint256",
          "name": "",
          "type": "uint256"
        }
      ],
      "stateMutability": "view",
      "type": "function",
      "constant": true
    }
  ],
  "bytecode": "0x608060405260405180606001604052806037815260200161072c6037913960016000600181526020019081526020016000209080519060200190610044929190610156565b506040518060600160405280603881526020016107636038913960016000600281526020019081526020016000209080519060200190610085929190610156565b506040518060600160405280603881526020016106f460389139600160006003815260200190815260200160002090805190602001906100c6929190610156565b506040518060600160405280603781526020016106bd6037913960016000600481526020019081526020016000209080519060200190610107929190610156565b506040518060600160405280603881526020016106856038913960016000600581526020019081526020016000209080519060200190610148929190610156565b50600560008190555061025a565b828054610162906101f9565b90600052602060002090601f01602090048101928261018457600085556101cb565b82601f1061019d57805160ff19168380011785556101cb565b828001600101855582156101cb579182015b828111156101ca5782518255916020019190600101906101af565b5b5090506101d891906101dc565b5090565b5b808211156101f55760008160009055506001016101dd565b5090565b6000600282049050600182168061021157607f821691505b602082108114156102255761022461022b565b5b50919050565b7f4e487b7100000000000000000000000000000000000000000000000000000000600052602260045260246000fd5b61041c806102696000396000f3fe608060405234801561001057600080fd5b506004361061004c5760003560e01c806347ea8184146100515780639dac0d4f1461006f578063a490a6971461009f578063b4857ad4146100bd575b600080fd5b6100596100ed565b60405161006691906102e9565b60405180910390f35b61008960048036038101906100849190610256565b6100f6565b60405161009691906102c7565b60405180910390f35b6100a7610196565b6040516100b491906102e9565b60405180910390f35b6100d760048036038101906100d29190610256565b61019c565b6040516100e491906102c7565b60405180910390f35b60008054905090565b600160205280600052604060002060009150905080546101159061035d565b80601f01602080910402602001604051908101604052809291908181526020018280546101419061035d565b801561018e5780601f106101635761010080835404028352916020019161018e565b820191906000526020600020905b81548152906001019060200180831161017157829003601f168201915b505050505081565b60005481565b60606001600083815260200190815260200160002080546101bc9061035d565b80601f01602080910402602001604051908101604052809291908181526020018280546101e89061035d565b80156102355780601f1061020a57610100808354040283529160200191610235565b820191906000526020600020905b81548152906001019060200180831161021857829003601f168201915b50505050509050919050565b600081359050610250816103cf565b92915050565b60006020828403121561026857600080fd5b600061027684828501610241565b91505092915050565b600061028a82610304565b610294818561030f565b93506102a481856020860161032a565b6102ad816103be565b840191505092915050565b6102c181610320565b82525050565b600060208201905081810360008301526102e1818461027f565b905092915050565b60006020820190506102fe60008301846102b8565b92915050565b600081519050919050565b600082825260208201905092915050565b6000819050919050565b60005b8381101561034857808201518184015260208101905061032d565b83811115610357576000848401525b50505050565b6000600282049050600182168061037557607f821691505b602082108114156103895761038861038f565b5b50919050565b7f4e487b7100000000000000000000000000000000000000000000000000000000600052602260045260246000fd5b6000601f19601f8301169050919050565b6103d881610320565b81146103e357600080fd5b5056fea26469706673582212201530de4bc1086488f889cce048a9875d56ffb0a1c306452d5e331fdf4ef0dbed64736f6c6343000804003368747470733a2f2f73796e7468657469786261646765732e6e65746c6966792e636f6d2f6261646765732f746f705f313030302e6a736f6e68747470733a2f2f73796e7468657469786261646765732e6e65746c6966792e636f6d2f6261646765732f746f705f3130302e6a736f6e68747470733a2f2f73796e7468657469786261646765732e6e65746c6966792e636f6d2f6261646765732f3336355f646179732e6a736f6e68747470733a2f2f73796e7468657469786261646765732e6e65746c6966792e636f6d2f6261646765732f39305f646179732e6a736f6e68747470733a2f2f73796e7468657469786261646765732e6e65746c6966792e636f6d2f6261646765732f3138305f646179732e6a736f6e",
  "immutableReferences": {},
  "source": "// SPDX-License-Identifier: MIT\npragma solidity >=0.8.0 <0.9.0;\n\ncontract BadgeLookup {\n\n    string constant apiUrl = \"https://synthetixbadges.glitch.me/\";               // api.synthetix.io\n    string constant tokenUrl = \"https://synthetixbadges.netlify.com/\";               // api.synthetix.io\n\n    // Badge Lookups\n    uint256 public totalBadges;\n\n    // Internals\n    mapping (uint256 => string) public badgeUrl;\n\n     /**\n     * Simple lookup contract that can be replaced with new information.\n     */\n    constructor() payable {\n\n        badgeUrl[1] = \"https://synthetixbadges.netlify.com/badges/90_days.json\";\n        badgeUrl[2] = \"https://synthetixbadges.netlify.com/badges/180_days.json\";\n        badgeUrl[3] = \"https://synthetixbadges.netlify.com/badges/365_days.json\";\n        badgeUrl[4] = \"https://synthetixbadges.netlify.com/badges/top_100.json\";\n        badgeUrl[5] = \"https://synthetixbadges.netlify.com/badges/top_1000.json\";\n\n        totalBadges = 5;\n    }\n\n    /**\n     * Token lookup for myself or someone else.\n     */\n    function getBadgeById(uint256 id) view public returns(string memory) {\n        return badgeUrl[id];\n    }\n\n    /**\n     * Get total badges.\n     */\n    function getTotalBadges() view public returns(uint256) {\n        return totalBadges;\n    }\n\n}\n\n\n\n",
  "sourcePath": "/Users/Shared/Code/experimental/synthetix-badges/contracts/BadgeLookup.sol",
  "compiler": {
    "name": "solc",
    "version": "0.8.4+commit.c7e474f2.Emscripten.clang"
  },
  "schemaVersion": "3.4.1",
  "updatedAt": "2021-05-21T16:12:32.946Z",
  "networkType": "ethereum",
  "devdoc": {
    "kind": "dev",
    "methods": {},
    "version": 1
  },
  "userdoc": {
    "kind": "user",
    "methods": {
      "constructor": {
        "notice": "Simple lookup contract that can be replaced with new information."
      },
      "getBadgeById(uint256)": {
        "notice": "Token lookup for myself or someone else."
      },
      "getTotalBadges()": {
        "notice": "Get total badges."
      }
    },
    "version": 1
  }
}