{
  "contractName": "SynthBadge",
  "abi": [
    {
      "inputs": [
        {
          "internalType": "address",
          "name": "_badgeLookup",
          "type": "address"
        }
      ],
      "stateMutability": "payable",
      "type": "constructor",
      "payable": true
    },
    {
      "anonymous": false,
      "inputs": [
        {
          "indexed": false,
          "internalType": "bytes32",
          "name": "requestId",
          "type": "bytes32"
        },
        {
          "indexed": false,
          "internalType": "uint256",
          "name": "badgeTotal",
          "type": "uint256"
        }
      ],
      "name": "ApiResponse",
      "type": "event"
    },
    {
      "anonymous": false,
      "inputs": [
        {
          "indexed": true,
          "internalType": "address",
          "name": "owner",
          "type": "address"
        },
        {
          "indexed": true,
          "internalType": "address",
          "name": "approved",
          "type": "address"
        },
        {
          "indexed": true,
          "internalType": "uint256",
          "name": "tokenId",
          "type": "uint256"
        }
      ],
      "name": "Approval",
      "type": "event"
    },
    {
      "anonymous": false,
      "inputs": [
        {
          "indexed": true,
          "internalType": "address",
          "name": "owner",
          "type": "address"
        },
        {
          "indexed": true,
          "internalType": "address",
          "name": "operator",
          "type": "address"
        },
        {
          "indexed": false,
          "internalType": "bool",
          "name": "approved",
          "type": "bool"
        }
      ],
      "name": "ApprovalForAll",
      "type": "event"
    },
    {
      "anonymous": false,
      "inputs": [
        {
          "indexed": true,
          "internalType": "bytes32",
          "name": "id",
          "type": "bytes32"
        }
      ],
      "name": "ChainlinkCancelled",
      "type": "event"
    },
    {
      "anonymous": false,
      "inputs": [
        {
          "indexed": true,
          "internalType": "bytes32",
          "name": "id",
          "type": "bytes32"
        }
      ],
      "name": "ChainlinkFulfilled",
      "type": "event"
    },
    {
      "anonymous": false,
      "inputs": [
        {
          "indexed": true,
          "internalType": "bytes32",
          "name": "id",
          "type": "bytes32"
        }
      ],
      "name": "ChainlinkRequested",
      "type": "event"
    },
    {
      "anonymous": false,
      "inputs": [
        {
          "indexed": true,
          "internalType": "address",
          "name": "from",
          "type": "address"
        },
        {
          "indexed": true,
          "internalType": "address",
          "name": "to",
          "type": "address"
        },
        {
          "indexed": true,
          "internalType": "uint256",
          "name": "tokenId",
          "type": "uint256"
        }
      ],
      "name": "Transfer",
      "type": "event"
    },
    {
      "anonymous": false,
      "inputs": [
        {
          "indexed": false,
          "internalType": "string",
          "name": "url",
          "type": "string"
        }
      ],
      "name": "UrlRequested",
      "type": "event"
    },
    {
      "inputs": [
        {
          "internalType": "address",
          "name": "to",
          "type": "address"
        },
        {
          "internalType": "uint256",
          "name": "tokenId",
          "type": "uint256"
        }
      ],
      "name": "approve",
      "outputs": [],
      "stateMutability": "nonpayable",
      "type": "function"
    },
    {
      "inputs": [],
      "name": "badgeLookup",
      "outputs": [
        {
          "internalType": "address",
          "name": "",
          "type": "address"
        }
      ],
      "stateMutability": "view",
      "type": "function",
      "constant": true
    },
    {
      "inputs": [
        {
          "internalType": "address",
          "name": "",
          "type": "address"
        },
        {
          "internalType": "uint256",
          "name": "",
          "type": "uint256"
        }
      ],
      "name": "badgesByUser",
      "outputs": [
        {
          "internalType": "uint256",
          "name": "",
          "type": "uint256"
        }
      ],
      "stateMutability": "view",
      "type": "function",
      "constant": true
    },
    {
      "inputs": [
        {
          "internalType": "address",
          "name": "owner",
          "type": "address"
        }
      ],
      "name": "balanceOf",
      "outputs": [
        {
          "internalType": "uint256",
          "name": "",
          "type": "uint256"
        }
      ],
      "stateMutability": "view",
      "type": "function",
      "constant": true
    },
    {
      "inputs": [
        {
          "internalType": "uint256",
          "name": "tokenId",
          "type": "uint256"
        }
      ],
      "name": "getApproved",
      "outputs": [
        {
          "internalType": "address",
          "name": "",
          "type": "address"
        }
      ],
      "stateMutability": "view",
      "type": "function",
      "constant": true
    },
    {
      "inputs": [
        {
          "internalType": "address",
          "name": "owner",
          "type": "address"
        },
        {
          "internalType": "address",
          "name": "operator",
          "type": "address"
        }
      ],
      "name": "isApprovedForAll",
      "outputs": [
        {
          "internalType": "bool",
          "name": "",
          "type": "bool"
        }
      ],
      "stateMutability": "view",
      "type": "function",
      "constant": true
    },
    {
      "inputs": [],
      "name": "name",
      "outputs": [
        {
          "internalType": "string",
          "name": "",
          "type": "string"
        }
      ],
      "stateMutability": "view",
      "type": "function",
      "constant": true
    },
    {
      "inputs": [],
      "name": "owner",
      "outputs": [
        {
          "internalType": "address",
          "name": "",
          "type": "address"
        }
      ],
      "stateMutability": "view",
      "type": "function",
      "constant": true
    },
    {
      "inputs": [
        {
          "internalType": "uint256",
          "name": "tokenId",
          "type": "uint256"
        }
      ],
      "name": "ownerOf",
      "outputs": [
        {
          "internalType": "address",
          "name": "",
          "type": "address"
        }
      ],
      "stateMutability": "view",
      "type": "function",
      "constant": true
    },
    {
      "inputs": [
        {
          "internalType": "address",
          "name": "from",
          "type": "address"
        },
        {
          "internalType": "address",
          "name": "to",
          "type": "address"
        },
        {
          "internalType": "uint256",
          "name": "tokenId",
          "type": "uint256"
        }
      ],
      "name": "safeTransferFrom",
      "outputs": [],
      "stateMutability": "nonpayable",
      "type": "function"
    },
    {
      "inputs": [
        {
          "internalType": "address",
          "name": "from",
          "type": "address"
        },
        {
          "internalType": "address",
          "name": "to",
          "type": "address"
        },
        {
          "internalType": "uint256",
          "name": "tokenId",
          "type": "uint256"
        },
        {
          "internalType": "bytes",
          "name": "_data",
          "type": "bytes"
        }
      ],
      "name": "safeTransferFrom",
      "outputs": [],
      "stateMutability": "nonpayable",
      "type": "function"
    },
    {
      "inputs": [
        {
          "internalType": "address",
          "name": "operator",
          "type": "address"
        },
        {
          "internalType": "bool",
          "name": "approved",
          "type": "bool"
        }
      ],
      "name": "setApprovalForAll",
      "outputs": [],
      "stateMutability": "nonpayable",
      "type": "function"
    },
    {
      "inputs": [
        {
          "internalType": "bytes4",
          "name": "interfaceId",
          "type": "bytes4"
        }
      ],
      "name": "supportsInterface",
      "outputs": [
        {
          "internalType": "bool",
          "name": "",
          "type": "bool"
        }
      ],
      "stateMutability": "view",
      "type": "function",
      "constant": true
    },
    {
      "inputs": [],
      "name": "symbol",
      "outputs": [
        {
          "internalType": "string",
          "name": "",
          "type": "string"
        }
      ],
      "stateMutability": "view",
      "type": "function",
      "constant": true
    },
    {
      "inputs": [
        {
          "internalType": "uint256",
          "name": "tokenId",
          "type": "uint256"
        }
      ],
      "name": "tokenURI",
      "outputs": [
        {
          "internalType": "string",
          "name": "",
          "type": "string"
        }
      ],
      "stateMutability": "view",
      "type": "function",
      "constant": true
    },
    {
      "inputs": [
        {
          "internalType": "address",
          "name": "",
          "type": "address"
        }
      ],
      "name": "totalUserBadges",
      "outputs": [
        {
          "internalType": "uint256",
          "name": "",
          "type": "uint256"
        }
      ],
      "stateMutability": "view",
      "type": "function",
      "constant": true
    },
    {
      "inputs": [
        {
          "internalType": "address",
          "name": "from",
          "type": "address"
        },
        {
          "internalType": "address",
          "name": "to",
          "type": "address"
        },
        {
          "internalType": "uint256",
          "name": "tokenId",
          "type": "uint256"
        }
      ],
      "name": "transferFrom",
      "outputs": [],
      "stateMutability": "nonpayable",
      "type": "function"
    },
    {
      "inputs": [
        {
          "internalType": "address",
          "name": "_lookup",
          "type": "address"
        }
      ],
      "name": "updateLookup",
      "outputs": [],
      "stateMutability": "nonpayable",
      "type": "function"
    },
    {
      "inputs": [
        {
          "internalType": "address",
          "name": "_oracle",
          "type": "address"
        }
      ],
      "name": "updateOracle",
      "outputs": [],
      "stateMutability": "nonpayable",
      "type": "function"
    },
    {
      "inputs": [
        {
          "internalType": "bytes32",
          "name": "_job",
          "type": "bytes32"
        }
      ],
      "name": "updateJob",
      "outputs": [],
      "stateMutability": "nonpayable",
      "type": "function"
    },
    {
      "inputs": [
        {
          "internalType": "uint256",
          "name": "_fee",
          "type": "uint256"
        }
      ],
      "name": "updateFee",
      "outputs": [],
      "stateMutability": "nonpayable",
      "type": "function"
    },
    {
      "inputs": [
        {
          "internalType": "address",
          "name": "_owner",
          "type": "address"
        }
      ],
      "name": "requestBadges",
      "outputs": [
        {
          "internalType": "bytes32",
          "name": "requestId",
          "type": "bytes32"
        }
      ],
      "stateMutability": "nonpayable",
      "type": "function"
    },
    {
      "inputs": [],
      "name": "requestBadges",
      "outputs": [
        {
          "internalType": "bytes32",
          "name": "requestId",
          "type": "bytes32"
        }
      ],
      "stateMutability": "nonpayable",
      "type": "function"
    },
    {
      "inputs": [
        {
          "internalType": "bytes32",
          "name": "_requestId",
          "type": "bytes32"
        },
        {
          "internalType": "uint256",
          "name": "_badgeId",
          "type": "uint256"
        }
      ],
      "name": "fulfill",
      "outputs": [],
      "stateMutability": "nonpayable",
      "type": "function"
    },
    {
      "inputs": [
        {
          "internalType": "address",
          "name": "_owner",
          "type": "address"
        }
      ],
      "name": "getTokens",
      "outputs": [
        {
          "internalType": "uint256[]",
          "name": "",
          "type": "uint256[]"
        }
      ],
      "stateMutability": "view",
      "type": "function",
      "constant": true
    },
    {
      "inputs": [],
      "name": "getTokens",
      "outputs": [
        {
          "internalType": "uint256[]",
          "name": "",
          "type": "uint256[]"
        }
      ],
      "stateMutability": "view",
      "type": "function",
      "constant": true
    },
    {
      "inputs": [
        {
          "internalType": "address",
          "name": "_owner",
          "type": "address"
        },
        {
          "internalType": "uint256",
          "name": "_id",
          "type": "uint256"
        }
      ],
      "name": "checkUserBadge",
      "outputs": [
        {
          "internalType": "bool",
          "name": "badgeFound",
          "type": "bool"
        }
      ],
      "stateMutability": "view",
      "type": "function",
      "constant": true
    },
    {
      "inputs": [
        {
          "internalType": "address",
          "name": "_owner",
          "type": "address"
        }
      ],
      "name": "getUserBadges",
      "outputs": [
        {
          "internalType": "uint256[]",
          "name": "",
          "type": "uint256[]"
        }
      ],
      "stateMutability": "view",
      "type": "function",
      "constant": true
    },
    {
      "inputs": [
        {
          "internalType": "uint256",
          "name": "_id",
          "type": "uint256"
        }
      ],
      "name": "getBadgeUrl",
      "outputs": [
        {
          "internalType": "string",
          "name": "badgeUrl",
          "type": "string"
        }
      ],
      "stateMutability": "view",
      "type": "function",
      "constant": true
    },
    {
      "inputs": [
        {
          "internalType": "address",
          "name": "account",
          "type": "address"
        }
      ],
      "name": "toString",
      "outputs": [
        {
          "internalType": "string",
          "name": "",
          "type": "string"
        }
      ],
      "stateMutability": "pure",
      "type": "function",
      "constant": true
    },
    {
      "inputs": [
        {
          "internalType": "uint256",
          "name": "value",
          "type": "uint256"
        }
      ],
      "name": "toString",
      "outputs": [
        {
          "internalType": "string",
          "name": "",
          "type": "string"
        }
      ],
      "stateMutability": "pure",
      "type": "function",
      "constant": true
    },
    {
      "inputs": [
        {
          "internalType": "bytes",
          "name": "data",
          "type": "bytes"
        }
      ],
      "name": "toString",
      "outputs": [
        {
          "internalType": "string",
          "name": "",
          "type": "string"
        }
      ],
      "stateMutability": "pure",
      "type": "function",
      "constant": true
    },
    {
      "inputs": [
        {
          "internalType": "bytes32",
          "name": "value",
          "type": "bytes32"
        }
      ],
      "name": "toString",
      "outputs": [
        {
          "internalType": "string",
          "name": "",
          "type": "string"
        }
      ],
      "stateMutability": "pure",
      "type": "function",
      "constant": true
    }
  ],
  "bytecode": "0x60806040526001600b55604051620057273803806200572783398181016040528101906200002e9190620003a5565b6040518060400160405280600a81526020017f53796e74684261646765000000000000000000000000000000000000000000008152506040518060400160405280600481526020017f734e4654000000000000000000000000000000000000000000000000000000008152508160009080519060200190620000b2929190620002de565b508060019080519060200190620000cb929190620002de565b505050620000de620001f260201b60201c565b732f90a6d021db21e1b2a077c5a37b3c7e75d15b7e601060006101000a81548173ffffffffffffffffffffffffffffffffffffffff021916908373ffffffffffffffffffffffffffffffffffffffff1602179055507f323966613961613133626631343638373838623763633461353030613435623860118190555067016345785d8a000060128190555080600e60006101000a81548173ffffffffffffffffffffffffffffffffffffffff021916908373ffffffffffffffffffffffffffffffffffffffff16021790555033600f60006101000a81548173ffffffffffffffffffffffffffffffffffffffff021916908373ffffffffffffffffffffffffffffffffffffffff1602179055505062000484565b6200029873c89bd4e1632d3a43cb03aaad5262cbe4038bc57173ffffffffffffffffffffffffffffffffffffffff166338cc48316040518163ffffffff1660e01b815260040160206040518083038186803b1580156200025157600080fd5b505afa15801562000266573d6000803e3d6000fd5b505050506040513d601f19601f820116820180604052508101906200028c9190620003a5565b6200029a60201b60201c565b565b80600960006101000a81548173ffffffffffffffffffffffffffffffffffffffff021916908373ffffffffffffffffffffffffffffffffffffffff16021790555050565b828054620002ec9062000405565b90600052602060002090601f0160209004810192826200031057600085556200035c565b82601f106200032b57805160ff19168380011785556200035c565b828001600101855582156200035c579182015b828111156200035b5782518255916020019190600101906200033e565b5b5090506200036b91906200036f565b5090565b5b808211156200038a57600081600090555060010162000370565b5090565b6000815190506200039f816200046a565b92915050565b600060208284031215620003b857600080fd5b6000620003c8848285016200038e565b91505092915050565b6000620003de82620003e5565b9050919050565b600073ffffffffffffffffffffffffffffffffffffffff82169050919050565b600060028204905060018216806200041e57607f821691505b602082108114156200043557620004346200043b565b5b50919050565b7f4e487b7100000000000000000000000000000000000000000000000000000000600052602260045260246000fd5b6200047581620003d1565b81146200048157600080fd5b50565b61529380620004946000396000f3fe608060405234801561001057600080fd5b50600436106101fb5760003560e01c80636900a3ae1161011a578063a22cb465116100ad578063c059f0b91161007c578063c059f0b914610644578063c87b56dd14610662578063cc2c264614610692578063e4d084fe146106b0578063e985e9c5146106cc576101fb565b8063a22cb465146105be578063aa6ca808146105da578063b11a19e8146105f8578063b88d4fde14610628576101fb565b80638da5cb5b116100e95780638da5cb5b1461054a5780639012c4a8146105685780639496f9e31461058457806395d89b41146105a0576101fb565b80636900a3ae1461048a57806370a08231146104ba57806371aad10d146104ea578063803e8bf41461051a576101fb565b806337c245fe11610192578063450efe2111610161578063450efe21146103ca57806356ca623e146103fa5780636352211e1461042a578063676f2f2a1461045a576101fb565b806337c245fe146103325780633900135c1461036257806342842e0e146103925780634357855e146103ae576101fb565b80631cb44dfc116101ce5780631cb44dfc1461029a5780631cc5e728146102b657806321fa43c7146102e657806323b872dd14610316576101fb565b806301ffc9a71461020057806306fdde0314610230578063081812fc1461024e578063095ea7b31461027e575b600080fd5b61021a60048036038101906102159190613b5c565b6106fc565b60405161022791906142d1565b60405180910390f35b6102386107de565b6040516102459190614330565b60405180910390f35b61026860048036038101906102639190613c30565b610870565b6040516102759190614185565b60405180910390f35b61029860048036038101906102939190613a92565b6108f5565b005b6102b460048036038101906102af9190613927565b610a0d565b005b6102d060048036038101906102cb9190613c30565b610ae1565b6040516102dd9190614330565b60405180910390f35b61030060048036038101906102fb9190613927565b610b9a565b60405161030d91906142ec565b60405180910390f35b610330600480360381019061032b919061398c565b610e18565b005b61034c60048036038101906103479190613927565b610e78565b60405161035991906142af565b60405180910390f35b61037c60048036038101906103779190613a92565b610f0f565b60405161038991906142d1565b60405180910390f35b6103ac60048036038101906103a7919061398c565b611002565b005b6103c860048036038101906103c39190613b20565b611022565b005b6103e460048036038101906103df9190613927565b6111fd565b6040516103f191906142af565b60405180910390f35b610414600480360381019061040f9190613927565b6113e0565b6040516104219190614330565b60405180910390f35b610444600480360381019061043f9190613c30565b611411565b6040516104519190614185565b60405180910390f35b610474600480360381019061046f9190613927565b6114c3565b60405161048191906145d2565b60405180910390f35b6104a4600480360381019061049f9190613c30565b6114db565b6040516104b19190614330565b60405180910390f35b6104d460048036038101906104cf9190613927565b61150c565b6040516104e191906145d2565b60405180910390f35b61050460048036038101906104ff9190613bae565b6115c4565b6040516105119190614330565b60405180910390f35b610534600480360381019061052f9190613a92565b611a14565b60405161054191906145d2565b60405180910390f35b610552611a45565b60405161055f9190614185565b60405180910390f35b610582600480360381019061057d9190613c30565b611a6b565b005b61059e60048036038101906105999190613af7565b611b05565b005b6105a8611b9f565b6040516105b59190614330565b60405180910390f35b6105d860048036038101906105d39190613a56565b611c31565b005b6105e2611db2565b6040516105ef91906142af565b60405180910390f35b610612600480360381019061060d9190613af7565b611dc1565b60405161061f9190614330565b60405180910390f35b610642600480360381019061063d91906139db565b611df2565b005b61064c611e54565b6040516106599190614185565b60405180910390f35b61067c60048036038101906106779190613c30565b611e7a565b6040516106899190614330565b60405180910390f35b61069a611fcc565b6040516106a791906142ec565b60405180910390f35b6106ca60048036038101906106c59190613927565b611fdb565b005b6106e660048036038101906106e19190613950565b6120af565b6040516106f391906142d1565b60405180910390f35b60007f80ac58cd000000000000000000000000000000000000000000000000000000007bffffffffffffffffffffffffffffffffffffffffffffffffffffffff1916827bffffffffffffffffffffffffffffffffffffffffffffffffffffffff191614806107c757507f5b5e139f000000000000000000000000000000000000000000000000000000007bffffffffffffffffffffffffffffffffffffffffffffffffffffffff1916827bffffffffffffffffffffffffffffffffffffffffffffffffffffffff1916145b806107d757506107d682612143565b5b9050919050565b6060600080546107ed90614a5a565b80601f016020809104026020016040519081016040528092919081815260200182805461081990614a5a565b80156108665780601f1061083b57610100808354040283529160200191610866565b820191906000526020600020905b81548152906001019060200180831161084957829003601f168201915b5050505050905090565b600061087b826121ad565b6108ba576040517f08c379a00000000000000000000000000000000000000000000000000000000081526004016108b190614512565b60405180910390fd5b6004600083815260200190815260200160002060009054906101000a900473ffffffffffffffffffffffffffffffffffffffff169050919050565b600061090082611411565b90508073ffffffffffffffffffffffffffffffffffffffff168373ffffffffffffffffffffffffffffffffffffffff161415610971576040517f08c379a000000000000000000000000000000000000000000000000000000000815260040161096890614572565b60405180910390fd5b8073ffffffffffffffffffffffffffffffffffffffff16610990612219565b73ffffffffffffffffffffffffffffffffffffffff1614806109bf57506109be816109b9612219565b6120af565b5b6109fe576040517f08c379a00000000000000000000000000000000000000000000000000000000081526004016109f590614432565b60405180910390fd5b610a088383612221565b505050565b600f60009054906101000a900473ffffffffffffffffffffffffffffffffffffffff1673ffffffffffffffffffffffffffffffffffffffff163373ffffffffffffffffffffffffffffffffffffffff1614610a9d576040517f08c379a0000000000000000000000000000000000000000000000000000000008152600401610a9490614352565b60405180910390fd5b80601060006101000a81548173ffffffffffffffffffffffffffffffffffffffff021916908373ffffffffffffffffffffffffffffffffffffffff16021790555050565b6060600e60009054906101000a900473ffffffffffffffffffffffffffffffffffffffff1673ffffffffffffffffffffffffffffffffffffffff1663b4857ad4836040518263ffffffff1660e01b8152600401610b3e91906145d2565b60006040518083038186803b158015610b5657600080fd5b505afa158015610b6a573d6000803e3d6000fd5b505050506040513d6000823e3d601f19601f82011682018060405250810190610b939190613bef565b9050919050565b600080610bb160115430634357855e60e01b6122da565b90506000600e60009054906101000a900473ffffffffffffffffffffffffffffffffffffffff1673ffffffffffffffffffffffffffffffffffffffff16638367e1206040518163ffffffff1660e01b815260040160006040518083038186803b158015610c1d57600080fd5b505afa158015610c31573d6000803e3d6000fd5b505050506040513d6000823e3d601f19601f82011682018060405250810190610c5a9190613bef565b9050600081610c68866113e0565b604051602001610c79929190614146565b60405160208183030381529060405290507f423580c5252763279dda9a3c3d33abe5f278056f6cefd69fb1486c1ef99e299581604051610cb99190614330565b60405180910390a1610d0b6040518060400160405280600381526020017f6765740000000000000000000000000000000000000000000000000000000000815250828561230b9092919063ffffffff16565b610d8a6040518060400160405280600481526020017f70617468000000000000000000000000000000000000000000000000000000008152506040518060400160405280600281526020017f69640000000000000000000000000000000000000000000000000000000000008152508561230b9092919063ffffffff16565b6000610dbb601060009054906101000a900473ffffffffffffffffffffffffffffffffffffffff168560125461233e565b9050856013600083815260200190815260200160002060006101000a81548173ffffffffffffffffffffffffffffffffffffffff021916908373ffffffffffffffffffffffffffffffffffffffff16021790555050505050919050565b610e29610e23612219565b82612513565b610e68576040517f08c379a0000000000000000000000000000000000000000000000000000000008152600401610e5f90614592565b60405180910390fd5b610e738383836125f1565b505050565b6060601460008373ffffffffffffffffffffffffffffffffffffffff1673ffffffffffffffffffffffffffffffffffffffff168152602001908152602001600020805480602002602001604051908101604052809291908181526020018280548015610f0357602002820191906000526020600020905b815481526020019060010190808311610eef575b50505050509050919050565b6000805b601560008573ffffffffffffffffffffffffffffffffffffffff1673ffffffffffffffffffffffffffffffffffffffff16815260200190815260200160002054811015610ffb5782601460008673ffffffffffffffffffffffffffffffffffffffff1673ffffffffffffffffffffffffffffffffffffffff1681526020019081526020016000208281548110610fd2577f4e487b7100000000000000000000000000000000000000000000000000000000600052603260045260246000fd5b90600052602060002001541415610fe857600191505b8080610ff390614abd565b915050610f13565b5092915050565b61101d83838360405180602001604052806000815250611df2565b505050565b61102b8261284d565b7fdc2a02298d7bff12351a2caaa5004ad88d3caaa5337f1caa07616b95b81ff522828260405161105c929190614307565b60405180910390a160008111156111f95760006013600084815260200190815260200160002060009054906101000a900473ffffffffffffffffffffffffffffffffffffffff169050600073ffffffffffffffffffffffffffffffffffffffff168173ffffffffffffffffffffffffffffffffffffffff161415611115576040517f08c379a000000000000000000000000000000000000000000000000000000000815260040161110c906144d2565b60405180910390fd5b61111f8183610f0f565b6111f757600061112e83610ae1565b905061113a8282612956565b601460008373ffffffffffffffffffffffffffffffffffffffff1673ffffffffffffffffffffffffffffffffffffffff168152602001908152602001600020839080600181540180825580915050600190039060005260206000200160009091909190915055601560008373ffffffffffffffffffffffffffffffffffffffff1673ffffffffffffffffffffffffffffffffffffffff16815260200190815260200160002060008154809291906111f090614abd565b9190505550505b505b5050565b6060600061120a8361150c565b9050600081141561128d57600067ffffffffffffffff811115611256577f4e487b7100000000000000000000000000000000000000000000000000000000600052604160045260246000fd5b6040519080825280602002602001820160405280156112845781602001602082028036833780820191505090505b509150506113db565b60008167ffffffffffffffff8111156112cf577f4e487b7100000000000000000000000000000000000000000000000000000000600052604160045260246000fd5b6040519080825280602002602001820160405280156112fd5781602001602082028036833780820191505090505b509050600061130c600d612987565b9050600080600190505b8281116113d257611326816121ad565b801561136557508673ffffffffffffffffffffffffffffffffffffffff1661134d82611411565b73ffffffffffffffffffffffffffffffffffffffff16145b156113bf57808483815181106113a4577f4e487b7100000000000000000000000000000000000000000000000000000000600052603260045260246000fd5b60200260200101818152505081806113bb90614abd565b9250505b80806113ca90614abd565b915050611316565b50829450505050505b919050565b606061140a826040516020016113f691906140e4565b6040516020818303038152906040526115c4565b9050919050565b6000806002600084815260200190815260200160002060009054906101000a900473ffffffffffffffffffffffffffffffffffffffff169050600073ffffffffffffffffffffffffffffffffffffffff168173ffffffffffffffffffffffffffffffffffffffff1614156114ba576040517f08c379a00000000000000000000000000000000000000000000000000000000081526004016114b190614472565b60405180910390fd5b80915050919050565b60156020528060005260406000206000915090505481565b6060611505826040516020016114f1919061416a565b6040516020818303038152906040526115c4565b9050919050565b60008073ffffffffffffffffffffffffffffffffffffffff168273ffffffffffffffffffffffffffffffffffffffff16141561157d576040517f08c379a000000000000000000000000000000000000000000000000000000000815260040161157490614452565b60405180910390fd5b600360008373ffffffffffffffffffffffffffffffffffffffff1673ffffffffffffffffffffffffffffffffffffffff168152602001908152602001600020549050919050565b606060006040518060400160405280601081526020017f3031323334353637383961626364656600000000000000000000000000000000815250905060006002845161161091906148e8565b600261161c91906146f0565b67ffffffffffffffff81111561165b577f4e487b7100000000000000000000000000000000000000000000000000000000600052604160045260246000fd5b6040519080825280601f01601f19166020018201604052801561168d5781602001600182028036833780820191505090505b5090507f3000000000000000000000000000000000000000000000000000000000000000816000815181106116eb577f4e487b7100000000000000000000000000000000000000000000000000000000600052603260045260246000fd5b60200101907effffffffffffffffffffffffffffffffffffffffffffffffffffffffffffff1916908160001a9053507f780000000000000000000000000000000000000000000000000000000000000081600181518110611775577f4e487b7100000000000000000000000000000000000000000000000000000000600052603260045260246000fd5b60200101907effffffffffffffffffffffffffffffffffffffffffffffffffffffffffffff1916908160001a90535060005b8451811015611a09578260048683815181106117ec577f4e487b7100000000000000000000000000000000000000000000000000000000600052603260045260246000fd5b602001015160f81c60f81b7effffffffffffffffffffffffffffffffffffffffffffffffffffffffffffff1916901c60f81c60ff1681518110611858577f4e487b7100000000000000000000000000000000000000000000000000000000600052603260045260246000fd5b602001015160f81c60f81b8260028361187191906148e8565b600261187d91906146f0565b815181106118b4577f4e487b7100000000000000000000000000000000000000000000000000000000600052603260045260246000fd5b60200101907effffffffffffffffffffffffffffffffffffffffffffffffffffffffffffff1916908160001a90535082600f60f81b868381518110611922577f4e487b7100000000000000000000000000000000000000000000000000000000600052603260045260246000fd5b602001015160f81c60f81b1660f81c60ff168151811061196b577f4e487b7100000000000000000000000000000000000000000000000000000000600052603260045260246000fd5b602001015160f81c60f81b8260028361198491906148e8565b600361199091906146f0565b815181106119c7577f4e487b7100000000000000000000000000000000000000000000000000000000600052603260045260246000fd5b60200101907effffffffffffffffffffffffffffffffffffffffffffffffffffffffffffff1916908160001a9053508080611a0190614abd565b9150506117a7565b508092505050919050565b60146020528160005260406000208181548110611a3057600080fd5b90600052602060002001600091509150505481565b600f60009054906101000a900473ffffffffffffffffffffffffffffffffffffffff1681565b600f60009054906101000a900473ffffffffffffffffffffffffffffffffffffffff1673ffffffffffffffffffffffffffffffffffffffff163373ffffffffffffffffffffffffffffffffffffffff1614611afb576040517f08c379a0000000000000000000000000000000000000000000000000000000008152600401611af290614352565b60405180910390fd5b8060128190555050565b600f60009054906101000a900473ffffffffffffffffffffffffffffffffffffffff1673ffffffffffffffffffffffffffffffffffffffff163373ffffffffffffffffffffffffffffffffffffffff1614611b95576040517f08c379a0000000000000000000000000000000000000000000000000000000008152600401611b8c90614352565b60405180910390fd5b8060118190555050565b606060018054611bae90614a5a565b80601f0160208091040260200160405190810160405280929190818152602001828054611bda90614a5a565b8015611c275780601f10611bfc57610100808354040283529160200191611c27565b820191906000526020600020905b815481529060010190602001808311611c0a57829003601f168201915b5050505050905090565b611c39612219565b73ffffffffffffffffffffffffffffffffffffffff168273ffffffffffffffffffffffffffffffffffffffff161415611ca7576040517f08c379a0000000000000000000000000000000000000000000000000000000008152600401611c9e906143f2565b60405180910390fd5b8060056000611cb4612219565b73ffffffffffffffffffffffffffffffffffffffff1673ffffffffffffffffffffffffffffffffffffffff16815260200190815260200160002060008473ffffffffffffffffffffffffffffffffffffffff1673ffffffffffffffffffffffffffffffffffffffff16815260200190815260200160002060006101000a81548160ff0219169083151502179055508173ffffffffffffffffffffffffffffffffffffffff16611d61612219565b73ffffffffffffffffffffffffffffffffffffffff167f17307eab39ab6107e8899845ad3d59bd9653f200f220920489ca2b5937696c3183604051611da691906142d1565b60405180910390a35050565b6060611dbd336111fd565b5090565b6060611deb82604051602001611dd791906140ff565b6040516020818303038152906040526115c4565b9050919050565b611e03611dfd612219565b83612513565b611e42576040517f08c379a0000000000000000000000000000000000000000000000000000000008152600401611e3990614592565b60405180910390fd5b611e4e84848484612995565b50505050565b600e60009054906101000a900473ffffffffffffffffffffffffffffffffffffffff1681565b6060611e85826121ad565b611ec4576040517f08c379a0000000000000000000000000000000000000000000000000000000008152600401611ebb906144f2565b60405180910390fd5b6000600660008481526020019081526020016000208054611ee490614a5a565b80601f0160208091040260200160405190810160405280929190818152602001828054611f1090614a5a565b8015611f5d5780601f10611f3257610100808354040283529160200191611f5d565b820191906000526020600020905b815481529060010190602001808311611f4057829003601f168201915b505050505090506000611f6e6129f1565b9050600081511415611f84578192505050611fc7565b600082511115611fb9578082604051602001611fa1929190614146565b60405160208183030381529060405292505050611fc7565b611fc284612a08565b925050505b919050565b6000611fd733610b9a565b5090565b600f60009054906101000a900473ffffffffffffffffffffffffffffffffffffffff1673ffffffffffffffffffffffffffffffffffffffff163373ffffffffffffffffffffffffffffffffffffffff161461206b576040517f08c379a000000000000000000000000000000000000000000000000000000000815260040161206290614352565b60405180910390fd5b80600e60006101000a81548173ffffffffffffffffffffffffffffffffffffffff021916908373ffffffffffffffffffffffffffffffffffffffff16021790555050565b6000600560008473ffffffffffffffffffffffffffffffffffffffff1673ffffffffffffffffffffffffffffffffffffffff16815260200190815260200160002060008373ffffffffffffffffffffffffffffffffffffffff1673ffffffffffffffffffffffffffffffffffffffff16815260200190815260200160002060009054906101000a900460ff16905092915050565b60007f01ffc9a7000000000000000000000000000000000000000000000000000000007bffffffffffffffffffffffffffffffffffffffffffffffffffffffff1916827bffffffffffffffffffffffffffffffffffffffffffffffffffffffff1916149050919050565b60008073ffffffffffffffffffffffffffffffffffffffff166002600084815260200190815260200160002060009054906101000a900473ffffffffffffffffffffffffffffffffffffffff1673ffffffffffffffffffffffffffffffffffffffff1614159050919050565b600033905090565b816004600083815260200190815260200160002060006101000a81548173ffffffffffffffffffffffffffffffffffffffff021916908373ffffffffffffffffffffffffffffffffffffffff160217905550808273ffffffffffffffffffffffffffffffffffffffff1661229483611411565b73ffffffffffffffffffffffffffffffffffffffff167f8c5be1e5ebec7d5bd14f71427d1e84f3dd0314c0f7b2291e5b200ac8c7c3b92560405160405180910390a45050565b6122e261369a565b6122ea61369a565b61230185858584612aaf909392919063ffffffff16565b9150509392505050565b612322828460800151612b5f90919063ffffffff16565b612339818460800151612b5f90919063ffffffff16565b505050565b600030600b5460405160200161235592919061411a565b604051602081830303815290604052805190602001209050600b5483606001818152505083600c600083815260200190815260200160002060006101000a81548173ffffffffffffffffffffffffffffffffffffffff021916908373ffffffffffffffffffffffffffffffffffffffff160217905550807fb5e6e01e79f91267dc17b4e6314d5d4d03593d2ceee0fbb452b750bd70ea5af960405160405180910390a2600960009054906101000a900473ffffffffffffffffffffffffffffffffffffffff1673ffffffffffffffffffffffffffffffffffffffff16634000aea08584612443876002612b84565b6040518463ffffffff1660e01b815260040161246193929190614271565b602060405180830381600087803b15801561247b57600080fd5b505af115801561248f573d6000803e3d6000fd5b505050506040513d601f19601f820116820180604052508101906124b39190613ace565b6124f2576040517f08c379a00000000000000000000000000000000000000000000000000000000081526004016124e9906143b2565b60405180910390fd5b6001600b600082825461250591906146f0565b925050819055509392505050565b600061251e826121ad565b61255d576040517f08c379a000000000000000000000000000000000000000000000000000000000815260040161255490614412565b60405180910390fd5b600061256883611411565b90508073ffffffffffffffffffffffffffffffffffffffff168473ffffffffffffffffffffffffffffffffffffffff1614806125d757508373ffffffffffffffffffffffffffffffffffffffff166125bf84610870565b73ffffffffffffffffffffffffffffffffffffffff16145b806125e857506125e781856120af565b5b91505092915050565b8273ffffffffffffffffffffffffffffffffffffffff1661261182611411565b73ffffffffffffffffffffffffffffffffffffffff1614612667576040517f08c379a000000000000000000000000000000000000000000000000000000000815260040161265e90614532565b60405180910390fd5b600073ffffffffffffffffffffffffffffffffffffffff168273ffffffffffffffffffffffffffffffffffffffff1614156126d7576040517f08c379a00000000000000000000000000000000000000000000000000000000081526004016126ce906143d2565b60405180910390fd5b6126e2838383612c2b565b6126ed600082612221565b6001600360008573ffffffffffffffffffffffffffffffffffffffff1673ffffffffffffffffffffffffffffffffffffffff168152602001908152602001600020600082825461273d9190614942565b925050819055506001600360008473ffffffffffffffffffffffffffffffffffffffff1673ffffffffffffffffffffffffffffffffffffffff168152602001908152602001600020600082825461279491906146f0565b92505081905550816002600083815260200190815260200160002060006101000a81548173ffffffffffffffffffffffffffffffffffffffff021916908373ffffffffffffffffffffffffffffffffffffffff160217905550808273ffffffffffffffffffffffffffffffffffffffff168473ffffffffffffffffffffffffffffffffffffffff167fddf252ad1be2c89b69c2b068fc378daa952ba7f163c4a11628f55a4df523b3ef60405160405180910390a4505050565b80600c600082815260200190815260200160002060009054906101000a900473ffffffffffffffffffffffffffffffffffffffff1673ffffffffffffffffffffffffffffffffffffffff163373ffffffffffffffffffffffffffffffffffffffff16146128ef576040517f08c379a00000000000000000000000000000000000000000000000000000000081526004016128e6906145b2565b60405180910390fd5b600c600082815260200190815260200160002060006101000a81549073ffffffffffffffffffffffffffffffffffffffff0219169055807f7cc135e0cebb02c3480ae5d74d377283180a2601f8f644edf7987b009316c63a60405160405180910390a25050565b612960600d612c30565b600061296c600d612987565b90506129788382612c46565b6129828183612c64565b505050565b600081600001549050919050565b6129a08484846125f1565b6129ac84848484612cd8565b6129eb576040517f08c379a00000000000000000000000000000000000000000000000000000000081526004016129e290614372565b60405180910390fd5b50505050565b606060405180602001604052806000815250905090565b6060612a13826121ad565b612a52576040517f08c379a0000000000000000000000000000000000000000000000000000000008152600401612a4990614552565b60405180910390fd5b6000612a5c6129f1565b90506000815111612a7c5760405180602001604052806000815250612aa7565b80612a8684612e6f565b604051602001612a97929190614146565b6040516020818303038152906040525b915050919050565b612ab761369a565b612ac7856080015161010061301c565b508385600001818152505082856020019073ffffffffffffffffffffffffffffffffffffffff16908173ffffffffffffffffffffffffffffffffffffffff16815250508185604001907bffffffffffffffffffffffffffffffffffffffffffffffffffffffff191690817bffffffffffffffffffffffffffffffffffffffffffffffffffffffff191681525050849050949350505050565b612b6c8260038351613086565b612b7f81836131cb90919063ffffffff16565b505050565b6060634042994660e01b6000808560000151866020015187604001518860600151888a6080015160000151604051602401612bc69897969594939291906141ec565b604051602081830303815290604052907bffffffffffffffffffffffffffffffffffffffffffffffffffffffff19166020820180517bffffffffffffffffffffffffffffffffffffffffffffffffffffffff8381831617835250505050905092915050565b505050565b6001816000016000828254019250508190555050565b612c608282604051806020016040528060008152506131ed565b5050565b612c6d826121ad565b612cac576040517f08c379a0000000000000000000000000000000000000000000000000000000008152600401612ca390614492565b60405180910390fd5b80600660008481526020019081526020016000209080519060200190612cd3929190613707565b505050565b6000612cf98473ffffffffffffffffffffffffffffffffffffffff16613248565b15612e62578373ffffffffffffffffffffffffffffffffffffffff1663150b7a02612d22612219565b8786866040518563ffffffff1660e01b8152600401612d4494939291906141a0565b602060405180830381600087803b158015612d5e57600080fd5b505af1925050508015612d8f57506040513d601f19601f82011682018060405250810190612d8c9190613b85565b60015b612e12573d8060008114612dbf576040519150601f19603f3d011682016040523d82523d6000602084013e612dc4565b606091505b50600081511415612e0a576040517f08c379a0000000000000000000000000000000000000000000000000000000008152600401612e0190614372565b60405180910390fd5b805181602001fd5b63150b7a0260e01b7bffffffffffffffffffffffffffffffffffffffffffffffffffffffff1916817bffffffffffffffffffffffffffffffffffffffffffffffffffffffff191614915050612e67565b600190505b949350505050565b60606000821415612eb7576040518060400160405280600181526020017f30000000000000000000000000000000000000000000000000000000000000008152509050613017565b600082905060005b60008214612ee9578080612ed290614abd565b915050600a82612ee29190614746565b9150612ebf565b60008167ffffffffffffffff811115612f2b577f4e487b7100000000000000000000000000000000000000000000000000000000600052604160045260246000fd5b6040519080825280601f01601f191660200182016040528015612f5d5781602001600182028036833780820191505090505b5090505b6000851461301057600182612f769190614942565b9150600a85612f859190614b3e565b6030612f9191906146f0565b60f81b818381518110612fcd577f4e487b7100000000000000000000000000000000000000000000000000000000600052603260045260246000fd5b60200101907effffffffffffffffffffffffffffffffffffffffffffffffffffffffffffff1916908160001a905350600a856130099190614746565b9450612f61565b8093505050505b919050565b61302461378d565b60006020836130339190614b3e565b1461305f576020826130459190614b3e565b60206130519190614942565b8261305c91906146f0565b91505b81836020018181525050604051808452600081528281016020016040525082905092915050565b601781116130b3576130ad8160058460ff16901b60ff16178461325b90919063ffffffff16565b506131c6565b60ff81116130f5576130d8601860058460ff16901b178461325b90919063ffffffff16565b506130ef8160018561327b9092919063ffffffff16565b506131c5565b61ffff81116131385761311b601960058460ff16901b178461325b90919063ffffffff16565b506131328160028561327b9092919063ffffffff16565b506131c4565b63ffffffff811161317d57613160601a60058460ff16901b178461325b90919063ffffffff16565b506131778160048561327b9092919063ffffffff16565b506131c3565b67ffffffffffffffff81116131c2576131a9601b60058460ff16901b178461325b90919063ffffffff16565b506131c08160088561327b9092919063ffffffff16565b505b5b5b5b5b505050565b6131d361378d565b6131e58384600001515184855161329d565b905092915050565b6131f783836133a7565b6132046000848484612cd8565b613243576040517f08c379a000000000000000000000000000000000000000000000000000000000815260040161323a90614372565b60405180910390fd5b505050565b600080823b905060008111915050919050565b61326361378d565b6132738384600001515184613575565b905092915050565b61328361378d565b6132948485600001515185856135cc565b90509392505050565b6132a561378d565b82518211156132b357600080fd5b846020015182856132c491906146f0565b11156132f9576132f88560026132e9886020015188876132e491906146f0565b61365a565b6132f391906148e8565b613676565b5b6000808651805187602083010193508088870111156133185787860182525b60208701925050505b6020841061335f578051825260208261333a91906146f0565b915060208161334991906146f0565b90506020846133589190614942565b9350613321565b600060018560206133709190614942565b61010061337d91906147ca565b6133879190614942565b905080198251168184511681811785525050879350505050949350505050565b600073ffffffffffffffffffffffffffffffffffffffff168273ffffffffffffffffffffffffffffffffffffffff161415613417576040517f08c379a000000000000000000000000000000000000000000000000000000000815260040161340e906144b2565b60405180910390fd5b613420816121ad565b15613460576040517f08c379a000000000000000000000000000000000000000000000000000000000815260040161345790614392565b60405180910390fd5b61346c60008383612c2b565b6001600360008473ffffffffffffffffffffffffffffffffffffffff1673ffffffffffffffffffffffffffffffffffffffff16815260200190815260200160002060008282546134bc91906146f0565b92505081905550816002600083815260200190815260200160002060006101000a81548173ffffffffffffffffffffffffffffffffffffffff021916908373ffffffffffffffffffffffffffffffffffffffff160217905550808273ffffffffffffffffffffffffffffffffffffffff16600073ffffffffffffffffffffffffffffffffffffffff167fddf252ad1be2c89b69c2b068fc378daa952ba7f163c4a11628f55a4df523b3ef60405160405180910390a45050565b61357d61378d565b836020015183106135a3576135a2846002866020015161359d91906148e8565b613676565b5b83518051602085830101848153818614156135bf576001820183525b5050508390509392505050565b6135d461378d565b846020015184836135e591906146f0565b111561360d5761360c85600286856135fd91906146f0565b61360791906148e8565b613676565b5b600060018361010061361f91906147ca565b6136299190614942565b9050855183868201018583198251161781528151858801111561364c5784870182525b505085915050949350505050565b60008183111561366c57829050613670565b8190505b92915050565b600082600001519050613689838361301c565b5061369483826131cb565b50505050565b6040518060a0016040528060008019168152602001600073ffffffffffffffffffffffffffffffffffffffff16815260200160007bffffffffffffffffffffffffffffffffffffffffffffffffffffffff191681526020016000815260200161370161378d565b81525090565b82805461371390614a5a565b90600052602060002090601f016020900481019282613735576000855561377c565b82601f1061374e57805160ff191683800117855561377c565b8280016001018555821561377c579182015b8281111561377b578251825591602001919060010190613760565b5b50905061378991906137a7565b5090565b604051806040016040528060608152602001600081525090565b5b808211156137c05760008160009055506001016137a8565b5090565b60006137d76137d284614612565b6145ed565b9050828152602081018484840111156137ef57600080fd5b6137fa848285614a18565b509392505050565b600061381561381084614643565b6145ed565b90508281526020810184848401111561382d57600080fd5b613838848285614a27565b509392505050565b60008135905061384f816151ea565b92915050565b60008135905061386481615201565b92915050565b60008151905061387981615201565b92915050565b60008135905061388e81615218565b92915050565b6000813590506138a38161522f565b92915050565b6000815190506138b88161522f565b92915050565b600082601f8301126138cf57600080fd5b81356138df8482602086016137c4565b91505092915050565b600082601f8301126138f957600080fd5b8151613909848260208601613802565b91505092915050565b60008135905061392181615246565b92915050565b60006020828403121561393957600080fd5b600061394784828501613840565b91505092915050565b6000806040838503121561396357600080fd5b600061397185828601613840565b925050602061398285828601613840565b9150509250929050565b6000806000606084860312156139a157600080fd5b60006139af86828701613840565b93505060206139c086828701613840565b92505060406139d186828701613912565b9150509250925092565b600080600080608085870312156139f157600080fd5b60006139ff87828801613840565b9450506020613a1087828801613840565b9350506040613a2187828801613912565b925050606085013567ffffffffffffffff811115613a3e57600080fd5b613a4a878288016138be565b91505092959194509250565b60008060408385031215613a6957600080fd5b6000613a7785828601613840565b9250506020613a8885828601613855565b9150509250929050565b60008060408385031215613aa557600080fd5b6000613ab385828601613840565b9250506020613ac485828601613912565b9150509250929050565b600060208284031215613ae057600080fd5b6000613aee8482850161386a565b91505092915050565b600060208284031215613b0957600080fd5b6000613b178482850161387f565b91505092915050565b60008060408385031215613b3357600080fd5b6000613b418582860161387f565b9250506020613b5285828601613912565b9150509250929050565b600060208284031215613b6e57600080fd5b6000613b7c84828501613894565b91505092915050565b600060208284031215613b9757600080fd5b6000613ba5848285016138a9565b91505092915050565b600060208284031215613bc057600080fd5b600082013567ffffffffffffffff811115613bda57600080fd5b613be6848285016138be565b91505092915050565b600060208284031215613c0157600080fd5b600082015167ffffffffffffffff811115613c1b57600080fd5b613c27848285016138e8565b91505092915050565b600060208284031215613c4257600080fd5b6000613c5084828501613912565b91505092915050565b6000613c6583836140af565b60208301905092915050565b613c7a81614976565b82525050565b613c91613c8c82614976565b614b06565b82525050565b6000613ca282614684565b613cac81856146b2565b9350613cb783614674565b8060005b83811015613ce8578151613ccf8882613c59565b9750613cda836146a5565b925050600181019050613cbb565b5085935050505092915050565b613cfe81614988565b82525050565b613d0d81614994565b82525050565b613d24613d1f82614994565b614b18565b82525050565b613d338161499e565b82525050565b6000613d448261468f565b613d4e81856146c3565b9350613d5e818560208601614a27565b613d6781614c2b565b840191505092915050565b613d83613d7e826149f4565b614b06565b82525050565b6000613d948261469a565b613d9e81856146d4565b9350613dae818560208601614a27565b613db781614c2b565b840191505092915050565b6000613dcd8261469a565b613dd781856146e5565b9350613de7818560208601614a27565b80840191505092915050565b6000613e00602b836146d4565b9150613e0b82614c56565b604082019050919050565b6000613e236032836146d4565b9150613e2e82614ca5565b604082019050919050565b6000613e46601c836146d4565b9150613e5182614cf4565b602082019050919050565b6000613e696023836146d4565b9150613e7482614d1d565b604082019050919050565b6000613e8c6024836146d4565b9150613e9782614d6c565b604082019050919050565b6000613eaf6019836146d4565b9150613eba82614dbb565b602082019050919050565b6000613ed2602c836146d4565b9150613edd82614de4565b604082019050919050565b6000613ef56038836146d4565b9150613f0082614e33565b604082019050919050565b6000613f18602a836146d4565b9150613f2382614e82565b604082019050919050565b6000613f3b6029836146d4565b9150613f4682614ed1565b604082019050919050565b6000613f5e602e836146d4565b9150613f6982614f20565b604082019050919050565b6000613f816020836146d4565b9150613f8c82614f6f565b602082019050919050565b6000613fa46016836146d4565b9150613faf82614f98565b602082019050919050565b6000613fc76031836146d4565b9150613fd282614fc1565b604082019050919050565b6000613fea602c836146d4565b9150613ff582615010565b604082019050919050565b600061400d6029836146d4565b91506140188261505f565b604082019050919050565b6000614030602f836146d4565b915061403b826150ae565b604082019050919050565b60006140536021836146d4565b915061405e826150fd565b604082019050919050565b60006140766031836146d4565b91506140818261514c565b604082019050919050565b60006140996028836146d4565b91506140a48261519b565b604082019050919050565b6140b8816149ea565b82525050565b6140c7816149ea565b82525050565b6140de6140d9826149ea565b614b34565b82525050565b60006140f08284613c80565b60148201915081905092915050565b600061410b8284613d13565b60208201915081905092915050565b60006141268285613d72565b60148201915061413682846140cd565b6020820191508190509392505050565b60006141528285613dc2565b915061415e8284613dc2565b91508190509392505050565b600061417682846140cd565b60208201915081905092915050565b600060208201905061419a6000830184613c71565b92915050565b60006080820190506141b56000830187613c71565b6141c26020830186613c71565b6141cf60408301856140be565b81810360608301526141e18184613d39565b905095945050505050565b600061010082019050614202600083018b613c71565b61420f602083018a6140be565b61421c6040830189613d04565b6142296060830188613c71565b6142366080830187613d2a565b61424360a08301866140be565b61425060c08301856140be565b81810360e08301526142628184613d39565b90509998505050505050505050565b60006060820190506142866000830186613c71565b61429360208301856140be565b81810360408301526142a58184613d39565b9050949350505050565b600060208201905081810360008301526142c98184613c97565b905092915050565b60006020820190506142e66000830184613cf5565b92915050565b60006020820190506143016000830184613d04565b92915050565b600060408201905061431c6000830185613d04565b61432960208301846140be565b9392505050565b6000602082019050818103600083015261434a8184613d89565b905092915050565b6000602082019050818103600083015261436b81613df3565b9050919050565b6000602082019050818103600083015261438b81613e16565b9050919050565b600060208201905081810360008301526143ab81613e39565b9050919050565b600060208201905081810360008301526143cb81613e5c565b9050919050565b600060208201905081810360008301526143eb81613e7f565b9050919050565b6000602082019050818103600083015261440b81613ea2565b9050919050565b6000602082019050818103600083015261442b81613ec5565b9050919050565b6000602082019050818103600083015261444b81613ee8565b9050919050565b6000602082019050818103600083015261446b81613f0b565b9050919050565b6000602082019050818103600083015261448b81613f2e565b9050919050565b600060208201905081810360008301526144ab81613f51565b9050919050565b600060208201905081810360008301526144cb81613f74565b9050919050565b600060208201905081810360008301526144eb81613f97565b9050919050565b6000602082019050818103600083015261450b81613fba565b9050919050565b6000602082019050818103600083015261452b81613fdd565b9050919050565b6000602082019050818103600083015261454b81614000565b9050919050565b6000602082019050818103600083015261456b81614023565b9050919050565b6000602082019050818103600083015261458b81614046565b9050919050565b600060208201905081810360008301526145ab81614069565b9050919050565b600060208201905081810360008301526145cb8161408c565b9050919050565b60006020820190506145e760008301846140be565b92915050565b60006145f7614608565b90506146038282614a8c565b919050565b6000604051905090565b600067ffffffffffffffff82111561462d5761462c614bfc565b5b61463682614c2b565b9050602081019050919050565b600067ffffffffffffffff82111561465e5761465d614bfc565b5b61466782614c2b565b9050602081019050919050565b6000819050602082019050919050565b600081519050919050565b600081519050919050565b600081519050919050565b6000602082019050919050565b600082825260208201905092915050565b600082825260208201905092915050565b600082825260208201905092915050565b600081905092915050565b60006146fb826149ea565b9150614706836149ea565b9250827fffffffffffffffffffffffffffffffffffffffffffffffffffffffffffffffff0382111561473b5761473a614b6f565b5b828201905092915050565b6000614751826149ea565b915061475c836149ea565b92508261476c5761476b614b9e565b5b828204905092915050565b6000808291508390505b60018511156147c15780860481111561479d5761479c614b6f565b5b60018516156147ac5780820291505b80810290506147ba85614c49565b9450614781565b94509492505050565b60006147d5826149ea565b91506147e0836149ea565b925061480d7fffffffffffffffffffffffffffffffffffffffffffffffffffffffffffffffff8484614815565b905092915050565b60008261482557600190506148e1565b8161483357600090506148e1565b8160018114614849576002811461485357614882565b60019150506148e1565b60ff84111561486557614864614b6f565b5b8360020a91508482111561487c5761487b614b6f565b5b506148e1565b5060208310610133831016604e8410600b84101617156148b75782820a9050838111156148b2576148b1614b6f565b5b6148e1565b6148c48484846001614777565b925090508184048111156148db576148da614b6f565b5b81810290505b9392505050565b60006148f3826149ea565b91506148fe836149ea565b9250817fffffffffffffffffffffffffffffffffffffffffffffffffffffffffffffffff048311821515161561493757614936614b6f565b5b828202905092915050565b600061494d826149ea565b9150614958836149ea565b92508282101561496b5761496a614b6f565b5b828203905092915050565b6000614981826149ca565b9050919050565b60008115159050919050565b6000819050919050565b60007fffffffff0000000000000000000000000000000000000000000000000000000082169050919050565b600073ffffffffffffffffffffffffffffffffffffffff82169050919050565b6000819050919050565b60006149ff82614a06565b9050919050565b6000614a11826149ca565b9050919050565b82818337600083830152505050565b60005b83811015614a45578082015181840152602081019050614a2a565b83811115614a54576000848401525b50505050565b60006002820490506001821680614a7257607f821691505b60208210811415614a8657614a85614bcd565b5b50919050565b614a9582614c2b565b810181811067ffffffffffffffff82111715614ab457614ab3614bfc565b5b80604052505050565b6000614ac8826149ea565b91507fffffffffffffffffffffffffffffffffffffffffffffffffffffffffffffffff821415614afb57614afa614b6f565b5b600182019050919050565b6000614b1182614b22565b9050919050565b6000819050919050565b6000614b2d82614c3c565b9050919050565b6000819050919050565b6000614b49826149ea565b9150614b54836149ea565b925082614b6457614b63614b9e565b5b828206905092915050565b7f4e487b7100000000000000000000000000000000000000000000000000000000600052601160045260246000fd5b7f4e487b7100000000000000000000000000000000000000000000000000000000600052601260045260246000fd5b7f4e487b7100000000000000000000000000000000000000000000000000000000600052602260045260246000fd5b7f4e487b7100000000000000000000000000000000000000000000000000000000600052604160045260246000fd5b6000601f19601f8301169050919050565b60008160601b9050919050565b60008160011c9050919050565b7f4f6e6c7920636f6e7472616374206f776e65722063616e2063616c6c2074686960008201527f732066756e6374696f6e2e000000000000000000000000000000000000000000602082015250565b7f4552433732313a207472616e7366657220746f206e6f6e20455243373231526560008201527f63656976657220696d706c656d656e7465720000000000000000000000000000602082015250565b7f4552433732313a20746f6b656e20616c7265616479206d696e74656400000000600082015250565b7f756e61626c6520746f207472616e73666572416e6443616c6c20746f206f726160008201527f636c650000000000000000000000000000000000000000000000000000000000602082015250565b7f4552433732313a207472616e7366657220746f20746865207a65726f2061646460008201527f7265737300000000000000000000000000000000000000000000000000000000602082015250565b7f4552433732313a20617070726f766520746f2063616c6c657200000000000000600082015250565b7f4552433732313a206f70657261746f7220717565727920666f72206e6f6e657860008201527f697374656e7420746f6b656e0000000000000000000000000000000000000000602082015250565b7f4552433732313a20617070726f76652063616c6c6572206973206e6f74206f7760008201527f6e6572206e6f7220617070726f76656420666f7220616c6c0000000000000000602082015250565b7f4552433732313a2062616c616e636520717565727920666f7220746865207a6560008201527f726f206164647265737300000000000000000000000000000000000000000000602082015250565b7f4552433732313a206f776e657220717565727920666f72206e6f6e657869737460008201527f656e7420746f6b656e0000000000000000000000000000000000000000000000602082015250565b7f45524337323155524953746f726167653a2055524920736574206f66206e6f6e60008201527f6578697374656e7420746f6b656e000000000000000000000000000000000000602082015250565b7f4552433732313a206d696e7420746f20746865207a65726f2061646472657373600082015250565b7f42616467652075736572206d7573742065786973742e00000000000000000000600082015250565b7f45524337323155524953746f726167653a2055524920717565727920666f722060008201527f6e6f6e6578697374656e7420746f6b656e000000000000000000000000000000602082015250565b7f4552433732313a20617070726f76656420717565727920666f72206e6f6e657860008201527f697374656e7420746f6b656e0000000000000000000000000000000000000000602082015250565b7f4552433732313a207472616e73666572206f6620746f6b656e2074686174206960008201527f73206e6f74206f776e0000000000000000000000000000000000000000000000602082015250565b7f4552433732314d657461646174613a2055524920717565727920666f72206e6f60008201527f6e6578697374656e7420746f6b656e0000000000000000000000000000000000602082015250565b7f4552433732313a20617070726f76616c20746f2063757272656e74206f776e6560008201527f7200000000000000000000000000000000000000000000000000000000000000602082015250565b7f4552433732313a207472616e736665722063616c6c6572206973206e6f74206f60008201527f776e6572206e6f7220617070726f766564000000000000000000000000000000602082015250565b7f536f75726365206d75737420626520746865206f7261636c65206f662074686560008201527f2072657175657374000000000000000000000000000000000000000000000000602082015250565b6151f381614976565b81146151fe57600080fd5b50565b61520a81614988565b811461521557600080fd5b50565b61522181614994565b811461522c57600080fd5b50565b6152388161499e565b811461524357600080fd5b50565b61524f816149ea565b811461525a57600080fd5b5056fea2646970667358221220ceb80b4ab6d0bc4360d33f4a44db43505cc5449ef22e2449aa690037c2feeda464736f6c63430008040033",
  "immutableReferences": {},
  "source": "// SPDX-License-Identifier: MIT\npragma solidity >=0.8.0 <0.9.0;\nimport \"@openzeppelin/contracts/token/ERC721/extensions/ERC721URIStorage.sol\";\nimport \"@openzeppelin/contracts/utils/Counters.sol\";\nimport \"@chainlink/contracts/src/v0.8/dev/Chainlink.sol\";\nimport \"@chainlink/contracts/src/v0.8/dev/ChainlinkClient.sol\";\nimport \"./BadgeLookup.sol\";\n\n\ncontract SynthBadge is ERC721URIStorage, ChainlinkClient {\n    using Counters for Counters.Counter;\n    using Chainlink for Chainlink.Request;\n\n    Counters.Counter private _tokenIds;\n\n    // Badge Lookup and owner\n    address public badgeLookup;\n    address public owner;\n\n    // Chainlink\n    address private oracle;\n    bytes32 private jobId;\n    uint256 private fee;\n\n    // Internals\n    mapping (bytes32=> address) private requestByAddress;\n    mapping (address=> uint256[]) public badgesByUser;\n    mapping (address=> uint256) public totalUserBadges;\n\n    // Events\n    event UrlRequested(string url);\n    event ApiResponse(bytes32 requestId, uint256 badgeTotal);\n\n    // Permits modifications only by the owner of the contract.\n    modifier only_owner() {\n        require(msg.sender == owner, \"Only contract owner can call this function.\");\n        _;\n    }\n\n    // Permits modifications only by the oracle contract.\n    modifier from_oracle() {\n        require(msg.sender == address(oracle), \"Only oracle contract can call this function.\");\n        _;\n    }\n\n     /**\n     * Network: Kovan\n     * Oracle: 0x2f90A6D021db21e1B2A077c5a37B3C7E75D15b7e\n     * Job ID: 29fa9aa13bf1468788b7cc4a500a45b8\n     * Fee: 0.1 LINK\n     */\n    constructor(address _badgeLookup) payable\n    ERC721(\"SynthBadge\", \"sNFT\")\n    {\n        // KOVAN settings\n        setPublicChainlinkToken();\n        oracle = 0x2f90A6D021db21e1B2A077c5a37B3C7E75D15b7e;\n        jobId = bytes32(\"29fa9aa13bf1468788b7cc4a500a45b8\");\n        fee = 0.1 * 10 ** 18; // (Varies by network and job)\n\n        badgeLookup = _badgeLookup;\n        owner = msg.sender;\n    }\n\n    /**\n     * OWNER ONLY UPDATE FUNCTIONS IN CASE THINGS CHANGE.\n     */\n\n\n    /**\n     * @dev Updates the oracle contract.\n     */\n    function updateLookup(address _lookup) only_owner public {\n        badgeLookup = _lookup;\n    }\n\n    /**\n     * @dev Updates the oracle contract.\n     */\n    function updateOracle(address _oracle) only_owner public {\n        oracle = _oracle;\n    }\n\n    /**\n     * @dev Updates the oracle contract.\n     */\n    function updateJob(bytes32 _job) only_owner public {\n        jobId = bytes32(_job);\n    }\n\n    /**\n     * @dev Updates the oracle contract.\n     */\n    function updateFee(uint256 _fee) only_owner public {\n        fee = _fee;\n    }\n\n    /**\n     * Create a Chainlink request to retrieve API response, find the target.\n     */\n    function requestBadges() public returns (bytes32 requestId) {\n        requestBadges(msg.sender);\n    }\n\n    function requestBadges(address _owner) public returns (bytes32 requestId) {\n        Chainlink.Request memory request = buildChainlinkRequest(jobId, address(this), this.fulfill.selector);\n\n        // Set the URL to perform the GET request on\n        string memory apiUrl = BadgeLookup(badgeLookup).apiUrl();\n        string memory url = string(abi.encodePacked(apiUrl, toString(_owner)));\n        emit UrlRequested(url);\n        request.add(\"get\", url);\n        request.add(\"path\", \"id\");\n\n        // Sends the request\n        bytes32 _requestId = sendChainlinkRequestTo(oracle, request, fee);\n        requestByAddress[_requestId] = _owner;\n    }\n\n\n    /**\n     * Receive the response in the form of uint256\n     */\n    function fulfill(bytes32 _requestId, uint256 _badgeId) public {\n\n        validateChainlinkCallback(_requestId);\n        emit ApiResponse(_requestId, _badgeId);\n        if(_badgeId > 0) {\n            address badgeUser = requestByAddress[_requestId];\n            require(badgeUser != address(0), \"Badge user must exist.\");\n            if(!checkUserBadge(badgeUser, _badgeId)) {\n                string memory badgeUrl = getBadgeUrl(_badgeId);\n                mintNFT(badgeUser, badgeUrl);\n                badgesByUser[badgeUser].push(_badgeId);\n                totalUserBadges[badgeUser]++;\n            }\n        }\n    }\n\n    /**\n     * Mint the NFT.\n     */\n    function mintNFT(address _owner, string memory tokenURI) private {\n        _tokenIds.increment();\n        uint256 tokenId = _tokenIds.current();\n        _safeMint(_owner, tokenId);\n        _setTokenURI(tokenId, tokenURI);\n    }\n\n    /**\n     * Token lookup for myself or someone else.\n     */\n    function getTokens() view public returns(uint256[] memory) {\n        getTokens(msg.sender);\n    }\n\n    function getTokens(address _owner) view public returns(uint256[] memory) {\n        uint256 tokenCount = balanceOf(_owner);\n        if (tokenCount == 0) {\n            return new uint256[](0);\n        } else {\n            uint256[] memory result = new uint256[](tokenCount);\n            uint256 totalTokens = _tokenIds.current();\n            uint256 resultIndex = 0;\n            for (uint256 t = 1; t <= totalTokens; t++) {\n                if (_exists(t) && ownerOf(t) == _owner) {\n                    result[resultIndex] = t;\n                    resultIndex++;\n                }\n            }\n            return result;\n        }\n    }\n\n    function checkUserBadge(address _owner, uint256 _id) public view returns(bool badgeFound) {\n        badgeFound = false;\n        for(uint256 i=0; i<totalUserBadges[_owner]; i++) {\n            if(badgesByUser[_owner][i] == _id) {\n                badgeFound = true;\n            }\n        }\n        return badgeFound;\n    }\n\n    function getUserBadges(address _owner) public view returns(uint256[] memory) {\n        return badgesByUser[_owner];\n    }\n\n    function getBadgeUrl(uint256 _id) public view returns(string memory badgeUrl) {\n        badgeUrl = BadgeLookup(badgeLookup).getBadgeById(_id);\n        return badgeUrl;\n    }\n\n    /**\n     * String functions necessary for appending address to a url.\n     */\n\n    function toString(address account) public pure returns(string memory) {\n        return toString(abi.encodePacked(account));\n    }\n\n    function toString(uint256 value) public pure returns(string memory) {\n        return toString(abi.encodePacked(value));\n    }\n\n    function toString(bytes32 value) public pure returns(string memory) {\n        return toString(abi.encodePacked(value));\n    }\n\n    function toString(bytes memory data) public pure returns(string memory) {\n        bytes memory alphabet = \"0123456789abcdef\";\n\n        bytes memory str = new bytes(2 + data.length * 2);\n        str[0] = \"0\";\n        str[1] = \"x\";\n        for (uint i = 0; i < data.length; i++) {\n            str[2+i*2] = alphabet[uint(uint8(data[i] >> 4))];\n            str[3+i*2] = alphabet[uint(uint8(data[i] & 0x0f))];\n        }\n        return string(str);\n    }\n}\n\n\n\n",
  "sourcePath": "/Users/Shared/Code/experimental/synthetix-badges/contracts/SynthBadge.sol",
  "compiler": {
    "name": "solc",
    "version": "0.8.4+commit.c7e474f2.Emscripten.clang"
  },
  "schemaVersion": "3.4.1",
  "updatedAt": "2021-05-22T01:38:22.060Z",
  "networkType": "ethereum",
  "devdoc": {
    "kind": "dev",
    "methods": {
      "approve(address,uint256)": {
        "details": "See {IERC721-approve}."
      },
      "balanceOf(address)": {
        "details": "See {IERC721-balanceOf}."
      },
      "getApproved(uint256)": {
        "details": "See {IERC721-getApproved}."
      },
      "isApprovedForAll(address,address)": {
        "details": "See {IERC721-isApprovedForAll}."
      },
      "name()": {
        "details": "See {IERC721Metadata-name}."
      },
      "ownerOf(uint256)": {
        "details": "See {IERC721-ownerOf}."
      },
      "safeTransferFrom(address,address,uint256)": {
        "details": "See {IERC721-safeTransferFrom}."
      },
      "safeTransferFrom(address,address,uint256,bytes)": {
        "details": "See {IERC721-safeTransferFrom}."
      },
      "setApprovalForAll(address,bool)": {
        "details": "See {IERC721-setApprovalForAll}."
      },
      "supportsInterface(bytes4)": {
        "details": "See {IERC165-supportsInterface}."
      },
      "symbol()": {
        "details": "See {IERC721Metadata-symbol}."
      },
      "tokenURI(uint256)": {
        "details": "See {IERC721Metadata-tokenURI}."
      },
      "transferFrom(address,address,uint256)": {
        "details": "See {IERC721-transferFrom}."
      },
      "updateFee(uint256)": {
        "details": "Updates the oracle contract."
      },
      "updateJob(bytes32)": {
        "details": "Updates the oracle contract."
      },
      "updateLookup(address)": {
        "details": "Updates the oracle contract."
      },
      "updateOracle(address)": {
        "details": "Updates the oracle contract."
      }
    },
    "version": 1
  },
  "userdoc": {
    "kind": "user",
    "methods": {
      "constructor": {
        "notice": "Network: Kovan Oracle: 0x2f90A6D021db21e1B2A077c5a37B3C7E75D15b7e Job ID: 29fa9aa13bf1468788b7cc4a500a45b8 Fee: 0.1 LINK"
      },
      "fulfill(bytes32,uint256)": {
        "notice": "Receive the response in the form of uint256"
      },
      "getTokens()": {
        "notice": "Token lookup for myself or someone else."
      },
      "requestBadges()": {
        "notice": "Create a Chainlink request to retrieve API response, find the target."
      },
      "toString(address)": {
        "notice": "String functions necessary for appending address to a url."
      }
    },
    "version": 1
  }
}