{
  "contractName": "SynthBadge",
  "abi": [
    {
      "inputs": [
        {
          "internalType": "address",
          "name": "_badgeLookup",
          "type": "address"
        }
      ],
      "stateMutability": "payable",
      "type": "constructor",
      "payable": true
    },
    {
      "anonymous": false,
      "inputs": [
        {
          "indexed": false,
          "internalType": "bytes32",
          "name": "requestId",
          "type": "bytes32"
        },
        {
          "indexed": false,
          "internalType": "uint256",
          "name": "badgeTotal",
          "type": "uint256"
        }
      ],
      "name": "ApiResponse",
      "type": "event"
    },
    {
      "anonymous": false,
      "inputs": [
        {
          "indexed": true,
          "internalType": "address",
          "name": "owner",
          "type": "address"
        },
        {
          "indexed": true,
          "internalType": "address",
          "name": "approved",
          "type": "address"
        },
        {
          "indexed": true,
          "internalType": "uint256",
          "name": "tokenId",
          "type": "uint256"
        }
      ],
      "name": "Approval",
      "type": "event"
    },
    {
      "anonymous": false,
      "inputs": [
        {
          "indexed": true,
          "internalType": "address",
          "name": "owner",
          "type": "address"
        },
        {
          "indexed": true,
          "internalType": "address",
          "name": "operator",
          "type": "address"
        },
        {
          "indexed": false,
          "internalType": "bool",
          "name": "approved",
          "type": "bool"
        }
      ],
      "name": "ApprovalForAll",
      "type": "event"
    },
    {
      "anonymous": false,
      "inputs": [
        {
          "indexed": true,
          "internalType": "bytes32",
          "name": "id",
          "type": "bytes32"
        }
      ],
      "name": "ChainlinkCancelled",
      "type": "event"
    },
    {
      "anonymous": false,
      "inputs": [
        {
          "indexed": true,
          "internalType": "bytes32",
          "name": "id",
          "type": "bytes32"
        }
      ],
      "name": "ChainlinkFulfilled",
      "type": "event"
    },
    {
      "anonymous": false,
      "inputs": [
        {
          "indexed": true,
          "internalType": "bytes32",
          "name": "id",
          "type": "bytes32"
        }
      ],
      "name": "ChainlinkRequested",
      "type": "event"
    },
    {
      "anonymous": false,
      "inputs": [
        {
          "indexed": true,
          "internalType": "address",
          "name": "from",
          "type": "address"
        },
        {
          "indexed": true,
          "internalType": "address",
          "name": "to",
          "type": "address"
        },
        {
          "indexed": true,
          "internalType": "uint256",
          "name": "tokenId",
          "type": "uint256"
        }
      ],
      "name": "Transfer",
      "type": "event"
    },
    {
      "anonymous": false,
      "inputs": [
        {
          "indexed": false,
          "internalType": "string",
          "name": "url",
          "type": "string"
        }
      ],
      "name": "UrlRequested",
      "type": "event"
    },
    {
      "inputs": [
        {
          "internalType": "address",
          "name": "to",
          "type": "address"
        },
        {
          "internalType": "uint256",
          "name": "tokenId",
          "type": "uint256"
        }
      ],
      "name": "approve",
      "outputs": [],
      "stateMutability": "nonpayable",
      "type": "function"
    },
    {
      "inputs": [],
      "name": "badgeLookup",
      "outputs": [
        {
          "internalType": "address",
          "name": "",
          "type": "address"
        }
      ],
      "stateMutability": "view",
      "type": "function",
      "constant": true
    },
    {
      "inputs": [
        {
          "internalType": "address",
          "name": "",
          "type": "address"
        },
        {
          "internalType": "uint256",
          "name": "",
          "type": "uint256"
        }
      ],
      "name": "badgesByUser",
      "outputs": [
        {
          "internalType": "bool",
          "name": "",
          "type": "bool"
        }
      ],
      "stateMutability": "view",
      "type": "function",
      "constant": true
    },
    {
      "inputs": [
        {
          "internalType": "address",
          "name": "owner",
          "type": "address"
        }
      ],
      "name": "balanceOf",
      "outputs": [
        {
          "internalType": "uint256",
          "name": "",
          "type": "uint256"
        }
      ],
      "stateMutability": "view",
      "type": "function",
      "constant": true
    },
    {
      "inputs": [
        {
          "internalType": "uint256",
          "name": "tokenId",
          "type": "uint256"
        }
      ],
      "name": "getApproved",
      "outputs": [
        {
          "internalType": "address",
          "name": "",
          "type": "address"
        }
      ],
      "stateMutability": "view",
      "type": "function",
      "constant": true
    },
    {
      "inputs": [
        {
          "internalType": "address",
          "name": "owner",
          "type": "address"
        },
        {
          "internalType": "address",
          "name": "operator",
          "type": "address"
        }
      ],
      "name": "isApprovedForAll",
      "outputs": [
        {
          "internalType": "bool",
          "name": "",
          "type": "bool"
        }
      ],
      "stateMutability": "view",
      "type": "function",
      "constant": true
    },
    {
      "inputs": [],
      "name": "name",
      "outputs": [
        {
          "internalType": "string",
          "name": "",
          "type": "string"
        }
      ],
      "stateMutability": "view",
      "type": "function",
      "constant": true
    },
    {
      "inputs": [],
      "name": "owner",
      "outputs": [
        {
          "internalType": "address",
          "name": "",
          "type": "address"
        }
      ],
      "stateMutability": "view",
      "type": "function",
      "constant": true
    },
    {
      "inputs": [
        {
          "internalType": "uint256",
          "name": "tokenId",
          "type": "uint256"
        }
      ],
      "name": "ownerOf",
      "outputs": [
        {
          "internalType": "address",
          "name": "",
          "type": "address"
        }
      ],
      "stateMutability": "view",
      "type": "function",
      "constant": true
    },
    {
      "inputs": [
        {
          "internalType": "bytes32",
          "name": "",
          "type": "bytes32"
        }
      ],
      "name": "requestByAddress",
      "outputs": [
        {
          "internalType": "address",
          "name": "",
          "type": "address"
        }
      ],
      "stateMutability": "view",
      "type": "function",
      "constant": true
    },
    {
      "inputs": [
        {
          "internalType": "address",
          "name": "from",
          "type": "address"
        },
        {
          "internalType": "address",
          "name": "to",
          "type": "address"
        },
        {
          "internalType": "uint256",
          "name": "tokenId",
          "type": "uint256"
        }
      ],
      "name": "safeTransferFrom",
      "outputs": [],
      "stateMutability": "nonpayable",
      "type": "function"
    },
    {
      "inputs": [
        {
          "internalType": "address",
          "name": "from",
          "type": "address"
        },
        {
          "internalType": "address",
          "name": "to",
          "type": "address"
        },
        {
          "internalType": "uint256",
          "name": "tokenId",
          "type": "uint256"
        },
        {
          "internalType": "bytes",
          "name": "_data",
          "type": "bytes"
        }
      ],
      "name": "safeTransferFrom",
      "outputs": [],
      "stateMutability": "nonpayable",
      "type": "function"
    },
    {
      "inputs": [
        {
          "internalType": "address",
          "name": "operator",
          "type": "address"
        },
        {
          "internalType": "bool",
          "name": "approved",
          "type": "bool"
        }
      ],
      "name": "setApprovalForAll",
      "outputs": [],
      "stateMutability": "nonpayable",
      "type": "function"
    },
    {
      "inputs": [
        {
          "internalType": "bytes4",
          "name": "interfaceId",
          "type": "bytes4"
        }
      ],
      "name": "supportsInterface",
      "outputs": [
        {
          "internalType": "bool",
          "name": "",
          "type": "bool"
        }
      ],
      "stateMutability": "view",
      "type": "function",
      "constant": true
    },
    {
      "inputs": [],
      "name": "symbol",
      "outputs": [
        {
          "internalType": "string",
          "name": "",
          "type": "string"
        }
      ],
      "stateMutability": "view",
      "type": "function",
      "constant": true
    },
    {
      "inputs": [
        {
          "internalType": "uint256",
          "name": "tokenId",
          "type": "uint256"
        }
      ],
      "name": "tokenURI",
      "outputs": [
        {
          "internalType": "string",
          "name": "",
          "type": "string"
        }
      ],
      "stateMutability": "view",
      "type": "function",
      "constant": true
    },
    {
      "inputs": [
        {
          "internalType": "address",
          "name": "",
          "type": "address"
        }
      ],
      "name": "totalUserBadges",
      "outputs": [
        {
          "internalType": "uint256",
          "name": "",
          "type": "uint256"
        }
      ],
      "stateMutability": "view",
      "type": "function",
      "constant": true
    },
    {
      "inputs": [
        {
          "internalType": "address",
          "name": "from",
          "type": "address"
        },
        {
          "internalType": "address",
          "name": "to",
          "type": "address"
        },
        {
          "internalType": "uint256",
          "name": "tokenId",
          "type": "uint256"
        }
      ],
      "name": "transferFrom",
      "outputs": [],
      "stateMutability": "nonpayable",
      "type": "function"
    },
    {
      "inputs": [
        {
          "internalType": "address",
          "name": "_oracle",
          "type": "address"
        }
      ],
      "name": "updateOracle",
      "outputs": [],
      "stateMutability": "nonpayable",
      "type": "function"
    },
    {
      "inputs": [
        {
          "internalType": "address",
          "name": "_lookup",
          "type": "address"
        }
      ],
      "name": "updateLookup",
      "outputs": [],
      "stateMutability": "nonpayable",
      "type": "function"
    },
    {
      "inputs": [
        {
          "internalType": "bytes32",
          "name": "_job",
          "type": "bytes32"
        }
      ],
      "name": "updateJob",
      "outputs": [],
      "stateMutability": "nonpayable",
      "type": "function"
    },
    {
      "inputs": [
        {
          "internalType": "uint256",
          "name": "_fee",
          "type": "uint256"
        }
      ],
      "name": "updateFee",
      "outputs": [],
      "stateMutability": "nonpayable",
      "type": "function"
    },
    {
      "inputs": [
        {
          "internalType": "address",
          "name": "_owner",
          "type": "address"
        }
      ],
      "name": "requestBadges",
      "outputs": [
        {
          "internalType": "bytes32",
          "name": "requestId",
          "type": "bytes32"
        }
      ],
      "stateMutability": "nonpayable",
      "type": "function"
    },
    {
      "inputs": [],
      "name": "requestBadges",
      "outputs": [
        {
          "internalType": "bytes32",
          "name": "requestId",
          "type": "bytes32"
        }
      ],
      "stateMutability": "nonpayable",
      "type": "function"
    },
    {
      "inputs": [
        {
          "internalType": "address",
          "name": "_owner",
          "type": "address"
        },
        {
          "internalType": "uint256",
          "name": "_id",
          "type": "uint256"
        }
      ],
      "name": "checkUserBadge",
      "outputs": [
        {
          "internalType": "bool",
          "name": "",
          "type": "bool"
        }
      ],
      "stateMutability": "view",
      "type": "function",
      "constant": true
    },
    {
      "inputs": [
        {
          "internalType": "address",
          "name": "_owner",
          "type": "address"
        }
      ],
      "name": "getUserBadges",
      "outputs": [
        {
          "internalType": "bool[]",
          "name": "",
          "type": "bool[]"
        }
      ],
      "stateMutability": "view",
      "type": "function",
      "constant": true
    },
    {
      "inputs": [
        {
          "internalType": "bytes32",
          "name": "_requestId",
          "type": "bytes32"
        },
        {
          "internalType": "uint256",
          "name": "_badgeId",
          "type": "uint256"
        }
      ],
      "name": "fulfill",
      "outputs": [],
      "stateMutability": "nonpayable",
      "type": "function"
    },
    {
      "inputs": [
        {
          "internalType": "address",
          "name": "_owner",
          "type": "address"
        }
      ],
      "name": "getTokens",
      "outputs": [
        {
          "internalType": "uint256[]",
          "name": "",
          "type": "uint256[]"
        }
      ],
      "stateMutability": "view",
      "type": "function",
      "constant": true
    },
    {
      "inputs": [],
      "name": "getTokens",
      "outputs": [
        {
          "internalType": "uint256[]",
          "name": "",
          "type": "uint256[]"
        }
      ],
      "stateMutability": "view",
      "type": "function",
      "constant": true
    },
    {
      "inputs": [
        {
          "internalType": "address",
          "name": "account",
          "type": "address"
        }
      ],
      "name": "toString",
      "outputs": [
        {
          "internalType": "string",
          "name": "",
          "type": "string"
        }
      ],
      "stateMutability": "pure",
      "type": "function",
      "constant": true
    },
    {
      "inputs": [
        {
          "internalType": "uint256",
          "name": "value",
          "type": "uint256"
        }
      ],
      "name": "toString",
      "outputs": [
        {
          "internalType": "string",
          "name": "",
          "type": "string"
        }
      ],
      "stateMutability": "pure",
      "type": "function",
      "constant": true
    },
    {
      "inputs": [
        {
          "internalType": "bytes",
          "name": "data",
          "type": "bytes"
        }
      ],
      "name": "toString",
      "outputs": [
        {
          "internalType": "string",
          "name": "",
          "type": "string"
        }
      ],
      "stateMutability": "pure",
      "type": "function",
      "constant": true
    },
    {
      "inputs": [
        {
          "internalType": "bytes32",
          "name": "value",
          "type": "bytes32"
        }
      ],
      "name": "toString",
      "outputs": [
        {
          "internalType": "string",
          "name": "",
          "type": "string"
        }
      ],
      "stateMutability": "pure",
      "type": "function",
      "constant": true
    }
  ],
  "bytecode": "0x60806040526001600b556040516200562d3803806200562d83398181016040528101906200002e9190620003a5565b6040518060400160405280600a81526020017f53796e74684261646765000000000000000000000000000000000000000000008152506040518060400160405280600481526020017f734e4654000000000000000000000000000000000000000000000000000000008152508160009080519060200190620000b2929190620002de565b508060019080519060200190620000cb929190620002de565b505050620000de620001f260201b60201c565b732f90a6d021db21e1b2a077c5a37b3c7e75d15b7e601060006101000a81548173ffffffffffffffffffffffffffffffffffffffff021916908373ffffffffffffffffffffffffffffffffffffffff1602179055507f323966613961613133626631343638373838623763633461353030613435623860118190555067016345785d8a000060128190555080600e60006101000a81548173ffffffffffffffffffffffffffffffffffffffff021916908373ffffffffffffffffffffffffffffffffffffffff16021790555033600f60006101000a81548173ffffffffffffffffffffffffffffffffffffffff021916908373ffffffffffffffffffffffffffffffffffffffff1602179055505062000484565b6200029873c89bd4e1632d3a43cb03aaad5262cbe4038bc57173ffffffffffffffffffffffffffffffffffffffff166338cc48316040518163ffffffff1660e01b815260040160206040518083038186803b1580156200025157600080fd5b505afa15801562000266573d6000803e3d6000fd5b505050506040513d601f19601f820116820180604052508101906200028c9190620003a5565b6200029a60201b60201c565b565b80600960006101000a81548173ffffffffffffffffffffffffffffffffffffffff021916908373ffffffffffffffffffffffffffffffffffffffff16021790555050565b828054620002ec9062000405565b90600052602060002090601f0160209004810192826200031057600085556200035c565b82601f106200032b57805160ff19168380011785556200035c565b828001600101855582156200035c579182015b828111156200035b5782518255916020019190600101906200033e565b5b5090506200036b91906200036f565b5090565b5b808211156200038a57600081600090555060010162000370565b5090565b6000815190506200039f816200046a565b92915050565b600060208284031215620003b857600080fd5b6000620003c8848285016200038e565b91505092915050565b6000620003de82620003e5565b9050919050565b600073ffffffffffffffffffffffffffffffffffffffff82169050919050565b600060028204905060018216806200041e57607f821691505b602082108114156200043557620004346200043b565b5b50919050565b7f4e487b7100000000000000000000000000000000000000000000000000000000600052602260045260246000fd5b6200047581620003d1565b81146200048157600080fd5b50565b61519980620004946000396000f3fe608060405234801561001057600080fd5b50600436106101fb5760003560e01c806370a082311161011a578063a22cb465116100ad578063c059f0b91161007c578063c059f0b914610644578063c87b56dd14610662578063cc2c264614610692578063e4d084fe146106b0578063e985e9c5146106cc576101fb565b8063a22cb465146105be578063aa6ca808146105da578063b11a19e8146105f8578063b88d4fde14610628576101fb565b80639012c4a8116100e95780639012c4a8146105385780639496f9e31461055457806395d89b4114610570578063961587a91461058e576101fb565b806370a082311461048a57806371aad10d146104ba578063803e8bf4146104ea5780638da5cb5b1461051a576101fb565b80633900135c1161019257806356ca623e1161016157806356ca623e146103ca5780636352211e146103fa578063676f2f2a1461042a5780636900a3ae1461045a576101fb565b80633900135c1461033257806342842e0e146103625780634357855e1461037e578063450efe211461039a576101fb565b80631cb44dfc116101ce5780631cb44dfc1461029a57806321fa43c7146102b657806323b872dd146102e657806337c245fe14610302576101fb565b806301ffc9a71461020057806306fdde0314610230578063081812fc1461024e578063095ea7b31461027e575b600080fd5b61021a600480360381019061021591906139cc565b6106fc565b60405161022791906141c5565b60405180910390f35b6102386107de565b6040516102459190614224565b60405180910390f35b61026860048036038101906102639190613aa0565b610870565b6040516102759190614057565b60405180910390f35b61029860048036038101906102939190613902565b6108f5565b005b6102b460048036038101906102af9190613797565b610a0d565b005b6102d060048036038101906102cb9190613797565b610ae1565b6040516102dd91906141e0565b60405180910390f35b61030060048036038101906102fb91906137fc565b610bfc565b005b61031c60048036038101906103179190613797565b610c5c565b6040516103299190614181565b60405180910390f35b61034c60048036038101906103479190613902565b610d18565b60405161035991906141c5565b60405180910390f35b61037c600480360381019061037791906137fc565b610db9565b005b61039860048036038101906103939190613990565b610dd9565b005b6103b460048036038101906103af9190613797565b611131565b6040516103c191906141a3565b60405180910390f35b6103e460048036038101906103df9190613797565b611314565b6040516103f19190614224565b60405180910390f35b610414600480360381019061040f9190613aa0565b611345565b6040516104219190614057565b60405180910390f35b610444600480360381019061043f9190613797565b6113f7565b60405161045191906144a6565b60405180910390f35b610474600480360381019061046f9190613aa0565b61140f565b6040516104819190614224565b60405180910390f35b6104a4600480360381019061049f9190613797565b611440565b6040516104b191906144a6565b60405180910390f35b6104d460048036038101906104cf9190613a1e565b6114f8565b6040516104e19190614224565b60405180910390f35b61050460048036038101906104ff9190613902565b611948565b60405161051191906141c5565b60405180910390f35b61052261198b565b60405161052f9190614057565b60405180910390f35b610552600480360381019061054d9190613aa0565b6119b1565b005b61056e60048036038101906105699190613967565b611a4b565b005b610578611ae5565b6040516105859190614224565b60405180910390f35b6105a860048036038101906105a39190613967565b611b77565b6040516105b59190614057565b60405180910390f35b6105d860048036038101906105d391906138c6565b611baa565b005b6105e2611d2b565b6040516105ef91906141a3565b60405180910390f35b610612600480360381019061060d9190613967565b611d3a565b60405161061f9190614224565b60405180910390f35b610642600480360381019061063d919061384b565b611d6b565b005b61064c611dcd565b6040516106599190614057565b60405180910390f35b61067c60048036038101906106779190613aa0565b611df3565b6040516106899190614224565b60405180910390f35b61069a611f45565b6040516106a791906141e0565b60405180910390f35b6106ca60048036038101906106c59190613797565b611f54565b005b6106e660048036038101906106e191906137c0565b612028565b6040516106f391906141c5565b60405180910390f35b60007f80ac58cd000000000000000000000000000000000000000000000000000000007bffffffffffffffffffffffffffffffffffffffffffffffffffffffff1916827bffffffffffffffffffffffffffffffffffffffffffffffffffffffff191614806107c757507f5b5e139f000000000000000000000000000000000000000000000000000000007bffffffffffffffffffffffffffffffffffffffffffffffffffffffff1916827bffffffffffffffffffffffffffffffffffffffffffffffffffffffff1916145b806107d757506107d6826120bc565b5b9050919050565b6060600080546107ed90614967565b80601f016020809104026020016040519081016040528092919081815260200182805461081990614967565b80156108665780601f1061083b57610100808354040283529160200191610866565b820191906000526020600020905b81548152906001019060200180831161084957829003601f168201915b5050505050905090565b600061087b82612126565b6108ba576040517f08c379a00000000000000000000000000000000000000000000000000000000081526004016108b190614406565b60405180910390fd5b6004600083815260200190815260200160002060009054906101000a900473ffffffffffffffffffffffffffffffffffffffff169050919050565b600061090082611345565b90508073ffffffffffffffffffffffffffffffffffffffff168373ffffffffffffffffffffffffffffffffffffffff161415610971576040517f08c379a000000000000000000000000000000000000000000000000000000000815260040161096890614466565b60405180910390fd5b8073ffffffffffffffffffffffffffffffffffffffff16610990612192565b73ffffffffffffffffffffffffffffffffffffffff1614806109bf57506109be816109b9612192565b612028565b5b6109fe576040517f08c379a00000000000000000000000000000000000000000000000000000000081526004016109f590614346565b60405180910390fd5b610a08838361219a565b505050565b600f60009054906101000a900473ffffffffffffffffffffffffffffffffffffffff1673ffffffffffffffffffffffffffffffffffffffff163373ffffffffffffffffffffffffffffffffffffffff1614610a9d576040517f08c379a0000000000000000000000000000000000000000000000000000000008152600401610a9490614246565b60405180910390fd5b80601060006101000a81548173ffffffffffffffffffffffffffffffffffffffff021916908373ffffffffffffffffffffffffffffffffffffffff16021790555050565b600080610af860115430634357855e60e01b612253565b9050600060405180606001604052806022815260200161514260229139610b1e85611314565b604051602001610b2f929190614018565b60405160208183030381529060405290507f423580c5252763279dda9a3c3d33abe5f278056f6cefd69fb1486c1ef99e299581604051610b6f9190614224565b60405180910390a1610bc16040518060400160405280600381526020017f676574000000000000000000000000000000000000000000000000000000000081525082846122849092919063ffffffff16565b6000610bf2601060009054906101000a900473ffffffffffffffffffffffffffffffffffffffff16846012546122b7565b9050505050919050565b610c0d610c07612192565b8261248c565b610c4c576040517f08c379a0000000000000000000000000000000000000000000000000000000008152600401610c4390614486565b60405180910390fd5b610c5783838361256a565b505050565b6060601460008373ffffffffffffffffffffffffffffffffffffffff1673ffffffffffffffffffffffffffffffffffffffff168152602001908152602001600020805480602002602001604051908101604052809291908181526020018280548015610d0c57602002820191906000526020600020906000905b82829054906101000a900460ff16151581526020019060010190602082600001049283019260010382029150808411610cd65790505b50505050509050919050565b6000601460008473ffffffffffffffffffffffffffffffffffffffff1673ffffffffffffffffffffffffffffffffffffffff1681526020019081526020016000208281548110610d91577f4e487b7100000000000000000000000000000000000000000000000000000000600052603260045260246000fd5b90600052602060002090602091828204019190069054906101000a900460ff16905092915050565b610dd483838360405180602001604052806000815250611d6b565b505050565b601060009054906101000a900473ffffffffffffffffffffffffffffffffffffffff1673ffffffffffffffffffffffffffffffffffffffff163373ffffffffffffffffffffffffffffffffffffffff1614610e69576040517f08c379a0000000000000000000000000000000000000000000000000000000008152600401610e6090614326565b60405180910390fd5b7fdc2a02298d7bff12351a2caaa5004ad88d3caaa5337f1caa07616b95b81ff5228282604051610e9a9291906141fb565b60405180910390a160006013600084815260200190815260200160002060009054906101000a900473ffffffffffffffffffffffffffffffffffffffff169050601460008273ffffffffffffffffffffffffffffffffffffffff1673ffffffffffffffffffffffffffffffffffffffff1681526020019081526020016000208281548110610f51577f4e487b7100000000000000000000000000000000000000000000000000000000600052603260045260246000fd5b90600052602060002090602091828204019190069054906101000a900460ff1661112c576000600e60009054906101000a900473ffffffffffffffffffffffffffffffffffffffff1673ffffffffffffffffffffffffffffffffffffffff1663b4857ad4846040518263ffffffff1660e01b8152600401610fd291906144a6565b60006040518083038186803b158015610fea57600080fd5b505afa158015610ffe573d6000803e3d6000fd5b505050506040513d6000823e3d601f19601f820116820180604052508101906110279190613a5f565b905061103382826127c6565b6001601460008473ffffffffffffffffffffffffffffffffffffffff1673ffffffffffffffffffffffffffffffffffffffff16815260200190815260200160002084815481106110ac577f4e487b7100000000000000000000000000000000000000000000000000000000600052603260045260246000fd5b90600052602060002090602091828204019190066101000a81548160ff021916908315150217905550601560008373ffffffffffffffffffffffffffffffffffffffff1673ffffffffffffffffffffffffffffffffffffffff1681526020019081526020016000206000815480929190611125906149ca565b9190505550505b505050565b6060600061113e83611440565b905060008114156111c157600067ffffffffffffffff81111561118a577f4e487b7100000000000000000000000000000000000000000000000000000000600052604160045260246000fd5b6040519080825280602002602001820160405280156111b85781602001602082028036833780820191505090505b5091505061130f565b60008167ffffffffffffffff811115611203577f4e487b7100000000000000000000000000000000000000000000000000000000600052604160045260246000fd5b6040519080825280602002602001820160405280156112315781602001602082028036833780820191505090505b5090506000611240600d6127f7565b9050600080600190505b8281116113065761125a81612126565b801561129957508673ffffffffffffffffffffffffffffffffffffffff1661128182611345565b73ffffffffffffffffffffffffffffffffffffffff16145b156112f357808483815181106112d8577f4e487b7100000000000000000000000000000000000000000000000000000000600052603260045260246000fd5b60200260200101818152505081806112ef906149ca565b9250505b80806112fe906149ca565b91505061124a565b50829450505050505b919050565b606061133e8260405160200161132a9190613fb6565b6040516020818303038152906040526114f8565b9050919050565b6000806002600084815260200190815260200160002060009054906101000a900473ffffffffffffffffffffffffffffffffffffffff169050600073ffffffffffffffffffffffffffffffffffffffff168173ffffffffffffffffffffffffffffffffffffffff1614156113ee576040517f08c379a00000000000000000000000000000000000000000000000000000000081526004016113e590614386565b60405180910390fd5b80915050919050565b60156020528060005260406000206000915090505481565b606061143982604051602001611425919061403c565b6040516020818303038152906040526114f8565b9050919050565b60008073ffffffffffffffffffffffffffffffffffffffff168273ffffffffffffffffffffffffffffffffffffffff1614156114b1576040517f08c379a00000000000000000000000000000000000000000000000000000000081526004016114a890614366565b60405180910390fd5b600360008373ffffffffffffffffffffffffffffffffffffffff1673ffffffffffffffffffffffffffffffffffffffff168152602001908152602001600020549050919050565b606060006040518060400160405280601081526020017f3031323334353637383961626364656600000000000000000000000000000000815250905060006002845161154491906147f5565b600261155091906145fd565b67ffffffffffffffff81111561158f577f4e487b7100000000000000000000000000000000000000000000000000000000600052604160045260246000fd5b6040519080825280601f01601f1916602001820160405280156115c15781602001600182028036833780820191505090505b5090507f30000000000000000000000000000000000000000000000000000000000000008160008151811061161f577f4e487b7100000000000000000000000000000000000000000000000000000000600052603260045260246000fd5b60200101907effffffffffffffffffffffffffffffffffffffffffffffffffffffffffffff1916908160001a9053507f7800000000000000000000000000000000000000000000000000000000000000816001815181106116a9577f4e487b7100000000000000000000000000000000000000000000000000000000600052603260045260246000fd5b60200101907effffffffffffffffffffffffffffffffffffffffffffffffffffffffffffff1916908160001a90535060005b845181101561193d57826004868381518110611720577f4e487b7100000000000000000000000000000000000000000000000000000000600052603260045260246000fd5b602001015160f81c60f81b7effffffffffffffffffffffffffffffffffffffffffffffffffffffffffffff1916901c60f81c60ff168151811061178c577f4e487b7100000000000000000000000000000000000000000000000000000000600052603260045260246000fd5b602001015160f81c60f81b826002836117a591906147f5565b60026117b191906145fd565b815181106117e8577f4e487b7100000000000000000000000000000000000000000000000000000000600052603260045260246000fd5b60200101907effffffffffffffffffffffffffffffffffffffffffffffffffffffffffffff1916908160001a90535082600f60f81b868381518110611856577f4e487b7100000000000000000000000000000000000000000000000000000000600052603260045260246000fd5b602001015160f81c60f81b1660f81c60ff168151811061189f577f4e487b7100000000000000000000000000000000000000000000000000000000600052603260045260246000fd5b602001015160f81c60f81b826002836118b891906147f5565b60036118c491906145fd565b815181106118fb577f4e487b7100000000000000000000000000000000000000000000000000000000600052603260045260246000fd5b60200101907effffffffffffffffffffffffffffffffffffffffffffffffffffffffffffff1916908160001a9053508080611935906149ca565b9150506116db565b508092505050919050565b6014602052816000526040600020818154811061196457600080fd5b9060005260206000209060209182820401919006915091509054906101000a900460ff1681565b600f60009054906101000a900473ffffffffffffffffffffffffffffffffffffffff1681565b600f60009054906101000a900473ffffffffffffffffffffffffffffffffffffffff1673ffffffffffffffffffffffffffffffffffffffff163373ffffffffffffffffffffffffffffffffffffffff1614611a41576040517f08c379a0000000000000000000000000000000000000000000000000000000008152600401611a3890614246565b60405180910390fd5b8060128190555050565b600f60009054906101000a900473ffffffffffffffffffffffffffffffffffffffff1673ffffffffffffffffffffffffffffffffffffffff163373ffffffffffffffffffffffffffffffffffffffff1614611adb576040517f08c379a0000000000000000000000000000000000000000000000000000000008152600401611ad290614246565b60405180910390fd5b8060118190555050565b606060018054611af490614967565b80601f0160208091040260200160405190810160405280929190818152602001828054611b2090614967565b8015611b6d5780601f10611b4257610100808354040283529160200191611b6d565b820191906000526020600020905b815481529060010190602001808311611b5057829003601f168201915b5050505050905090565b60136020528060005260406000206000915054906101000a900473ffffffffffffffffffffffffffffffffffffffff1681565b611bb2612192565b73ffffffffffffffffffffffffffffffffffffffff168273ffffffffffffffffffffffffffffffffffffffff161415611c20576040517f08c379a0000000000000000000000000000000000000000000000000000000008152600401611c17906142e6565b60405180910390fd5b8060056000611c2d612192565b73ffffffffffffffffffffffffffffffffffffffff1673ffffffffffffffffffffffffffffffffffffffff16815260200190815260200160002060008473ffffffffffffffffffffffffffffffffffffffff1673ffffffffffffffffffffffffffffffffffffffff16815260200190815260200160002060006101000a81548160ff0219169083151502179055508173ffffffffffffffffffffffffffffffffffffffff16611cda612192565b73ffffffffffffffffffffffffffffffffffffffff167f17307eab39ab6107e8899845ad3d59bd9653f200f220920489ca2b5937696c3183604051611d1f91906141c5565b60405180910390a35050565b6060611d3633611131565b5090565b6060611d6482604051602001611d509190613fd1565b6040516020818303038152906040526114f8565b9050919050565b611d7c611d76612192565b8361248c565b611dbb576040517f08c379a0000000000000000000000000000000000000000000000000000000008152600401611db290614486565b60405180910390fd5b611dc784848484612805565b50505050565b600e60009054906101000a900473ffffffffffffffffffffffffffffffffffffffff1681565b6060611dfe82612126565b611e3d576040517f08c379a0000000000000000000000000000000000000000000000000000000008152600401611e34906143e6565b60405180910390fd5b6000600660008481526020019081526020016000208054611e5d90614967565b80601f0160208091040260200160405190810160405280929190818152602001828054611e8990614967565b8015611ed65780601f10611eab57610100808354040283529160200191611ed6565b820191906000526020600020905b815481529060010190602001808311611eb957829003601f168201915b505050505090506000611ee7612861565b9050600081511415611efd578192505050611f40565b600082511115611f32578082604051602001611f1a929190614018565b60405160208183030381529060405292505050611f40565b611f3b84612878565b925050505b919050565b6000611f5033610ae1565b5090565b600f60009054906101000a900473ffffffffffffffffffffffffffffffffffffffff1673ffffffffffffffffffffffffffffffffffffffff163373ffffffffffffffffffffffffffffffffffffffff1614611fe4576040517f08c379a0000000000000000000000000000000000000000000000000000000008152600401611fdb90614246565b60405180910390fd5b80600e60006101000a81548173ffffffffffffffffffffffffffffffffffffffff021916908373ffffffffffffffffffffffffffffffffffffffff16021790555050565b6000600560008473ffffffffffffffffffffffffffffffffffffffff1673ffffffffffffffffffffffffffffffffffffffff16815260200190815260200160002060008373ffffffffffffffffffffffffffffffffffffffff1673ffffffffffffffffffffffffffffffffffffffff16815260200190815260200160002060009054906101000a900460ff16905092915050565b60007f01ffc9a7000000000000000000000000000000000000000000000000000000007bffffffffffffffffffffffffffffffffffffffffffffffffffffffff1916827bffffffffffffffffffffffffffffffffffffffffffffffffffffffff1916149050919050565b60008073ffffffffffffffffffffffffffffffffffffffff166002600084815260200190815260200160002060009054906101000a900473ffffffffffffffffffffffffffffffffffffffff1673ffffffffffffffffffffffffffffffffffffffff1614159050919050565b600033905090565b816004600083815260200190815260200160002060006101000a81548173ffffffffffffffffffffffffffffffffffffffff021916908373ffffffffffffffffffffffffffffffffffffffff160217905550808273ffffffffffffffffffffffffffffffffffffffff1661220d83611345565b73ffffffffffffffffffffffffffffffffffffffff167f8c5be1e5ebec7d5bd14f71427d1e84f3dd0314c0f7b2291e5b200ac8c7c3b92560405160405180910390a45050565b61225b61350a565b61226361350a565b61227a8585858461291f909392919063ffffffff16565b9150509392505050565b61229b8284608001516129cf90919063ffffffff16565b6122b28184608001516129cf90919063ffffffff16565b505050565b600030600b546040516020016122ce929190613fec565b604051602081830303815290604052805190602001209050600b5483606001818152505083600c600083815260200190815260200160002060006101000a81548173ffffffffffffffffffffffffffffffffffffffff021916908373ffffffffffffffffffffffffffffffffffffffff160217905550807fb5e6e01e79f91267dc17b4e6314d5d4d03593d2ceee0fbb452b750bd70ea5af960405160405180910390a2600960009054906101000a900473ffffffffffffffffffffffffffffffffffffffff1673ffffffffffffffffffffffffffffffffffffffff16634000aea085846123bc8760026129f4565b6040518463ffffffff1660e01b81526004016123da93929190614143565b602060405180830381600087803b1580156123f457600080fd5b505af1158015612408573d6000803e3d6000fd5b505050506040513d601f19601f8201168201806040525081019061242c919061393e565b61246b576040517f08c379a0000000000000000000000000000000000000000000000000000000008152600401612462906142a6565b60405180910390fd5b6001600b600082825461247e91906145fd565b925050819055509392505050565b600061249782612126565b6124d6576040517f08c379a00000000000000000000000000000000000000000000000000000000081526004016124cd90614306565b60405180910390fd5b60006124e183611345565b90508073ffffffffffffffffffffffffffffffffffffffff168473ffffffffffffffffffffffffffffffffffffffff16148061255057508373ffffffffffffffffffffffffffffffffffffffff1661253884610870565b73ffffffffffffffffffffffffffffffffffffffff16145b8061256157506125608185612028565b5b91505092915050565b8273ffffffffffffffffffffffffffffffffffffffff1661258a82611345565b73ffffffffffffffffffffffffffffffffffffffff16146125e0576040517f08c379a00000000000000000000000000000000000000000000000000000000081526004016125d790614426565b60405180910390fd5b600073ffffffffffffffffffffffffffffffffffffffff168273ffffffffffffffffffffffffffffffffffffffff161415612650576040517f08c379a0000000000000000000000000000000000000000000000000000000008152600401612647906142c6565b60405180910390fd5b61265b838383612a9b565b61266660008261219a565b6001600360008573ffffffffffffffffffffffffffffffffffffffff1673ffffffffffffffffffffffffffffffffffffffff16815260200190815260200160002060008282546126b6919061484f565b925050819055506001600360008473ffffffffffffffffffffffffffffffffffffffff1673ffffffffffffffffffffffffffffffffffffffff168152602001908152602001600020600082825461270d91906145fd565b92505081905550816002600083815260200190815260200160002060006101000a81548173ffffffffffffffffffffffffffffffffffffffff021916908373ffffffffffffffffffffffffffffffffffffffff160217905550808273ffffffffffffffffffffffffffffffffffffffff168473ffffffffffffffffffffffffffffffffffffffff167fddf252ad1be2c89b69c2b068fc378daa952ba7f163c4a11628f55a4df523b3ef60405160405180910390a4505050565b6127d0600d612aa0565b60006127dc600d6127f7565b90506127e88382612ab6565b6127f28183612ad4565b505050565b600081600001549050919050565b61281084848461256a565b61281c84848484612b48565b61285b576040517f08c379a000000000000000000000000000000000000000000000000000000000815260040161285290614266565b60405180910390fd5b50505050565b606060405180602001604052806000815250905090565b606061288382612126565b6128c2576040517f08c379a00000000000000000000000000000000000000000000000000000000081526004016128b990614446565b60405180910390fd5b60006128cc612861565b905060008151116128ec5760405180602001604052806000815250612917565b806128f684612cdf565b604051602001612907929190614018565b6040516020818303038152906040525b915050919050565b61292761350a565b6129378560800151610100612e8c565b508385600001818152505082856020019073ffffffffffffffffffffffffffffffffffffffff16908173ffffffffffffffffffffffffffffffffffffffff16815250508185604001907bffffffffffffffffffffffffffffffffffffffffffffffffffffffff191690817bffffffffffffffffffffffffffffffffffffffffffffffffffffffff191681525050849050949350505050565b6129dc8260038351612ef6565b6129ef818361303b90919063ffffffff16565b505050565b6060634042994660e01b6000808560000151866020015187604001518860600151888a6080015160000151604051602401612a369897969594939291906140be565b604051602081830303815290604052907bffffffffffffffffffffffffffffffffffffffffffffffffffffffff19166020820180517bffffffffffffffffffffffffffffffffffffffffffffffffffffffff8381831617835250505050905092915050565b505050565b6001816000016000828254019250508190555050565b612ad082826040518060200160405280600081525061305d565b5050565b612add82612126565b612b1c576040517f08c379a0000000000000000000000000000000000000000000000000000000008152600401612b13906143a6565b60405180910390fd5b80600660008481526020019081526020016000209080519060200190612b43929190613577565b505050565b6000612b698473ffffffffffffffffffffffffffffffffffffffff166130b8565b15612cd2578373ffffffffffffffffffffffffffffffffffffffff1663150b7a02612b92612192565b8786866040518563ffffffff1660e01b8152600401612bb49493929190614072565b602060405180830381600087803b158015612bce57600080fd5b505af1925050508015612bff57506040513d601f19601f82011682018060405250810190612bfc91906139f5565b60015b612c82573d8060008114612c2f576040519150601f19603f3d011682016040523d82523d6000602084013e612c34565b606091505b50600081511415612c7a576040517f08c379a0000000000000000000000000000000000000000000000000000000008152600401612c7190614266565b60405180910390fd5b805181602001fd5b63150b7a0260e01b7bffffffffffffffffffffffffffffffffffffffffffffffffffffffff1916817bffffffffffffffffffffffffffffffffffffffffffffffffffffffff191614915050612cd7565b600190505b949350505050565b60606000821415612d27576040518060400160405280600181526020017f30000000000000000000000000000000000000000000000000000000000000008152509050612e87565b600082905060005b60008214612d59578080612d42906149ca565b915050600a82612d529190614653565b9150612d2f565b60008167ffffffffffffffff811115612d9b577f4e487b7100000000000000000000000000000000000000000000000000000000600052604160045260246000fd5b6040519080825280601f01601f191660200182016040528015612dcd5781602001600182028036833780820191505090505b5090505b60008514612e8057600182612de6919061484f565b9150600a85612df59190614a4b565b6030612e0191906145fd565b60f81b818381518110612e3d577f4e487b7100000000000000000000000000000000000000000000000000000000600052603260045260246000fd5b60200101907effffffffffffffffffffffffffffffffffffffffffffffffffffffffffffff1916908160001a905350600a85612e799190614653565b9450612dd1565b8093505050505b919050565b612e946135fd565b6000602083612ea39190614a4b565b14612ecf57602082612eb59190614a4b565b6020612ec1919061484f565b82612ecc91906145fd565b91505b81836020018181525050604051808452600081528281016020016040525082905092915050565b60178111612f2357612f1d8160058460ff16901b60ff1617846130cb90919063ffffffff16565b50613036565b60ff8111612f6557612f48601860058460ff16901b17846130cb90919063ffffffff16565b50612f5f816001856130eb9092919063ffffffff16565b50613035565b61ffff8111612fa857612f8b601960058460ff16901b17846130cb90919063ffffffff16565b50612fa2816002856130eb9092919063ffffffff16565b50613034565b63ffffffff8111612fed57612fd0601a60058460ff16901b17846130cb90919063ffffffff16565b50612fe7816004856130eb9092919063ffffffff16565b50613033565b67ffffffffffffffff811161303257613019601b60058460ff16901b17846130cb90919063ffffffff16565b50613030816008856130eb9092919063ffffffff16565b505b5b5b5b5b505050565b6130436135fd565b6130558384600001515184855161310d565b905092915050565b6130678383613217565b6130746000848484612b48565b6130b3576040517f08c379a00000000000000000000000000000000000000000000000000000000081526004016130aa90614266565b60405180910390fd5b505050565b600080823b905060008111915050919050565b6130d36135fd565b6130e383846000015151846133e5565b905092915050565b6130f36135fd565b61310484856000015151858561343c565b90509392505050565b6131156135fd565b825182111561312357600080fd5b8460200151828561313491906145fd565b1115613169576131688560026131598860200151888761315491906145fd565b6134ca565b61316391906147f5565b6134e6565b5b6000808651805187602083010193508088870111156131885787860182525b60208701925050505b602084106131cf57805182526020826131aa91906145fd565b91506020816131b991906145fd565b90506020846131c8919061484f565b9350613191565b600060018560206131e0919061484f565b6101006131ed91906146d7565b6131f7919061484f565b905080198251168184511681811785525050879350505050949350505050565b600073ffffffffffffffffffffffffffffffffffffffff168273ffffffffffffffffffffffffffffffffffffffff161415613287576040517f08c379a000000000000000000000000000000000000000000000000000000000815260040161327e906143c6565b60405180910390fd5b61329081612126565b156132d0576040517f08c379a00000000000000000000000000000000000000000000000000000000081526004016132c790614286565b60405180910390fd5b6132dc60008383612a9b565b6001600360008473ffffffffffffffffffffffffffffffffffffffff1673ffffffffffffffffffffffffffffffffffffffff168152602001908152602001600020600082825461332c91906145fd565b92505081905550816002600083815260200190815260200160002060006101000a81548173ffffffffffffffffffffffffffffffffffffffff021916908373ffffffffffffffffffffffffffffffffffffffff160217905550808273ffffffffffffffffffffffffffffffffffffffff16600073ffffffffffffffffffffffffffffffffffffffff167fddf252ad1be2c89b69c2b068fc378daa952ba7f163c4a11628f55a4df523b3ef60405160405180910390a45050565b6133ed6135fd565b8360200151831061341357613412846002866020015161340d91906147f5565b6134e6565b5b835180516020858301018481538186141561342f576001820183525b5050508390509392505050565b6134446135fd565b8460200151848361345591906145fd565b111561347d5761347c856002868561346d91906145fd565b61347791906147f5565b6134e6565b5b600060018361010061348f91906146d7565b613499919061484f565b905085518386820101858319825116178152815185880111156134bc5784870182525b505085915050949350505050565b6000818311156134dc578290506134e0565b8190505b92915050565b6000826000015190506134f98383612e8c565b50613504838261303b565b50505050565b6040518060a0016040528060008019168152602001600073ffffffffffffffffffffffffffffffffffffffff16815260200160007bffffffffffffffffffffffffffffffffffffffffffffffffffffffff19168152602001600081526020016135716135fd565b81525090565b82805461358390614967565b90600052602060002090601f0160209004810192826135a557600085556135ec565b82601f106135be57805160ff19168380011785556135ec565b828001600101855582156135ec579182015b828111156135eb5782518255916020019190600101906135d0565b5b5090506135f99190613617565b5090565b604051806040016040528060608152602001600081525090565b5b80821115613630576000816000905550600101613618565b5090565b6000613647613642846144e6565b6144c1565b90508281526020810184848401111561365f57600080fd5b61366a848285614925565b509392505050565b600061368561368084614517565b6144c1565b90508281526020810184848401111561369d57600080fd5b6136a8848285614934565b509392505050565b6000813590506136bf816150ce565b92915050565b6000813590506136d4816150e5565b92915050565b6000815190506136e9816150e5565b92915050565b6000813590506136fe816150fc565b92915050565b60008135905061371381615113565b92915050565b60008151905061372881615113565b92915050565b600082601f83011261373f57600080fd5b813561374f848260208601613634565b91505092915050565b600082601f83011261376957600080fd5b8151613779848260208601613672565b91505092915050565b6000813590506137918161512a565b92915050565b6000602082840312156137a957600080fd5b60006137b7848285016136b0565b91505092915050565b600080604083850312156137d357600080fd5b60006137e1858286016136b0565b92505060206137f2858286016136b0565b9150509250929050565b60008060006060848603121561381157600080fd5b600061381f868287016136b0565b9350506020613830868287016136b0565b925050604061384186828701613782565b9150509250925092565b6000806000806080858703121561386157600080fd5b600061386f878288016136b0565b9450506020613880878288016136b0565b935050604061389187828801613782565b925050606085013567ffffffffffffffff8111156138ae57600080fd5b6138ba8782880161372e565b91505092959194509250565b600080604083850312156138d957600080fd5b60006138e7858286016136b0565b92505060206138f8858286016136c5565b9150509250929050565b6000806040838503121561391557600080fd5b6000613923858286016136b0565b925050602061393485828601613782565b9150509250929050565b60006020828403121561395057600080fd5b600061395e848285016136da565b91505092915050565b60006020828403121561397957600080fd5b6000613987848285016136ef565b91505092915050565b600080604083850312156139a357600080fd5b60006139b1858286016136ef565b92505060206139c285828601613782565b9150509250929050565b6000602082840312156139de57600080fd5b60006139ec84828501613704565b91505092915050565b600060208284031215613a0757600080fd5b6000613a1584828501613719565b91505092915050565b600060208284031215613a3057600080fd5b600082013567ffffffffffffffff811115613a4a57600080fd5b613a568482850161372e565b91505092915050565b600060208284031215613a7157600080fd5b600082015167ffffffffffffffff811115613a8b57600080fd5b613a9784828501613758565b91505092915050565b600060208284031215613ab257600080fd5b6000613ac084828501613782565b91505092915050565b6000613ad58383613bdb565b60208301905092915050565b6000613aed8383613f81565b60208301905092915050565b613b0281614883565b82525050565b613b19613b1482614883565b614a13565b82525050565b6000613b2a82614568565b613b3481856145ae565b9350613b3f83614548565b8060005b83811015613b70578151613b578882613ac9565b9750613b6283614594565b925050600181019050613b43565b5085935050505092915050565b6000613b8882614573565b613b9281856145bf565b9350613b9d83614558565b8060005b83811015613bce578151613bb58882613ae1565b9750613bc0836145a1565b925050600181019050613ba1565b5085935050505092915050565b613be481614895565b82525050565b613bf381614895565b82525050565b613c02816148a1565b82525050565b613c19613c14826148a1565b614a25565b82525050565b613c28816148ab565b82525050565b6000613c398261457e565b613c4381856145d0565b9350613c53818560208601614934565b613c5c81614b38565b840191505092915050565b613c78613c7382614901565b614a13565b82525050565b6000613c8982614589565b613c9381856145e1565b9350613ca3818560208601614934565b613cac81614b38565b840191505092915050565b6000613cc282614589565b613ccc81856145f2565b9350613cdc818560208601614934565b80840191505092915050565b6000613cf5602b836145e1565b9150613d0082614b63565b604082019050919050565b6000613d186032836145e1565b9150613d2382614bb2565b604082019050919050565b6000613d3b601c836145e1565b9150613d4682614c01565b602082019050919050565b6000613d5e6023836145e1565b9150613d6982614c2a565b604082019050919050565b6000613d816024836145e1565b9150613d8c82614c79565b604082019050919050565b6000613da46019836145e1565b9150613daf82614cc8565b602082019050919050565b6000613dc7602c836145e1565b9150613dd282614cf1565b604082019050919050565b6000613dea602c836145e1565b9150613df582614d40565b604082019050919050565b6000613e0d6038836145e1565b9150613e1882614d8f565b604082019050919050565b6000613e30602a836145e1565b9150613e3b82614dde565b604082019050919050565b6000613e536029836145e1565b9150613e5e82614e2d565b604082019050919050565b6000613e76602e836145e1565b9150613e8182614e7c565b604082019050919050565b6000613e996020836145e1565b9150613ea482614ecb565b602082019050919050565b6000613ebc6031836145e1565b9150613ec782614ef4565b604082019050919050565b6000613edf602c836145e1565b9150613eea82614f43565b604082019050919050565b6000613f026029836145e1565b9150613f0d82614f92565b604082019050919050565b6000613f25602f836145e1565b9150613f3082614fe1565b604082019050919050565b6000613f486021836145e1565b9150613f5382615030565b604082019050919050565b6000613f6b6031836145e1565b9150613f768261507f565b604082019050919050565b613f8a816148f7565b82525050565b613f99816148f7565b82525050565b613fb0613fab826148f7565b614a41565b82525050565b6000613fc28284613b08565b60148201915081905092915050565b6000613fdd8284613c08565b60208201915081905092915050565b6000613ff88285613c67565b6014820191506140088284613f9f565b6020820191508190509392505050565b60006140248285613cb7565b91506140308284613cb7565b91508190509392505050565b60006140488284613f9f565b60208201915081905092915050565b600060208201905061406c6000830184613af9565b92915050565b60006080820190506140876000830187613af9565b6140946020830186613af9565b6140a16040830185613f90565b81810360608301526140b38184613c2e565b905095945050505050565b6000610100820190506140d4600083018b613af9565b6140e1602083018a613f90565b6140ee6040830189613bf9565b6140fb6060830188613af9565b6141086080830187613c1f565b61411560a0830186613f90565b61412260c0830185613f90565b81810360e08301526141348184613c2e565b90509998505050505050505050565b60006060820190506141586000830186613af9565b6141656020830185613f90565b81810360408301526141778184613c2e565b9050949350505050565b6000602082019050818103600083015261419b8184613b1f565b905092915050565b600060208201905081810360008301526141bd8184613b7d565b905092915050565b60006020820190506141da6000830184613bea565b92915050565b60006020820190506141f56000830184613bf9565b92915050565b60006040820190506142106000830185613bf9565b61421d6020830184613f90565b9392505050565b6000602082019050818103600083015261423e8184613c7e565b905092915050565b6000602082019050818103600083015261425f81613ce8565b9050919050565b6000602082019050818103600083015261427f81613d0b565b9050919050565b6000602082019050818103600083015261429f81613d2e565b9050919050565b600060208201905081810360008301526142bf81613d51565b9050919050565b600060208201905081810360008301526142df81613d74565b9050919050565b600060208201905081810360008301526142ff81613d97565b9050919050565b6000602082019050818103600083015261431f81613dba565b9050919050565b6000602082019050818103600083015261433f81613ddd565b9050919050565b6000602082019050818103600083015261435f81613e00565b9050919050565b6000602082019050818103600083015261437f81613e23565b9050919050565b6000602082019050818103600083015261439f81613e46565b9050919050565b600060208201905081810360008301526143bf81613e69565b9050919050565b600060208201905081810360008301526143df81613e8c565b9050919050565b600060208201905081810360008301526143ff81613eaf565b9050919050565b6000602082019050818103600083015261441f81613ed2565b9050919050565b6000602082019050818103600083015261443f81613ef5565b9050919050565b6000602082019050818103600083015261445f81613f18565b9050919050565b6000602082019050818103600083015261447f81613f3b565b9050919050565b6000602082019050818103600083015261449f81613f5e565b9050919050565b60006020820190506144bb6000830184613f90565b92915050565b60006144cb6144dc565b90506144d78282614999565b919050565b6000604051905090565b600067ffffffffffffffff82111561450157614500614b09565b5b61450a82614b38565b9050602081019050919050565b600067ffffffffffffffff82111561453257614531614b09565b5b61453b82614b38565b9050602081019050919050565b6000819050602082019050919050565b6000819050602082019050919050565b600081519050919050565b600081519050919050565b600081519050919050565b600081519050919050565b6000602082019050919050565b6000602082019050919050565b600082825260208201905092915050565b600082825260208201905092915050565b600082825260208201905092915050565b600082825260208201905092915050565b600081905092915050565b6000614608826148f7565b9150614613836148f7565b9250827fffffffffffffffffffffffffffffffffffffffffffffffffffffffffffffffff0382111561464857614647614a7c565b5b828201905092915050565b600061465e826148f7565b9150614669836148f7565b92508261467957614678614aab565b5b828204905092915050565b6000808291508390505b60018511156146ce578086048111156146aa576146a9614a7c565b5b60018516156146b95780820291505b80810290506146c785614b56565b945061468e565b94509492505050565b60006146e2826148f7565b91506146ed836148f7565b925061471a7fffffffffffffffffffffffffffffffffffffffffffffffffffffffffffffffff8484614722565b905092915050565b60008261473257600190506147ee565b8161474057600090506147ee565b816001811461475657600281146147605761478f565b60019150506147ee565b60ff84111561477257614771614a7c565b5b8360020a91508482111561478957614788614a7c565b5b506147ee565b5060208310610133831016604e8410600b84101617156147c45782820a9050838111156147bf576147be614a7c565b5b6147ee565b6147d18484846001614684565b925090508184048111156147e8576147e7614a7c565b5b81810290505b9392505050565b6000614800826148f7565b915061480b836148f7565b9250817fffffffffffffffffffffffffffffffffffffffffffffffffffffffffffffffff048311821515161561484457614843614a7c565b5b828202905092915050565b600061485a826148f7565b9150614865836148f7565b92508282101561487857614877614a7c565b5b828203905092915050565b600061488e826148d7565b9050919050565b60008115159050919050565b6000819050919050565b60007fffffffff0000000000000000000000000000000000000000000000000000000082169050919050565b600073ffffffffffffffffffffffffffffffffffffffff82169050919050565b6000819050919050565b600061490c82614913565b9050919050565b600061491e826148d7565b9050919050565b82818337600083830152505050565b60005b83811015614952578082015181840152602081019050614937565b83811115614961576000848401525b50505050565b6000600282049050600182168061497f57607f821691505b6020821081141561499357614992614ada565b5b50919050565b6149a282614b38565b810181811067ffffffffffffffff821117156149c1576149c0614b09565b5b80604052505050565b60006149d5826148f7565b91507fffffffffffffffffffffffffffffffffffffffffffffffffffffffffffffffff821415614a0857614a07614a7c565b5b600182019050919050565b6000614a1e82614a2f565b9050919050565b6000819050919050565b6000614a3a82614b49565b9050919050565b6000819050919050565b6000614a56826148f7565b9150614a61836148f7565b925082614a7157614a70614aab565b5b828206905092915050565b7f4e487b7100000000000000000000000000000000000000000000000000000000600052601160045260246000fd5b7f4e487b7100000000000000000000000000000000000000000000000000000000600052601260045260246000fd5b7f4e487b7100000000000000000000000000000000000000000000000000000000600052602260045260246000fd5b7f4e487b7100000000000000000000000000000000000000000000000000000000600052604160045260246000fd5b6000601f19601f8301169050919050565b60008160601b9050919050565b60008160011c9050919050565b7f4f6e6c7920636f6e7472616374206f776e65722063616e2063616c6c2074686960008201527f732066756e6374696f6e2e000000000000000000000000000000000000000000602082015250565b7f4552433732313a207472616e7366657220746f206e6f6e20455243373231526560008201527f63656976657220696d706c656d656e7465720000000000000000000000000000602082015250565b7f4552433732313a20746f6b656e20616c7265616479206d696e74656400000000600082015250565b7f756e61626c6520746f207472616e73666572416e6443616c6c20746f206f726160008201527f636c650000000000000000000000000000000000000000000000000000000000602082015250565b7f4552433732313a207472616e7366657220746f20746865207a65726f2061646460008201527f7265737300000000000000000000000000000000000000000000000000000000602082015250565b7f4552433732313a20617070726f766520746f2063616c6c657200000000000000600082015250565b7f4552433732313a206f70657261746f7220717565727920666f72206e6f6e657860008201527f697374656e7420746f6b656e0000000000000000000000000000000000000000602082015250565b7f4f6e6c79206f7261636c6520636f6e74726163742063616e2063616c6c20746860008201527f69732066756e6374696f6e2e0000000000000000000000000000000000000000602082015250565b7f4552433732313a20617070726f76652063616c6c6572206973206e6f74206f7760008201527f6e6572206e6f7220617070726f76656420666f7220616c6c0000000000000000602082015250565b7f4552433732313a2062616c616e636520717565727920666f7220746865207a6560008201527f726f206164647265737300000000000000000000000000000000000000000000602082015250565b7f4552433732313a206f776e657220717565727920666f72206e6f6e657869737460008201527f656e7420746f6b656e0000000000000000000000000000000000000000000000602082015250565b7f45524337323155524953746f726167653a2055524920736574206f66206e6f6e60008201527f6578697374656e7420746f6b656e000000000000000000000000000000000000602082015250565b7f4552433732313a206d696e7420746f20746865207a65726f2061646472657373600082015250565b7f45524337323155524953746f726167653a2055524920717565727920666f722060008201527f6e6f6e6578697374656e7420746f6b656e000000000000000000000000000000602082015250565b7f4552433732313a20617070726f76656420717565727920666f72206e6f6e657860008201527f697374656e7420746f6b656e0000000000000000000000000000000000000000602082015250565b7f4552433732313a207472616e73666572206f6620746f6b656e2074686174206960008201527f73206e6f74206f776e0000000000000000000000000000000000000000000000602082015250565b7f4552433732314d657461646174613a2055524920717565727920666f72206e6f60008201527f6e6578697374656e7420746f6b656e0000000000000000000000000000000000602082015250565b7f4552433732313a20617070726f76616c20746f2063757272656e74206f776e6560008201527f7200000000000000000000000000000000000000000000000000000000000000602082015250565b7f4552433732313a207472616e736665722063616c6c6572206973206e6f74206f60008201527f776e6572206e6f7220617070726f766564000000000000000000000000000000602082015250565b6150d781614883565b81146150e257600080fd5b50565b6150ee81614895565b81146150f957600080fd5b50565b615105816148a1565b811461511057600080fd5b50565b61511c816148ab565b811461512757600080fd5b50565b615133816148f7565b811461513e57600080fd5b5056fe68747470733a2f2f73796e7468657469786261646765732e676c697463682e6d652fa2646970667358221220fde9d1c905ff7f77d67a6b80f1aa111a6363e51c647cb499294b0c0113fbacd864736f6c63430008040033",
  "immutableReferences": {},
  "source": "// SPDX-License-Identifier: MIT\npragma solidity >=0.8.0 <0.9.0;\nimport \"@openzeppelin/contracts/token/ERC721/extensions/ERC721URIStorage.sol\";\nimport \"@openzeppelin/contracts/utils/Counters.sol\";\nimport \"@chainlink/contracts/src/v0.8/dev/Chainlink.sol\";\nimport \"@chainlink/contracts/src/v0.8/dev/ChainlinkClient.sol\";\nimport \"./BadgeLookup.sol\";\n\n\ncontract SynthBadge is ERC721URIStorage, ChainlinkClient {\n    using Counters for Counters.Counter;\n    using Chainlink for Chainlink.Request;\n\n    Counters.Counter private _tokenIds;\n\n    string constant apiUrl = \"https://synthetixbadges.glitch.me/\";               // api.synthetix.io\n\n    // Badge Lookup and owner\n    address public badgeLookup;\n    address public owner;\n\n    // Chainlink\n    address private oracle;\n    bytes32 private jobId;\n    uint256 private fee;\n\n    // Internals\n    mapping (bytes32=> address) public requestByAddress;\n    mapping (address=> bool[]) public badgesByUser;\n    mapping (address=> uint256) public totalUserBadges;\n\n    // Events\n    event UrlRequested(string url);\n    event ApiResponse(bytes32 requestId, uint256 badgeTotal);\n\n    // Permits modifications only by the owner of the contract.\n    modifier only_owner() {\n        require(msg.sender == owner, \"Only contract owner can call this function.\");\n        _;\n    }\n\n    // Permits modifications only by the oracle contract.\n    modifier from_oracle() {\n        require(msg.sender == address(oracle), \"Only oracle contract can call this function.\");\n        _;\n    }\n\n     /**\n     * Network: Kovan\n     * Oracle: 0x2f90A6D021db21e1B2A077c5a37B3C7E75D15b7e\n     * Job ID: 29fa9aa13bf1468788b7cc4a500a45b8\n     * Fee: 0.1 LINK\n     */\n    constructor(address _badgeLookup) payable\n    ERC721(\"SynthBadge\", \"sNFT\")\n    {\n        // KOVAN settings\n        setPublicChainlinkToken();\n        oracle = 0x2f90A6D021db21e1B2A077c5a37B3C7E75D15b7e;\n        jobId = \"29fa9aa13bf1468788b7cc4a500a45b8\";\n        fee = 0.1 * 10 ** 18; // (Varies by network and job)\n\n        badgeLookup = _badgeLookup;\n        owner = msg.sender;\n    }\n\n    /**\n     * OWNER ONLY UPDATE FUNCTIONS IN CASE THINGS CHANGE.\n     */\n\n    /**\n     * @dev Updates the oracle contract.\n     */\n    function updateOracle(address _oracle) only_owner public {\n        oracle = _oracle;\n    }\n\n    /**\n     * @dev Updates the oracle contract.\n     */\n    function updateLookup(address _lookup) only_owner public {\n        badgeLookup = _lookup;\n    }\n\n    /**\n     * @dev Updates the oracle contract.\n     */\n    function updateJob(bytes32 _job) only_owner public {\n        jobId = _job;\n    }\n\n    /**\n     * @dev Updates the oracle contract.\n     */\n    function updateFee(uint256 _fee) only_owner public {\n        fee = _fee;\n    }\n\n\n    /**\n     * Create a Chainlink request to retrieve API response, find the target\n     * data, then multiply by 1000000000000000000 (to remove decimal places from data).\n     */\n    function requestBadges() public returns (bytes32 requestId) {\n        requestBadges(msg.sender);\n    }\n\n    function requestBadges(address _owner) public returns (bytes32 requestId) {\n        Chainlink.Request memory request = buildChainlinkRequest(jobId, address(this), this.fulfill.selector);\n\n        // Set the URL to perform the GET request on\n        string memory url = string(abi.encodePacked(apiUrl, toString(_owner)));\n        emit UrlRequested(url);\n        request.add(\"get\", url);\n\n        // Sends the request\n        bytes32 _requestId = sendChainlinkRequestTo(oracle, request, fee);\n    }\n\n    function checkUserBadge(address _owner, uint256 _id) public view returns(bool) {\n        return badgesByUser[_owner][_id];\n    }\n\n    function getUserBadges(address _owner) public view returns(bool[] memory) {\n        return badgesByUser[_owner];\n    }\n\n    /**\n     * Receive the response in the form of uint256\n     */\n    function fulfill(bytes32 _requestId, uint256 _badgeId) from_oracle public {\n        emit ApiResponse(_requestId, _badgeId);\n        address badgeUser = requestByAddress[_requestId];\n        if(!badgesByUser[badgeUser][_badgeId]) {\n            // Get the Badge URL\n            string memory badgeUrl = BadgeLookup(badgeLookup).getBadgeById(_badgeId);\n\n            mintNFT(badgeUser, badgeUrl);\n            badgesByUser[badgeUser][_badgeId] = true;\n            totalUserBadges[badgeUser]++;\n        }\n    }\n\n    /**\n     * Mint the NFT.\n     */\n    function mintNFT(address _owner, string memory tokenURI) private {\n        _tokenIds.increment();\n        uint256 tokenId = _tokenIds.current();\n        _safeMint(_owner, tokenId);\n        _setTokenURI(tokenId, tokenURI);\n    }\n\n    /**\n     * Token lookup for myself or someone else.\n     */\n    function getTokens() view public returns(uint256[] memory) {\n        getTokens(msg.sender);\n    }\n\n    function getTokens(address _owner) view public returns(uint256[] memory) {\n        uint256 tokenCount = balanceOf(_owner);\n        if (tokenCount == 0) {\n            return new uint256[](0);\n        } else {\n            uint256[] memory result = new uint256[](tokenCount);\n            uint256 totalTokens = _tokenIds.current();\n            uint256 resultIndex = 0;\n            for (uint256 t = 1; t <= totalTokens; t++) {\n                if (_exists(t) && ownerOf(t) == _owner) {\n                    result[resultIndex] = t;\n                    resultIndex++;\n                }\n            }\n            return result;\n        }\n    }\n\n    /**\n     * String functions necessary for appending address to a url.\n     */\n\n    function toString(address account) public pure returns(string memory) {\n        return toString(abi.encodePacked(account));\n    }\n\n    function toString(uint256 value) public pure returns(string memory) {\n        return toString(abi.encodePacked(value));\n    }\n\n    function toString(bytes32 value) public pure returns(string memory) {\n        return toString(abi.encodePacked(value));\n    }\n\n    function toString(bytes memory data) public pure returns(string memory) {\n        bytes memory alphabet = \"0123456789abcdef\";\n\n        bytes memory str = new bytes(2 + data.length * 2);\n        str[0] = \"0\";\n        str[1] = \"x\";\n        for (uint i = 0; i < data.length; i++) {\n            str[2+i*2] = alphabet[uint(uint8(data[i] >> 4))];\n            str[3+i*2] = alphabet[uint(uint8(data[i] & 0x0f))];\n        }\n        return string(str);\n    }\n}\n\n\n\n",
  "sourcePath": "/Users/Shared/Code/experimental/synthetix-badges/contracts/SynthBadge.sol",
  "compiler": {
    "name": "solc",
    "version": "0.8.4+commit.c7e474f2.Emscripten.clang"
  },
  "schemaVersion": "3.4.1",
  "updatedAt": "2021-05-21T16:12:32.960Z",
  "networkType": "ethereum",
  "devdoc": {
    "kind": "dev",
    "methods": {
      "approve(address,uint256)": {
        "details": "See {IERC721-approve}."
      },
      "balanceOf(address)": {
        "details": "See {IERC721-balanceOf}."
      },
      "getApproved(uint256)": {
        "details": "See {IERC721-getApproved}."
      },
      "isApprovedForAll(address,address)": {
        "details": "See {IERC721-isApprovedForAll}."
      },
      "name()": {
        "details": "See {IERC721Metadata-name}."
      },
      "ownerOf(uint256)": {
        "details": "See {IERC721-ownerOf}."
      },
      "safeTransferFrom(address,address,uint256)": {
        "details": "See {IERC721-safeTransferFrom}."
      },
      "safeTransferFrom(address,address,uint256,bytes)": {
        "details": "See {IERC721-safeTransferFrom}."
      },
      "setApprovalForAll(address,bool)": {
        "details": "See {IERC721-setApprovalForAll}."
      },
      "supportsInterface(bytes4)": {
        "details": "See {IERC165-supportsInterface}."
      },
      "symbol()": {
        "details": "See {IERC721Metadata-symbol}."
      },
      "tokenURI(uint256)": {
        "details": "See {IERC721Metadata-tokenURI}."
      },
      "transferFrom(address,address,uint256)": {
        "details": "See {IERC721-transferFrom}."
      },
      "updateFee(uint256)": {
        "details": "Updates the oracle contract."
      },
      "updateJob(bytes32)": {
        "details": "Updates the oracle contract."
      },
      "updateLookup(address)": {
        "details": "Updates the oracle contract."
      },
      "updateOracle(address)": {
        "details": "Updates the oracle contract."
      }
    },
    "version": 1
  },
  "userdoc": {
    "kind": "user",
    "methods": {
      "constructor": {
        "notice": "Network: Kovan Oracle: 0x2f90A6D021db21e1B2A077c5a37B3C7E75D15b7e Job ID: 29fa9aa13bf1468788b7cc4a500a45b8 Fee: 0.1 LINK"
      },
      "fulfill(bytes32,uint256)": {
        "notice": "Receive the response in the form of uint256"
      },
      "getTokens()": {
        "notice": "Token lookup for myself or someone else."
      },
      "requestBadges()": {
        "notice": "Create a Chainlink request to retrieve API response, find the target data, then multiply by 1000000000000000000 (to remove decimal places from data)."
      },
      "toString(address)": {
        "notice": "String functions necessary for appending address to a url."
      }
    },
    "version": 1
  }
}