{
  "contractName": "SynthBadge",
  "abi": [
    {
      "inputs": [
        {
          "internalType": "address",
          "name": "_badgeLookup",
          "type": "address"
        }
      ],
      "stateMutability": "payable",
      "type": "constructor",
      "payable": true
    },
    {
      "anonymous": false,
      "inputs": [
        {
          "indexed": false,
          "internalType": "bytes32",
          "name": "requestId",
          "type": "bytes32"
        },
        {
          "indexed": false,
          "internalType": "uint256",
          "name": "badgeTotal",
          "type": "uint256"
        }
      ],
      "name": "ApiResponse",
      "type": "event"
    },
    {
      "anonymous": false,
      "inputs": [
        {
          "indexed": true,
          "internalType": "address",
          "name": "owner",
          "type": "address"
        },
        {
          "indexed": true,
          "internalType": "address",
          "name": "approved",
          "type": "address"
        },
        {
          "indexed": true,
          "internalType": "uint256",
          "name": "tokenId",
          "type": "uint256"
        }
      ],
      "name": "Approval",
      "type": "event"
    },
    {
      "anonymous": false,
      "inputs": [
        {
          "indexed": true,
          "internalType": "address",
          "name": "owner",
          "type": "address"
        },
        {
          "indexed": true,
          "internalType": "address",
          "name": "operator",
          "type": "address"
        },
        {
          "indexed": false,
          "internalType": "bool",
          "name": "approved",
          "type": "bool"
        }
      ],
      "name": "ApprovalForAll",
      "type": "event"
    },
    {
      "anonymous": false,
      "inputs": [
        {
          "indexed": true,
          "internalType": "bytes32",
          "name": "id",
          "type": "bytes32"
        }
      ],
      "name": "ChainlinkCancelled",
      "type": "event"
    },
    {
      "anonymous": false,
      "inputs": [
        {
          "indexed": true,
          "internalType": "bytes32",
          "name": "id",
          "type": "bytes32"
        }
      ],
      "name": "ChainlinkFulfilled",
      "type": "event"
    },
    {
      "anonymous": false,
      "inputs": [
        {
          "indexed": true,
          "internalType": "bytes32",
          "name": "id",
          "type": "bytes32"
        }
      ],
      "name": "ChainlinkRequested",
      "type": "event"
    },
    {
      "anonymous": false,
      "inputs": [
        {
          "indexed": true,
          "internalType": "address",
          "name": "from",
          "type": "address"
        },
        {
          "indexed": true,
          "internalType": "address",
          "name": "to",
          "type": "address"
        },
        {
          "indexed": true,
          "internalType": "uint256",
          "name": "tokenId",
          "type": "uint256"
        }
      ],
      "name": "Transfer",
      "type": "event"
    },
    {
      "anonymous": false,
      "inputs": [
        {
          "indexed": false,
          "internalType": "string",
          "name": "url",
          "type": "string"
        }
      ],
      "name": "UrlRequested",
      "type": "event"
    },
    {
      "inputs": [
        {
          "internalType": "address",
          "name": "to",
          "type": "address"
        },
        {
          "internalType": "uint256",
          "name": "tokenId",
          "type": "uint256"
        }
      ],
      "name": "approve",
      "outputs": [],
      "stateMutability": "nonpayable",
      "type": "function"
    },
    {
      "inputs": [],
      "name": "badgeLookup",
      "outputs": [
        {
          "internalType": "address",
          "name": "",
          "type": "address"
        }
      ],
      "stateMutability": "view",
      "type": "function",
      "constant": true
    },
    {
      "inputs": [
        {
          "internalType": "address",
          "name": "",
          "type": "address"
        },
        {
          "internalType": "uint256",
          "name": "",
          "type": "uint256"
        }
      ],
      "name": "badgesByUser",
      "outputs": [
        {
          "internalType": "uint256",
          "name": "",
          "type": "uint256"
        }
      ],
      "stateMutability": "view",
      "type": "function",
      "constant": true
    },
    {
      "inputs": [
        {
          "internalType": "address",
          "name": "owner",
          "type": "address"
        }
      ],
      "name": "balanceOf",
      "outputs": [
        {
          "internalType": "uint256",
          "name": "",
          "type": "uint256"
        }
      ],
      "stateMutability": "view",
      "type": "function",
      "constant": true
    },
    {
      "inputs": [
        {
          "internalType": "uint256",
          "name": "tokenId",
          "type": "uint256"
        }
      ],
      "name": "getApproved",
      "outputs": [
        {
          "internalType": "address",
          "name": "",
          "type": "address"
        }
      ],
      "stateMutability": "view",
      "type": "function",
      "constant": true
    },
    {
      "inputs": [
        {
          "internalType": "address",
          "name": "owner",
          "type": "address"
        },
        {
          "internalType": "address",
          "name": "operator",
          "type": "address"
        }
      ],
      "name": "isApprovedForAll",
      "outputs": [
        {
          "internalType": "bool",
          "name": "",
          "type": "bool"
        }
      ],
      "stateMutability": "view",
      "type": "function",
      "constant": true
    },
    {
      "inputs": [],
      "name": "name",
      "outputs": [
        {
          "internalType": "string",
          "name": "",
          "type": "string"
        }
      ],
      "stateMutability": "view",
      "type": "function",
      "constant": true
    },
    {
      "inputs": [],
      "name": "owner",
      "outputs": [
        {
          "internalType": "address",
          "name": "",
          "type": "address"
        }
      ],
      "stateMutability": "view",
      "type": "function",
      "constant": true
    },
    {
      "inputs": [
        {
          "internalType": "uint256",
          "name": "tokenId",
          "type": "uint256"
        }
      ],
      "name": "ownerOf",
      "outputs": [
        {
          "internalType": "address",
          "name": "",
          "type": "address"
        }
      ],
      "stateMutability": "view",
      "type": "function",
      "constant": true
    },
    {
      "inputs": [
        {
          "internalType": "address",
          "name": "from",
          "type": "address"
        },
        {
          "internalType": "address",
          "name": "to",
          "type": "address"
        },
        {
          "internalType": "uint256",
          "name": "tokenId",
          "type": "uint256"
        }
      ],
      "name": "safeTransferFrom",
      "outputs": [],
      "stateMutability": "nonpayable",
      "type": "function"
    },
    {
      "inputs": [
        {
          "internalType": "address",
          "name": "from",
          "type": "address"
        },
        {
          "internalType": "address",
          "name": "to",
          "type": "address"
        },
        {
          "internalType": "uint256",
          "name": "tokenId",
          "type": "uint256"
        },
        {
          "internalType": "bytes",
          "name": "_data",
          "type": "bytes"
        }
      ],
      "name": "safeTransferFrom",
      "outputs": [],
      "stateMutability": "nonpayable",
      "type": "function"
    },
    {
      "inputs": [
        {
          "internalType": "address",
          "name": "operator",
          "type": "address"
        },
        {
          "internalType": "bool",
          "name": "approved",
          "type": "bool"
        }
      ],
      "name": "setApprovalForAll",
      "outputs": [],
      "stateMutability": "nonpayable",
      "type": "function"
    },
    {
      "inputs": [
        {
          "internalType": "bytes4",
          "name": "interfaceId",
          "type": "bytes4"
        }
      ],
      "name": "supportsInterface",
      "outputs": [
        {
          "internalType": "bool",
          "name": "",
          "type": "bool"
        }
      ],
      "stateMutability": "view",
      "type": "function",
      "constant": true
    },
    {
      "inputs": [],
      "name": "symbol",
      "outputs": [
        {
          "internalType": "string",
          "name": "",
          "type": "string"
        }
      ],
      "stateMutability": "view",
      "type": "function",
      "constant": true
    },
    {
      "inputs": [
        {
          "internalType": "uint256",
          "name": "tokenId",
          "type": "uint256"
        }
      ],
      "name": "tokenURI",
      "outputs": [
        {
          "internalType": "string",
          "name": "",
          "type": "string"
        }
      ],
      "stateMutability": "view",
      "type": "function",
      "constant": true
    },
    {
      "inputs": [
        {
          "internalType": "address",
          "name": "",
          "type": "address"
        }
      ],
      "name": "totalUserBadges",
      "outputs": [
        {
          "internalType": "uint256",
          "name": "",
          "type": "uint256"
        }
      ],
      "stateMutability": "view",
      "type": "function",
      "constant": true
    },
    {
      "inputs": [
        {
          "internalType": "address",
          "name": "from",
          "type": "address"
        },
        {
          "internalType": "address",
          "name": "to",
          "type": "address"
        },
        {
          "internalType": "uint256",
          "name": "tokenId",
          "type": "uint256"
        }
      ],
      "name": "transferFrom",
      "outputs": [],
      "stateMutability": "nonpayable",
      "type": "function"
    },
    {
      "inputs": [
        {
          "internalType": "address",
          "name": "_lookup",
          "type": "address"
        }
      ],
      "name": "updateLookup",
      "outputs": [],
      "stateMutability": "nonpayable",
      "type": "function"
    },
    {
      "inputs": [
        {
          "internalType": "address",
          "name": "_oracle",
          "type": "address"
        }
      ],
      "name": "updateOracle",
      "outputs": [],
      "stateMutability": "nonpayable",
      "type": "function"
    },
    {
      "inputs": [
        {
          "internalType": "bytes32",
          "name": "_job",
          "type": "bytes32"
        }
      ],
      "name": "updateJob",
      "outputs": [],
      "stateMutability": "nonpayable",
      "type": "function"
    },
    {
      "inputs": [
        {
          "internalType": "uint256",
          "name": "_fee",
          "type": "uint256"
        }
      ],
      "name": "updateFee",
      "outputs": [],
      "stateMutability": "nonpayable",
      "type": "function"
    },
    {
      "inputs": [
        {
          "internalType": "address",
          "name": "_owner",
          "type": "address"
        }
      ],
      "name": "requestBadges",
      "outputs": [
        {
          "internalType": "bytes32",
          "name": "requestId",
          "type": "bytes32"
        }
      ],
      "stateMutability": "nonpayable",
      "type": "function"
    },
    {
      "inputs": [],
      "name": "requestBadges",
      "outputs": [
        {
          "internalType": "bytes32",
          "name": "requestId",
          "type": "bytes32"
        }
      ],
      "stateMutability": "nonpayable",
      "type": "function"
    },
    {
      "inputs": [
        {
          "internalType": "bytes32",
          "name": "_requestId",
          "type": "bytes32"
        },
        {
          "internalType": "uint256",
          "name": "_badgeId",
          "type": "uint256"
        }
      ],
      "name": "fulfill",
      "outputs": [],
      "stateMutability": "nonpayable",
      "type": "function"
    },
    {
      "inputs": [
        {
          "internalType": "address",
          "name": "_owner",
          "type": "address"
        }
      ],
      "name": "getTokens",
      "outputs": [
        {
          "internalType": "uint256[]",
          "name": "",
          "type": "uint256[]"
        }
      ],
      "stateMutability": "view",
      "type": "function",
      "constant": true
    },
    {
      "inputs": [],
      "name": "getTokens",
      "outputs": [
        {
          "internalType": "uint256[]",
          "name": "",
          "type": "uint256[]"
        }
      ],
      "stateMutability": "view",
      "type": "function",
      "constant": true
    },
    {
      "inputs": [
        {
          "internalType": "uint256",
          "name": "_id",
          "type": "uint256"
        }
      ],
      "name": "getTokenUrl",
      "outputs": [
        {
          "internalType": "string",
          "name": "_url",
          "type": "string"
        }
      ],
      "stateMutability": "view",
      "type": "function",
      "constant": true
    },
    {
      "inputs": [
        {
          "internalType": "address",
          "name": "_owner",
          "type": "address"
        },
        {
          "internalType": "uint256",
          "name": "_id",
          "type": "uint256"
        }
      ],
      "name": "checkUserBadge",
      "outputs": [
        {
          "internalType": "bool",
          "name": "badgeFound",
          "type": "bool"
        }
      ],
      "stateMutability": "view",
      "type": "function",
      "constant": true
    },
    {
      "inputs": [
        {
          "internalType": "address",
          "name": "_owner",
          "type": "address"
        }
      ],
      "name": "getUserBadges",
      "outputs": [
        {
          "internalType": "uint256[]",
          "name": "",
          "type": "uint256[]"
        }
      ],
      "stateMutability": "view",
      "type": "function",
      "constant": true
    },
    {
      "inputs": [
        {
          "internalType": "uint256",
          "name": "_id",
          "type": "uint256"
        }
      ],
      "name": "getBadgeUrl",
      "outputs": [
        {
          "internalType": "string",
          "name": "badgeUrl",
          "type": "string"
        }
      ],
      "stateMutability": "view",
      "type": "function",
      "constant": true
    },
    {
      "inputs": [
        {
          "internalType": "address",
          "name": "account",
          "type": "address"
        }
      ],
      "name": "toString",
      "outputs": [
        {
          "internalType": "string",
          "name": "",
          "type": "string"
        }
      ],
      "stateMutability": "pure",
      "type": "function",
      "constant": true
    },
    {
      "inputs": [
        {
          "internalType": "uint256",
          "name": "value",
          "type": "uint256"
        }
      ],
      "name": "toString",
      "outputs": [
        {
          "internalType": "string",
          "name": "",
          "type": "string"
        }
      ],
      "stateMutability": "pure",
      "type": "function",
      "constant": true
    },
    {
      "inputs": [
        {
          "internalType": "bytes",
          "name": "data",
          "type": "bytes"
        }
      ],
      "name": "toString",
      "outputs": [
        {
          "internalType": "string",
          "name": "",
          "type": "string"
        }
      ],
      "stateMutability": "pure",
      "type": "function",
      "constant": true
    },
    {
      "inputs": [
        {
          "internalType": "bytes32",
          "name": "value",
          "type": "bytes32"
        }
      ],
      "name": "toString",
      "outputs": [
        {
          "internalType": "string",
          "name": "",
          "type": "string"
        }
      ],
      "stateMutability": "pure",
      "type": "function",
      "constant": true
    }
  ],
  "bytecode": "0x60806040526001600b55604051620057743803806200577483398181016040528101906200002e9190620003a5565b6040518060400160405280600a81526020017f53796e74684261646765000000000000000000000000000000000000000000008152506040518060400160405280600481526020017f734e4654000000000000000000000000000000000000000000000000000000008152508160009080519060200190620000b2929190620002de565b508060019080519060200190620000cb929190620002de565b505050620000de620001f260201b60201c565b732f90a6d021db21e1b2a077c5a37b3c7e75d15b7e601060006101000a81548173ffffffffffffffffffffffffffffffffffffffff021916908373ffffffffffffffffffffffffffffffffffffffff1602179055507f323966613961613133626631343638373838623763633461353030613435623860118190555067016345785d8a000060128190555080600e60006101000a81548173ffffffffffffffffffffffffffffffffffffffff021916908373ffffffffffffffffffffffffffffffffffffffff16021790555033600f60006101000a81548173ffffffffffffffffffffffffffffffffffffffff021916908373ffffffffffffffffffffffffffffffffffffffff1602179055505062000484565b6200029873c89bd4e1632d3a43cb03aaad5262cbe4038bc57173ffffffffffffffffffffffffffffffffffffffff166338cc48316040518163ffffffff1660e01b815260040160206040518083038186803b1580156200025157600080fd5b505afa15801562000266573d6000803e3d6000fd5b505050506040513d601f19601f820116820180604052508101906200028c9190620003a5565b6200029a60201b60201c565b565b80600960006101000a81548173ffffffffffffffffffffffffffffffffffffffff021916908373ffffffffffffffffffffffffffffffffffffffff16021790555050565b828054620002ec9062000405565b90600052602060002090601f0160209004810192826200031057600085556200035c565b82601f106200032b57805160ff19168380011785556200035c565b828001600101855582156200035c579182015b828111156200035b5782518255916020019190600101906200033e565b5b5090506200036b91906200036f565b5090565b5b808211156200038a57600081600090555060010162000370565b5090565b6000815190506200039f816200046a565b92915050565b600060208284031215620003b857600080fd5b6000620003c8848285016200038e565b91505092915050565b6000620003de82620003e5565b9050919050565b600073ffffffffffffffffffffffffffffffffffffffff82169050919050565b600060028204905060018216806200041e57607f821691505b602082108114156200043557620004346200043b565b5b50919050565b7f4e487b7100000000000000000000000000000000000000000000000000000000600052602260045260246000fd5b6200047581620003d1565b81146200048157600080fd5b50565b6152e080620004946000396000f3fe608060405234801561001057600080fd5b50600436106102065760003560e01c80636900a3ae1161011a578063a22cb465116100ad578063c059f0b91161007c578063c059f0b91461067f578063c87b56dd1461069d578063cc2c2646146106cd578063e4d084fe146106eb578063e985e9c51461070757610206565b8063a22cb465146105f9578063aa6ca80814610615578063b11a19e814610633578063b88d4fde1461066357610206565b80638da5cb5b116100e95780638da5cb5b146105855780639012c4a8146105a35780639496f9e3146105bf57806395d89b41146105db57610206565b80636900a3ae146104c557806370a08231146104f557806371aad10d14610525578063803e8bf41461055557610206565b806323b872dd1161019d5780634357855e1161016c5780634357855e146103e9578063450efe211461040557806356ca623e146104355780636352211e14610465578063676f2f2a1461049557610206565b806323b872dd1461035157806337c245fe1461036d5780633900135c1461039d57806342842e0e146103cd57610206565b80631cb44dfc116101d95780631cb44dfc146102a55780631cc5e728146102c15780631d87b5d4146102f157806321fa43c71461032157610206565b806301ffc9a71461020b57806306fdde031461023b578063081812fc14610259578063095ea7b314610289575b600080fd5b61022560048036038101906102209190613ba9565b610737565b604051610232919061431e565b60405180910390f35b610243610819565b604051610250919061437d565b60405180910390f35b610273600480360381019061026e9190613c7d565b6108ab565b60405161028091906141d2565b60405180910390f35b6102a3600480360381019061029e9190613adf565b610930565b005b6102bf60048036038101906102ba9190613974565b610a48565b005b6102db60048036038101906102d69190613c7d565b610b1c565b6040516102e8919061437d565b60405180910390f35b61030b60048036038101906103069190613c7d565b610bd5565b604051610318919061437d565b60405180910390f35b61033b60048036038101906103369190613974565b610be7565b6040516103489190614339565b60405180910390f35b61036b600480360381019061036691906139d9565b610e65565b005b61038760048036038101906103829190613974565b610ec5565b60405161039491906142fc565b60405180910390f35b6103b760048036038101906103b29190613adf565b610f5c565b6040516103c4919061431e565b60405180910390f35b6103e760048036038101906103e291906139d9565b61104f565b005b61040360048036038101906103fe9190613b6d565b61106f565b005b61041f600480360381019061041a9190613974565b61124a565b60405161042c91906142fc565b60405180910390f35b61044f600480360381019061044a9190613974565b61142d565b60405161045c919061437d565b60405180910390f35b61047f600480360381019061047a9190613c7d565b61145e565b60405161048c91906141d2565b60405180910390f35b6104af60048036038101906104aa9190613974565b611510565b6040516104bc919061461f565b60405180910390f35b6104df60048036038101906104da9190613c7d565b611528565b6040516104ec919061437d565b60405180910390f35b61050f600480360381019061050a9190613974565b611559565b60405161051c919061461f565b60405180910390f35b61053f600480360381019061053a9190613bfb565b611611565b60405161054c919061437d565b60405180910390f35b61056f600480360381019061056a9190613adf565b611a61565b60405161057c919061461f565b60405180910390f35b61058d611a92565b60405161059a91906141d2565b60405180910390f35b6105bd60048036038101906105b89190613c7d565b611ab8565b005b6105d960048036038101906105d49190613b44565b611b52565b005b6105e3611bec565b6040516105f0919061437d565b60405180910390f35b610613600480360381019061060e9190613aa3565b611c7e565b005b61061d611dff565b60405161062a91906142fc565b60405180910390f35b61064d60048036038101906106489190613b44565b611e0e565b60405161065a919061437d565b60405180910390f35b61067d60048036038101906106789190613a28565b611e3f565b005b610687611ea1565b60405161069491906141d2565b60405180910390f35b6106b760048036038101906106b29190613c7d565b611ec7565b6040516106c4919061437d565b60405180910390f35b6106d5612019565b6040516106e29190614339565b60405180910390f35b61070560048036038101906107009190613974565b612028565b005b610721600480360381019061071c919061399d565b6120fc565b60405161072e919061431e565b60405180910390f35b60007f80ac58cd000000000000000000000000000000000000000000000000000000007bffffffffffffffffffffffffffffffffffffffffffffffffffffffff1916827bffffffffffffffffffffffffffffffffffffffffffffffffffffffff1916148061080257507f5b5e139f000000000000000000000000000000000000000000000000000000007bffffffffffffffffffffffffffffffffffffffffffffffffffffffff1916827bffffffffffffffffffffffffffffffffffffffffffffffffffffffff1916145b80610812575061081182612190565b5b9050919050565b60606000805461082890614aa7565b80601f016020809104026020016040519081016040528092919081815260200182805461085490614aa7565b80156108a15780601f10610876576101008083540402835291602001916108a1565b820191906000526020600020905b81548152906001019060200180831161088457829003601f168201915b5050505050905090565b60006108b6826121fa565b6108f5576040517f08c379a00000000000000000000000000000000000000000000000000000000081526004016108ec9061455f565b60405180910390fd5b6004600083815260200190815260200160002060009054906101000a900473ffffffffffffffffffffffffffffffffffffffff169050919050565b600061093b8261145e565b90508073ffffffffffffffffffffffffffffffffffffffff168373ffffffffffffffffffffffffffffffffffffffff1614156109ac576040517f08c379a00000000000000000000000000000000000000000000000000000000081526004016109a3906145bf565b60405180910390fd5b8073ffffffffffffffffffffffffffffffffffffffff166109cb612266565b73ffffffffffffffffffffffffffffffffffffffff1614806109fa57506109f9816109f4612266565b6120fc565b5b610a39576040517f08c379a0000000000000000000000000000000000000000000000000000000008152600401610a309061447f565b60405180910390fd5b610a43838361226e565b505050565b600f60009054906101000a900473ffffffffffffffffffffffffffffffffffffffff1673ffffffffffffffffffffffffffffffffffffffff163373ffffffffffffffffffffffffffffffffffffffff1614610ad8576040517f08c379a0000000000000000000000000000000000000000000000000000000008152600401610acf9061439f565b60405180910390fd5b80601060006101000a81548173ffffffffffffffffffffffffffffffffffffffff021916908373ffffffffffffffffffffffffffffffffffffffff16021790555050565b6060600e60009054906101000a900473ffffffffffffffffffffffffffffffffffffffff1673ffffffffffffffffffffffffffffffffffffffff1663b4857ad4836040518263ffffffff1660e01b8152600401610b79919061461f565b60006040518083038186803b158015610b9157600080fd5b505afa158015610ba5573d6000803e3d6000fd5b505050506040513d6000823e3d601f19601f82011682018060405250810190610bce9190613c3c565b9050919050565b6060610be082611ec7565b9050919050565b600080610bfe60115430634357855e60e01b612327565b90506000600e60009054906101000a900473ffffffffffffffffffffffffffffffffffffffff1673ffffffffffffffffffffffffffffffffffffffff16638367e1206040518163ffffffff1660e01b815260040160006040518083038186803b158015610c6a57600080fd5b505afa158015610c7e573d6000803e3d6000fd5b505050506040513d6000823e3d601f19601f82011682018060405250810190610ca79190613c3c565b9050600081610cb58661142d565b604051602001610cc6929190614193565b60405160208183030381529060405290507f423580c5252763279dda9a3c3d33abe5f278056f6cefd69fb1486c1ef99e299581604051610d06919061437d565b60405180910390a1610d586040518060400160405280600381526020017f676574000000000000000000000000000000000000000000000000000000000081525082856123589092919063ffffffff16565b610dd76040518060400160405280600481526020017f70617468000000000000000000000000000000000000000000000000000000008152506040518060400160405280600281526020017f6964000000000000000000000000000000000000000000000000000000000000815250856123589092919063ffffffff16565b6000610e08601060009054906101000a900473ffffffffffffffffffffffffffffffffffffffff168560125461238b565b9050856013600083815260200190815260200160002060006101000a81548173ffffffffffffffffffffffffffffffffffffffff021916908373ffffffffffffffffffffffffffffffffffffffff16021790555050505050919050565b610e76610e70612266565b82612560565b610eb5576040517f08c379a0000000000000000000000000000000000000000000000000000000008152600401610eac906145df565b60405180910390fd5b610ec083838361263e565b505050565b6060601460008373ffffffffffffffffffffffffffffffffffffffff1673ffffffffffffffffffffffffffffffffffffffff168152602001908152602001600020805480602002602001604051908101604052809291908181526020018280548015610f5057602002820191906000526020600020905b815481526020019060010190808311610f3c575b50505050509050919050565b6000805b601560008573ffffffffffffffffffffffffffffffffffffffff1673ffffffffffffffffffffffffffffffffffffffff168152602001908152602001600020548110156110485782601460008673ffffffffffffffffffffffffffffffffffffffff1673ffffffffffffffffffffffffffffffffffffffff168152602001908152602001600020828154811061101f577f4e487b7100000000000000000000000000000000000000000000000000000000600052603260045260246000fd5b9060005260206000200154141561103557600191505b808061104090614b0a565b915050610f60565b5092915050565b61106a83838360405180602001604052806000815250611e3f565b505050565b6110788261289a565b7fdc2a02298d7bff12351a2caaa5004ad88d3caaa5337f1caa07616b95b81ff52282826040516110a9929190614354565b60405180910390a160008111156112465760006013600084815260200190815260200160002060009054906101000a900473ffffffffffffffffffffffffffffffffffffffff169050600073ffffffffffffffffffffffffffffffffffffffff168173ffffffffffffffffffffffffffffffffffffffff161415611162576040517f08c379a00000000000000000000000000000000000000000000000000000000081526004016111599061451f565b60405180910390fd5b61116c8183610f5c565b61124457600061117b83610b1c565b905061118782826129a3565b601460008373ffffffffffffffffffffffffffffffffffffffff1673ffffffffffffffffffffffffffffffffffffffff168152602001908152602001600020839080600181540180825580915050600190039060005260206000200160009091909190915055601560008373ffffffffffffffffffffffffffffffffffffffff1673ffffffffffffffffffffffffffffffffffffffff168152602001908152602001600020600081548092919061123d90614b0a565b9190505550505b505b5050565b6060600061125783611559565b905060008114156112da57600067ffffffffffffffff8111156112a3577f4e487b7100000000000000000000000000000000000000000000000000000000600052604160045260246000fd5b6040519080825280602002602001820160405280156112d15781602001602082028036833780820191505090505b50915050611428565b60008167ffffffffffffffff81111561131c577f4e487b7100000000000000000000000000000000000000000000000000000000600052604160045260246000fd5b60405190808252806020026020018201604052801561134a5781602001602082028036833780820191505090505b5090506000611359600d6129d4565b9050600080600190505b82811161141f57611373816121fa565b80156113b257508673ffffffffffffffffffffffffffffffffffffffff1661139a8261145e565b73ffffffffffffffffffffffffffffffffffffffff16145b1561140c57808483815181106113f1577f4e487b7100000000000000000000000000000000000000000000000000000000600052603260045260246000fd5b602002602001018181525050818061140890614b0a565b9250505b808061141790614b0a565b915050611363565b50829450505050505b919050565b6060611457826040516020016114439190614131565b604051602081830303815290604052611611565b9050919050565b6000806002600084815260200190815260200160002060009054906101000a900473ffffffffffffffffffffffffffffffffffffffff169050600073ffffffffffffffffffffffffffffffffffffffff168173ffffffffffffffffffffffffffffffffffffffff161415611507576040517f08c379a00000000000000000000000000000000000000000000000000000000081526004016114fe906144bf565b60405180910390fd5b80915050919050565b60156020528060005260406000206000915090505481565b60606115528260405160200161153e91906141b7565b604051602081830303815290604052611611565b9050919050565b60008073ffffffffffffffffffffffffffffffffffffffff168273ffffffffffffffffffffffffffffffffffffffff1614156115ca576040517f08c379a00000000000000000000000000000000000000000000000000000000081526004016115c19061449f565b60405180910390fd5b600360008373ffffffffffffffffffffffffffffffffffffffff1673ffffffffffffffffffffffffffffffffffffffff168152602001908152602001600020549050919050565b606060006040518060400160405280601081526020017f3031323334353637383961626364656600000000000000000000000000000000815250905060006002845161165d9190614935565b6002611669919061473d565b67ffffffffffffffff8111156116a8577f4e487b7100000000000000000000000000000000000000000000000000000000600052604160045260246000fd5b6040519080825280601f01601f1916602001820160405280156116da5781602001600182028036833780820191505090505b5090507f300000000000000000000000000000000000000000000000000000000000000081600081518110611738577f4e487b7100000000000000000000000000000000000000000000000000000000600052603260045260246000fd5b60200101907effffffffffffffffffffffffffffffffffffffffffffffffffffffffffffff1916908160001a9053507f7800000000000000000000000000000000000000000000000000000000000000816001815181106117c2577f4e487b7100000000000000000000000000000000000000000000000000000000600052603260045260246000fd5b60200101907effffffffffffffffffffffffffffffffffffffffffffffffffffffffffffff1916908160001a90535060005b8451811015611a5657826004868381518110611839577f4e487b7100000000000000000000000000000000000000000000000000000000600052603260045260246000fd5b602001015160f81c60f81b7effffffffffffffffffffffffffffffffffffffffffffffffffffffffffffff1916901c60f81c60ff16815181106118a5577f4e487b7100000000000000000000000000000000000000000000000000000000600052603260045260246000fd5b602001015160f81c60f81b826002836118be9190614935565b60026118ca919061473d565b81518110611901577f4e487b7100000000000000000000000000000000000000000000000000000000600052603260045260246000fd5b60200101907effffffffffffffffffffffffffffffffffffffffffffffffffffffffffffff1916908160001a90535082600f60f81b86838151811061196f577f4e487b7100000000000000000000000000000000000000000000000000000000600052603260045260246000fd5b602001015160f81c60f81b1660f81c60ff16815181106119b8577f4e487b7100000000000000000000000000000000000000000000000000000000600052603260045260246000fd5b602001015160f81c60f81b826002836119d19190614935565b60036119dd919061473d565b81518110611a14577f4e487b7100000000000000000000000000000000000000000000000000000000600052603260045260246000fd5b60200101907effffffffffffffffffffffffffffffffffffffffffffffffffffffffffffff1916908160001a9053508080611a4e90614b0a565b9150506117f4565b508092505050919050565b60146020528160005260406000208181548110611a7d57600080fd5b90600052602060002001600091509150505481565b600f60009054906101000a900473ffffffffffffffffffffffffffffffffffffffff1681565b600f60009054906101000a900473ffffffffffffffffffffffffffffffffffffffff1673ffffffffffffffffffffffffffffffffffffffff163373ffffffffffffffffffffffffffffffffffffffff1614611b48576040517f08c379a0000000000000000000000000000000000000000000000000000000008152600401611b3f9061439f565b60405180910390fd5b8060128190555050565b600f60009054906101000a900473ffffffffffffffffffffffffffffffffffffffff1673ffffffffffffffffffffffffffffffffffffffff163373ffffffffffffffffffffffffffffffffffffffff1614611be2576040517f08c379a0000000000000000000000000000000000000000000000000000000008152600401611bd99061439f565b60405180910390fd5b8060118190555050565b606060018054611bfb90614aa7565b80601f0160208091040260200160405190810160405280929190818152602001828054611c2790614aa7565b8015611c745780601f10611c4957610100808354040283529160200191611c74565b820191906000526020600020905b815481529060010190602001808311611c5757829003601f168201915b5050505050905090565b611c86612266565b73ffffffffffffffffffffffffffffffffffffffff168273ffffffffffffffffffffffffffffffffffffffff161415611cf4576040517f08c379a0000000000000000000000000000000000000000000000000000000008152600401611ceb9061443f565b60405180910390fd5b8060056000611d01612266565b73ffffffffffffffffffffffffffffffffffffffff1673ffffffffffffffffffffffffffffffffffffffff16815260200190815260200160002060008473ffffffffffffffffffffffffffffffffffffffff1673ffffffffffffffffffffffffffffffffffffffff16815260200190815260200160002060006101000a81548160ff0219169083151502179055508173ffffffffffffffffffffffffffffffffffffffff16611dae612266565b73ffffffffffffffffffffffffffffffffffffffff167f17307eab39ab6107e8899845ad3d59bd9653f200f220920489ca2b5937696c3183604051611df3919061431e565b60405180910390a35050565b6060611e0a3361124a565b5090565b6060611e3882604051602001611e24919061414c565b604051602081830303815290604052611611565b9050919050565b611e50611e4a612266565b83612560565b611e8f576040517f08c379a0000000000000000000000000000000000000000000000000000000008152600401611e86906145df565b60405180910390fd5b611e9b848484846129e2565b50505050565b600e60009054906101000a900473ffffffffffffffffffffffffffffffffffffffff1681565b6060611ed2826121fa565b611f11576040517f08c379a0000000000000000000000000000000000000000000000000000000008152600401611f089061453f565b60405180910390fd5b6000600660008481526020019081526020016000208054611f3190614aa7565b80601f0160208091040260200160405190810160405280929190818152602001828054611f5d90614aa7565b8015611faa5780601f10611f7f57610100808354040283529160200191611faa565b820191906000526020600020905b815481529060010190602001808311611f8d57829003601f168201915b505050505090506000611fbb612a3e565b9050600081511415611fd1578192505050612014565b600082511115612006578082604051602001611fee929190614193565b60405160208183030381529060405292505050612014565b61200f84612a55565b925050505b919050565b600061202433610be7565b5090565b600f60009054906101000a900473ffffffffffffffffffffffffffffffffffffffff1673ffffffffffffffffffffffffffffffffffffffff163373ffffffffffffffffffffffffffffffffffffffff16146120b8576040517f08c379a00000000000000000000000000000000000000000000000000000000081526004016120af9061439f565b60405180910390fd5b80600e60006101000a81548173ffffffffffffffffffffffffffffffffffffffff021916908373ffffffffffffffffffffffffffffffffffffffff16021790555050565b6000600560008473ffffffffffffffffffffffffffffffffffffffff1673ffffffffffffffffffffffffffffffffffffffff16815260200190815260200160002060008373ffffffffffffffffffffffffffffffffffffffff1673ffffffffffffffffffffffffffffffffffffffff16815260200190815260200160002060009054906101000a900460ff16905092915050565b60007f01ffc9a7000000000000000000000000000000000000000000000000000000007bffffffffffffffffffffffffffffffffffffffffffffffffffffffff1916827bffffffffffffffffffffffffffffffffffffffffffffffffffffffff1916149050919050565b60008073ffffffffffffffffffffffffffffffffffffffff166002600084815260200190815260200160002060009054906101000a900473ffffffffffffffffffffffffffffffffffffffff1673ffffffffffffffffffffffffffffffffffffffff1614159050919050565b600033905090565b816004600083815260200190815260200160002060006101000a81548173ffffffffffffffffffffffffffffffffffffffff021916908373ffffffffffffffffffffffffffffffffffffffff160217905550808273ffffffffffffffffffffffffffffffffffffffff166122e18361145e565b73ffffffffffffffffffffffffffffffffffffffff167f8c5be1e5ebec7d5bd14f71427d1e84f3dd0314c0f7b2291e5b200ac8c7c3b92560405160405180910390a45050565b61232f6136e7565b6123376136e7565b61234e85858584612afc909392919063ffffffff16565b9150509392505050565b61236f828460800151612bac90919063ffffffff16565b612386818460800151612bac90919063ffffffff16565b505050565b600030600b546040516020016123a2929190614167565b604051602081830303815290604052805190602001209050600b5483606001818152505083600c600083815260200190815260200160002060006101000a81548173ffffffffffffffffffffffffffffffffffffffff021916908373ffffffffffffffffffffffffffffffffffffffff160217905550807fb5e6e01e79f91267dc17b4e6314d5d4d03593d2ceee0fbb452b750bd70ea5af960405160405180910390a2600960009054906101000a900473ffffffffffffffffffffffffffffffffffffffff1673ffffffffffffffffffffffffffffffffffffffff16634000aea08584612490876002612bd1565b6040518463ffffffff1660e01b81526004016124ae939291906142be565b602060405180830381600087803b1580156124c857600080fd5b505af11580156124dc573d6000803e3d6000fd5b505050506040513d601f19601f820116820180604052508101906125009190613b1b565b61253f576040517f08c379a0000000000000000000000000000000000000000000000000000000008152600401612536906143ff565b60405180910390fd5b6001600b6000828254612552919061473d565b925050819055509392505050565b600061256b826121fa565b6125aa576040517f08c379a00000000000000000000000000000000000000000000000000000000081526004016125a19061445f565b60405180910390fd5b60006125b58361145e565b90508073ffffffffffffffffffffffffffffffffffffffff168473ffffffffffffffffffffffffffffffffffffffff16148061262457508373ffffffffffffffffffffffffffffffffffffffff1661260c846108ab565b73ffffffffffffffffffffffffffffffffffffffff16145b80612635575061263481856120fc565b5b91505092915050565b8273ffffffffffffffffffffffffffffffffffffffff1661265e8261145e565b73ffffffffffffffffffffffffffffffffffffffff16146126b4576040517f08c379a00000000000000000000000000000000000000000000000000000000081526004016126ab9061457f565b60405180910390fd5b600073ffffffffffffffffffffffffffffffffffffffff168273ffffffffffffffffffffffffffffffffffffffff161415612724576040517f08c379a000000000000000000000000000000000000000000000000000000000815260040161271b9061441f565b60405180910390fd5b61272f838383612c78565b61273a60008261226e565b6001600360008573ffffffffffffffffffffffffffffffffffffffff1673ffffffffffffffffffffffffffffffffffffffff168152602001908152602001600020600082825461278a919061498f565b925050819055506001600360008473ffffffffffffffffffffffffffffffffffffffff1673ffffffffffffffffffffffffffffffffffffffff16815260200190815260200160002060008282546127e1919061473d565b92505081905550816002600083815260200190815260200160002060006101000a81548173ffffffffffffffffffffffffffffffffffffffff021916908373ffffffffffffffffffffffffffffffffffffffff160217905550808273ffffffffffffffffffffffffffffffffffffffff168473ffffffffffffffffffffffffffffffffffffffff167fddf252ad1be2c89b69c2b068fc378daa952ba7f163c4a11628f55a4df523b3ef60405160405180910390a4505050565b80600c600082815260200190815260200160002060009054906101000a900473ffffffffffffffffffffffffffffffffffffffff1673ffffffffffffffffffffffffffffffffffffffff163373ffffffffffffffffffffffffffffffffffffffff161461293c576040517f08c379a0000000000000000000000000000000000000000000000000000000008152600401612933906145ff565b60405180910390fd5b600c600082815260200190815260200160002060006101000a81549073ffffffffffffffffffffffffffffffffffffffff0219169055807f7cc135e0cebb02c3480ae5d74d377283180a2601f8f644edf7987b009316c63a60405160405180910390a25050565b6129ad600d612c7d565b60006129b9600d6129d4565b90506129c58382612c93565b6129cf8183612cb1565b505050565b600081600001549050919050565b6129ed84848461263e565b6129f984848484612d25565b612a38576040517f08c379a0000000000000000000000000000000000000000000000000000000008152600401612a2f906143bf565b60405180910390fd5b50505050565b606060405180602001604052806000815250905090565b6060612a60826121fa565b612a9f576040517f08c379a0000000000000000000000000000000000000000000000000000000008152600401612a969061459f565b60405180910390fd5b6000612aa9612a3e565b90506000815111612ac95760405180602001604052806000815250612af4565b80612ad384612ebc565b604051602001612ae4929190614193565b6040516020818303038152906040525b915050919050565b612b046136e7565b612b148560800151610100613069565b508385600001818152505082856020019073ffffffffffffffffffffffffffffffffffffffff16908173ffffffffffffffffffffffffffffffffffffffff16815250508185604001907bffffffffffffffffffffffffffffffffffffffffffffffffffffffff191690817bffffffffffffffffffffffffffffffffffffffffffffffffffffffff191681525050849050949350505050565b612bb982600383516130d3565b612bcc818361321890919063ffffffff16565b505050565b6060634042994660e01b6000808560000151866020015187604001518860600151888a6080015160000151604051602401612c13989796959493929190614239565b604051602081830303815290604052907bffffffffffffffffffffffffffffffffffffffffffffffffffffffff19166020820180517bffffffffffffffffffffffffffffffffffffffffffffffffffffffff8381831617835250505050905092915050565b505050565b6001816000016000828254019250508190555050565b612cad82826040518060200160405280600081525061323a565b5050565b612cba826121fa565b612cf9576040517f08c379a0000000000000000000000000000000000000000000000000000000008152600401612cf0906144df565b60405180910390fd5b80600660008481526020019081526020016000209080519060200190612d20929190613754565b505050565b6000612d468473ffffffffffffffffffffffffffffffffffffffff16613295565b15612eaf578373ffffffffffffffffffffffffffffffffffffffff1663150b7a02612d6f612266565b8786866040518563ffffffff1660e01b8152600401612d9194939291906141ed565b602060405180830381600087803b158015612dab57600080fd5b505af1925050508015612ddc57506040513d601f19601f82011682018060405250810190612dd99190613bd2565b60015b612e5f573d8060008114612e0c576040519150601f19603f3d011682016040523d82523d6000602084013e612e11565b606091505b50600081511415612e57576040517f08c379a0000000000000000000000000000000000000000000000000000000008152600401612e4e906143bf565b60405180910390fd5b805181602001fd5b63150b7a0260e01b7bffffffffffffffffffffffffffffffffffffffffffffffffffffffff1916817bffffffffffffffffffffffffffffffffffffffffffffffffffffffff191614915050612eb4565b600190505b949350505050565b60606000821415612f04576040518060400160405280600181526020017f30000000000000000000000000000000000000000000000000000000000000008152509050613064565b600082905060005b60008214612f36578080612f1f90614b0a565b915050600a82612f2f9190614793565b9150612f0c565b60008167ffffffffffffffff811115612f78577f4e487b7100000000000000000000000000000000000000000000000000000000600052604160045260246000fd5b6040519080825280601f01601f191660200182016040528015612faa5781602001600182028036833780820191505090505b5090505b6000851461305d57600182612fc3919061498f565b9150600a85612fd29190614b8b565b6030612fde919061473d565b60f81b81838151811061301a577f4e487b7100000000000000000000000000000000000000000000000000000000600052603260045260246000fd5b60200101907effffffffffffffffffffffffffffffffffffffffffffffffffffffffffffff1916908160001a905350600a856130569190614793565b9450612fae565b8093505050505b919050565b6130716137da565b60006020836130809190614b8b565b146130ac576020826130929190614b8b565b602061309e919061498f565b826130a9919061473d565b91505b81836020018181525050604051808452600081528281016020016040525082905092915050565b60178111613100576130fa8160058460ff16901b60ff1617846132a890919063ffffffff16565b50613213565b60ff811161314257613125601860058460ff16901b17846132a890919063ffffffff16565b5061313c816001856132c89092919063ffffffff16565b50613212565b61ffff811161318557613168601960058460ff16901b17846132a890919063ffffffff16565b5061317f816002856132c89092919063ffffffff16565b50613211565b63ffffffff81116131ca576131ad601a60058460ff16901b17846132a890919063ffffffff16565b506131c4816004856132c89092919063ffffffff16565b50613210565b67ffffffffffffffff811161320f576131f6601b60058460ff16901b17846132a890919063ffffffff16565b5061320d816008856132c89092919063ffffffff16565b505b5b5b5b5b505050565b6132206137da565b613232838460000151518485516132ea565b905092915050565b61324483836133f4565b6132516000848484612d25565b613290576040517f08c379a0000000000000000000000000000000000000000000000000000000008152600401613287906143bf565b60405180910390fd5b505050565b600080823b905060008111915050919050565b6132b06137da565b6132c083846000015151846135c2565b905092915050565b6132d06137da565b6132e1848560000151518585613619565b90509392505050565b6132f26137da565b825182111561330057600080fd5b84602001518285613311919061473d565b11156133465761334585600261333688602001518887613331919061473d565b6136a7565b6133409190614935565b6136c3565b5b6000808651805187602083010193508088870111156133655787860182525b60208701925050505b602084106133ac5780518252602082613387919061473d565b9150602081613396919061473d565b90506020846133a5919061498f565b935061336e565b600060018560206133bd919061498f565b6101006133ca9190614817565b6133d4919061498f565b905080198251168184511681811785525050879350505050949350505050565b600073ffffffffffffffffffffffffffffffffffffffff168273ffffffffffffffffffffffffffffffffffffffff161415613464576040517f08c379a000000000000000000000000000000000000000000000000000000000815260040161345b906144ff565b60405180910390fd5b61346d816121fa565b156134ad576040517f08c379a00000000000000000000000000000000000000000000000000000000081526004016134a4906143df565b60405180910390fd5b6134b960008383612c78565b6001600360008473ffffffffffffffffffffffffffffffffffffffff1673ffffffffffffffffffffffffffffffffffffffff1681526020019081526020016000206000828254613509919061473d565b92505081905550816002600083815260200190815260200160002060006101000a81548173ffffffffffffffffffffffffffffffffffffffff021916908373ffffffffffffffffffffffffffffffffffffffff160217905550808273ffffffffffffffffffffffffffffffffffffffff16600073ffffffffffffffffffffffffffffffffffffffff167fddf252ad1be2c89b69c2b068fc378daa952ba7f163c4a11628f55a4df523b3ef60405160405180910390a45050565b6135ca6137da565b836020015183106135f0576135ef84600286602001516135ea9190614935565b6136c3565b5b835180516020858301018481538186141561360c576001820183525b5050508390509392505050565b6136216137da565b84602001518483613632919061473d565b111561365a57613659856002868561364a919061473d565b6136549190614935565b6136c3565b5b600060018361010061366c9190614817565b613676919061498f565b905085518386820101858319825116178152815185880111156136995784870182525b505085915050949350505050565b6000818311156136b9578290506136bd565b8190505b92915050565b6000826000015190506136d68383613069565b506136e18382613218565b50505050565b6040518060a0016040528060008019168152602001600073ffffffffffffffffffffffffffffffffffffffff16815260200160007bffffffffffffffffffffffffffffffffffffffffffffffffffffffff191681526020016000815260200161374e6137da565b81525090565b82805461376090614aa7565b90600052602060002090601f01602090048101928261378257600085556137c9565b82601f1061379b57805160ff19168380011785556137c9565b828001600101855582156137c9579182015b828111156137c85782518255916020019190600101906137ad565b5b5090506137d691906137f4565b5090565b604051806040016040528060608152602001600081525090565b5b8082111561380d5760008160009055506001016137f5565b5090565b600061382461381f8461465f565b61463a565b90508281526020810184848401111561383c57600080fd5b613847848285614a65565b509392505050565b600061386261385d84614690565b61463a565b90508281526020810184848401111561387a57600080fd5b613885848285614a74565b509392505050565b60008135905061389c81615237565b92915050565b6000813590506138b18161524e565b92915050565b6000815190506138c68161524e565b92915050565b6000813590506138db81615265565b92915050565b6000813590506138f08161527c565b92915050565b6000815190506139058161527c565b92915050565b600082601f83011261391c57600080fd5b813561392c848260208601613811565b91505092915050565b600082601f83011261394657600080fd5b815161395684826020860161384f565b91505092915050565b60008135905061396e81615293565b92915050565b60006020828403121561398657600080fd5b60006139948482850161388d565b91505092915050565b600080604083850312156139b057600080fd5b60006139be8582860161388d565b92505060206139cf8582860161388d565b9150509250929050565b6000806000606084860312156139ee57600080fd5b60006139fc8682870161388d565b9350506020613a0d8682870161388d565b9250506040613a1e8682870161395f565b9150509250925092565b60008060008060808587031215613a3e57600080fd5b6000613a4c8782880161388d565b9450506020613a5d8782880161388d565b9350506040613a6e8782880161395f565b925050606085013567ffffffffffffffff811115613a8b57600080fd5b613a978782880161390b565b91505092959194509250565b60008060408385031215613ab657600080fd5b6000613ac48582860161388d565b9250506020613ad5858286016138a2565b9150509250929050565b60008060408385031215613af257600080fd5b6000613b008582860161388d565b9250506020613b118582860161395f565b9150509250929050565b600060208284031215613b2d57600080fd5b6000613b3b848285016138b7565b91505092915050565b600060208284031215613b5657600080fd5b6000613b64848285016138cc565b91505092915050565b60008060408385031215613b8057600080fd5b6000613b8e858286016138cc565b9250506020613b9f8582860161395f565b9150509250929050565b600060208284031215613bbb57600080fd5b6000613bc9848285016138e1565b91505092915050565b600060208284031215613be457600080fd5b6000613bf2848285016138f6565b91505092915050565b600060208284031215613c0d57600080fd5b600082013567ffffffffffffffff811115613c2757600080fd5b613c338482850161390b565b91505092915050565b600060208284031215613c4e57600080fd5b600082015167ffffffffffffffff811115613c6857600080fd5b613c7484828501613935565b91505092915050565b600060208284031215613c8f57600080fd5b6000613c9d8482850161395f565b91505092915050565b6000613cb283836140fc565b60208301905092915050565b613cc7816149c3565b82525050565b613cde613cd9826149c3565b614b53565b82525050565b6000613cef826146d1565b613cf981856146ff565b9350613d04836146c1565b8060005b83811015613d35578151613d1c8882613ca6565b9750613d27836146f2565b925050600181019050613d08565b5085935050505092915050565b613d4b816149d5565b82525050565b613d5a816149e1565b82525050565b613d71613d6c826149e1565b614b65565b82525050565b613d80816149eb565b82525050565b6000613d91826146dc565b613d9b8185614710565b9350613dab818560208601614a74565b613db481614c78565b840191505092915050565b613dd0613dcb82614a41565b614b53565b82525050565b6000613de1826146e7565b613deb8185614721565b9350613dfb818560208601614a74565b613e0481614c78565b840191505092915050565b6000613e1a826146e7565b613e248185614732565b9350613e34818560208601614a74565b80840191505092915050565b6000613e4d602b83614721565b9150613e5882614ca3565b604082019050919050565b6000613e70603283614721565b9150613e7b82614cf2565b604082019050919050565b6000613e93601c83614721565b9150613e9e82614d41565b602082019050919050565b6000613eb6602383614721565b9150613ec182614d6a565b604082019050919050565b6000613ed9602483614721565b9150613ee482614db9565b604082019050919050565b6000613efc601983614721565b9150613f0782614e08565b602082019050919050565b6000613f1f602c83614721565b9150613f2a82614e31565b604082019050919050565b6000613f42603883614721565b9150613f4d82614e80565b604082019050919050565b6000613f65602a83614721565b9150613f7082614ecf565b604082019050919050565b6000613f88602983614721565b9150613f9382614f1e565b604082019050919050565b6000613fab602e83614721565b9150613fb682614f6d565b604082019050919050565b6000613fce602083614721565b9150613fd982614fbc565b602082019050919050565b6000613ff1601683614721565b9150613ffc82614fe5565b602082019050919050565b6000614014603183614721565b915061401f8261500e565b604082019050919050565b6000614037602c83614721565b91506140428261505d565b604082019050919050565b600061405a602983614721565b9150614065826150ac565b604082019050919050565b600061407d602f83614721565b9150614088826150fb565b604082019050919050565b60006140a0602183614721565b91506140ab8261514a565b604082019050919050565b60006140c3603183614721565b91506140ce82615199565b604082019050919050565b60006140e6602883614721565b91506140f1826151e8565b604082019050919050565b61410581614a37565b82525050565b61411481614a37565b82525050565b61412b61412682614a37565b614b81565b82525050565b600061413d8284613ccd565b60148201915081905092915050565b60006141588284613d60565b60208201915081905092915050565b60006141738285613dbf565b601482019150614183828461411a565b6020820191508190509392505050565b600061419f8285613e0f565b91506141ab8284613e0f565b91508190509392505050565b60006141c3828461411a565b60208201915081905092915050565b60006020820190506141e76000830184613cbe565b92915050565b60006080820190506142026000830187613cbe565b61420f6020830186613cbe565b61421c604083018561410b565b818103606083015261422e8184613d86565b905095945050505050565b60006101008201905061424f600083018b613cbe565b61425c602083018a61410b565b6142696040830189613d51565b6142766060830188613cbe565b6142836080830187613d77565b61429060a083018661410b565b61429d60c083018561410b565b81810360e08301526142af8184613d86565b90509998505050505050505050565b60006060820190506142d36000830186613cbe565b6142e0602083018561410b565b81810360408301526142f28184613d86565b9050949350505050565b600060208201905081810360008301526143168184613ce4565b905092915050565b60006020820190506143336000830184613d42565b92915050565b600060208201905061434e6000830184613d51565b92915050565b60006040820190506143696000830185613d51565b614376602083018461410b565b9392505050565b600060208201905081810360008301526143978184613dd6565b905092915050565b600060208201905081810360008301526143b881613e40565b9050919050565b600060208201905081810360008301526143d881613e63565b9050919050565b600060208201905081810360008301526143f881613e86565b9050919050565b6000602082019050818103600083015261441881613ea9565b9050919050565b6000602082019050818103600083015261443881613ecc565b9050919050565b6000602082019050818103600083015261445881613eef565b9050919050565b6000602082019050818103600083015261447881613f12565b9050919050565b6000602082019050818103600083015261449881613f35565b9050919050565b600060208201905081810360008301526144b881613f58565b9050919050565b600060208201905081810360008301526144d881613f7b565b9050919050565b600060208201905081810360008301526144f881613f9e565b9050919050565b6000602082019050818103600083015261451881613fc1565b9050919050565b6000602082019050818103600083015261453881613fe4565b9050919050565b6000602082019050818103600083015261455881614007565b9050919050565b600060208201905081810360008301526145788161402a565b9050919050565b600060208201905081810360008301526145988161404d565b9050919050565b600060208201905081810360008301526145b881614070565b9050919050565b600060208201905081810360008301526145d881614093565b9050919050565b600060208201905081810360008301526145f8816140b6565b9050919050565b60006020820190508181036000830152614618816140d9565b9050919050565b6000602082019050614634600083018461410b565b92915050565b6000614644614655565b90506146508282614ad9565b919050565b6000604051905090565b600067ffffffffffffffff82111561467a57614679614c49565b5b61468382614c78565b9050602081019050919050565b600067ffffffffffffffff8211156146ab576146aa614c49565b5b6146b482614c78565b9050602081019050919050565b6000819050602082019050919050565b600081519050919050565b600081519050919050565b600081519050919050565b6000602082019050919050565b600082825260208201905092915050565b600082825260208201905092915050565b600082825260208201905092915050565b600081905092915050565b600061474882614a37565b915061475383614a37565b9250827fffffffffffffffffffffffffffffffffffffffffffffffffffffffffffffffff0382111561478857614787614bbc565b5b828201905092915050565b600061479e82614a37565b91506147a983614a37565b9250826147b9576147b8614beb565b5b828204905092915050565b6000808291508390505b600185111561480e578086048111156147ea576147e9614bbc565b5b60018516156147f95780820291505b808102905061480785614c96565b94506147ce565b94509492505050565b600061482282614a37565b915061482d83614a37565b925061485a7fffffffffffffffffffffffffffffffffffffffffffffffffffffffffffffffff8484614862565b905092915050565b600082614872576001905061492e565b81614880576000905061492e565b816001811461489657600281146148a0576148cf565b600191505061492e565b60ff8411156148b2576148b1614bbc565b5b8360020a9150848211156148c9576148c8614bbc565b5b5061492e565b5060208310610133831016604e8410600b84101617156149045782820a9050838111156148ff576148fe614bbc565b5b61492e565b61491184848460016147c4565b9250905081840481111561492857614927614bbc565b5b81810290505b9392505050565b600061494082614a37565b915061494b83614a37565b9250817fffffffffffffffffffffffffffffffffffffffffffffffffffffffffffffffff048311821515161561498457614983614bbc565b5b828202905092915050565b600061499a82614a37565b91506149a583614a37565b9250828210156149b8576149b7614bbc565b5b828203905092915050565b60006149ce82614a17565b9050919050565b60008115159050919050565b6000819050919050565b60007fffffffff0000000000000000000000000000000000000000000000000000000082169050919050565b600073ffffffffffffffffffffffffffffffffffffffff82169050919050565b6000819050919050565b6000614a4c82614a53565b9050919050565b6000614a5e82614a17565b9050919050565b82818337600083830152505050565b60005b83811015614a92578082015181840152602081019050614a77565b83811115614aa1576000848401525b50505050565b60006002820490506001821680614abf57607f821691505b60208210811415614ad357614ad2614c1a565b5b50919050565b614ae282614c78565b810181811067ffffffffffffffff82111715614b0157614b00614c49565b5b80604052505050565b6000614b1582614a37565b91507fffffffffffffffffffffffffffffffffffffffffffffffffffffffffffffffff821415614b4857614b47614bbc565b5b600182019050919050565b6000614b5e82614b6f565b9050919050565b6000819050919050565b6000614b7a82614c89565b9050919050565b6000819050919050565b6000614b9682614a37565b9150614ba183614a37565b925082614bb157614bb0614beb565b5b828206905092915050565b7f4e487b7100000000000000000000000000000000000000000000000000000000600052601160045260246000fd5b7f4e487b7100000000000000000000000000000000000000000000000000000000600052601260045260246000fd5b7f4e487b7100000000000000000000000000000000000000000000000000000000600052602260045260246000fd5b7f4e487b7100000000000000000000000000000000000000000000000000000000600052604160045260246000fd5b6000601f19601f8301169050919050565b60008160601b9050919050565b60008160011c9050919050565b7f4f6e6c7920636f6e7472616374206f776e65722063616e2063616c6c2074686960008201527f732066756e6374696f6e2e000000000000000000000000000000000000000000602082015250565b7f4552433732313a207472616e7366657220746f206e6f6e20455243373231526560008201527f63656976657220696d706c656d656e7465720000000000000000000000000000602082015250565b7f4552433732313a20746f6b656e20616c7265616479206d696e74656400000000600082015250565b7f756e61626c6520746f207472616e73666572416e6443616c6c20746f206f726160008201527f636c650000000000000000000000000000000000000000000000000000000000602082015250565b7f4552433732313a207472616e7366657220746f20746865207a65726f2061646460008201527f7265737300000000000000000000000000000000000000000000000000000000602082015250565b7f4552433732313a20617070726f766520746f2063616c6c657200000000000000600082015250565b7f4552433732313a206f70657261746f7220717565727920666f72206e6f6e657860008201527f697374656e7420746f6b656e0000000000000000000000000000000000000000602082015250565b7f4552433732313a20617070726f76652063616c6c6572206973206e6f74206f7760008201527f6e6572206e6f7220617070726f76656420666f7220616c6c0000000000000000602082015250565b7f4552433732313a2062616c616e636520717565727920666f7220746865207a6560008201527f726f206164647265737300000000000000000000000000000000000000000000602082015250565b7f4552433732313a206f776e657220717565727920666f72206e6f6e657869737460008201527f656e7420746f6b656e0000000000000000000000000000000000000000000000602082015250565b7f45524337323155524953746f726167653a2055524920736574206f66206e6f6e60008201527f6578697374656e7420746f6b656e000000000000000000000000000000000000602082015250565b7f4552433732313a206d696e7420746f20746865207a65726f2061646472657373600082015250565b7f42616467652075736572206d7573742065786973742e00000000000000000000600082015250565b7f45524337323155524953746f726167653a2055524920717565727920666f722060008201527f6e6f6e6578697374656e7420746f6b656e000000000000000000000000000000602082015250565b7f4552433732313a20617070726f76656420717565727920666f72206e6f6e657860008201527f697374656e7420746f6b656e0000000000000000000000000000000000000000602082015250565b7f4552433732313a207472616e73666572206f6620746f6b656e2074686174206960008201527f73206e6f74206f776e0000000000000000000000000000000000000000000000602082015250565b7f4552433732314d657461646174613a2055524920717565727920666f72206e6f60008201527f6e6578697374656e7420746f6b656e0000000000000000000000000000000000602082015250565b7f4552433732313a20617070726f76616c20746f2063757272656e74206f776e6560008201527f7200000000000000000000000000000000000000000000000000000000000000602082015250565b7f4552433732313a207472616e736665722063616c6c6572206973206e6f74206f60008201527f776e6572206e6f7220617070726f766564000000000000000000000000000000602082015250565b7f536f75726365206d75737420626520746865206f7261636c65206f662074686560008201527f2072657175657374000000000000000000000000000000000000000000000000602082015250565b615240816149c3565b811461524b57600080fd5b50565b615257816149d5565b811461526257600080fd5b50565b61526e816149e1565b811461527957600080fd5b50565b615285816149eb565b811461529057600080fd5b50565b61529c81614a37565b81146152a757600080fd5b5056fea2646970667358221220675ae35d64f0c96f028a533e5dc669e43e791b2470a938d7b955f89a7986cf3664736f6c63430008040033",
  "immutableReferences": {},
  "source": "// SPDX-License-Identifier: MIT\npragma solidity >=0.8.0 <0.9.0;\nimport \"@openzeppelin/contracts/token/ERC721/extensions/ERC721URIStorage.sol\";\nimport \"@openzeppelin/contracts/utils/Counters.sol\";\nimport \"@chainlink/contracts/src/v0.8/dev/Chainlink.sol\";\nimport \"@chainlink/contracts/src/v0.8/dev/ChainlinkClient.sol\";\nimport \"./BadgeLookup.sol\";\n\n\ncontract SynthBadge is ERC721URIStorage, ChainlinkClient {\n    using Counters for Counters.Counter;\n    using Chainlink for Chainlink.Request;\n\n    Counters.Counter private _tokenIds;\n\n    // Badge Lookup and owner\n    address public badgeLookup;\n    address public owner;\n\n    // Chainlink\n    address private oracle;\n    bytes32 private jobId;\n    uint256 private fee;\n\n    // Internals\n    mapping (bytes32=> address) private requestByAddress;\n    mapping (address=> uint256[]) public badgesByUser;\n    mapping (address=> uint256) public totalUserBadges;\n\n    // Events\n    event UrlRequested(string url);\n    event ApiResponse(bytes32 requestId, uint256 badgeTotal);\n\n    // Permits modifications only by the owner of the contract.\n    modifier only_owner() {\n        require(msg.sender == owner, \"Only contract owner can call this function.\");\n        _;\n    }\n\n    // Permits modifications only by the oracle contract.\n    modifier from_oracle() {\n        require(msg.sender == address(oracle), \"Only oracle contract can call this function.\");\n        _;\n    }\n\n     /**\n     * Network: Kovan\n     * Oracle: 0x2f90A6D021db21e1B2A077c5a37B3C7E75D15b7e\n     * Job ID: 29fa9aa13bf1468788b7cc4a500a45b8\n     * Fee: 0.1 LINK\n     */\n    constructor(address _badgeLookup) payable\n    ERC721(\"SynthBadge\", \"sNFT\")\n    {\n        // KOVAN settings\n        setPublicChainlinkToken();\n        oracle = 0x2f90A6D021db21e1B2A077c5a37B3C7E75D15b7e;\n        jobId = bytes32(\"29fa9aa13bf1468788b7cc4a500a45b8\");\n        fee = 0.1 * 10 ** 18; // (Varies by network and job)\n\n        badgeLookup = _badgeLookup;\n        owner = msg.sender;\n    }\n\n    /**\n     * OWNER ONLY UPDATE FUNCTIONS IN CASE THINGS CHANGE.\n     */\n\n\n    /**\n     * @dev Updates the oracle contract.\n     */\n    function updateLookup(address _lookup) only_owner public {\n        badgeLookup = _lookup;\n    }\n\n    /**\n     * @dev Updates the oracle contract.\n     */\n    function updateOracle(address _oracle) only_owner public {\n        oracle = _oracle;\n    }\n\n    /**\n     * @dev Updates the oracle contract.\n     */\n    function updateJob(bytes32 _job) only_owner public {\n        jobId = bytes32(_job);\n    }\n\n    /**\n     * @dev Updates the oracle contract.\n     */\n    function updateFee(uint256 _fee) only_owner public {\n        fee = _fee;\n    }\n\n    /**\n     * Create a Chainlink request to retrieve API response, find the target.\n     */\n    function requestBadges() public returns (bytes32 requestId) {\n        requestBadges(msg.sender);\n    }\n\n    function requestBadges(address _owner) public returns (bytes32 requestId) {\n        Chainlink.Request memory request = buildChainlinkRequest(jobId, address(this), this.fulfill.selector);\n\n        // Set the URL to perform the GET request on\n        string memory apiUrl = BadgeLookup(badgeLookup).apiUrl();\n        string memory url = string(abi.encodePacked(apiUrl, toString(_owner)));\n        emit UrlRequested(url);\n        request.add(\"get\", url);\n        request.add(\"path\", \"id\");\n\n        // Sends the request\n        bytes32 _requestId = sendChainlinkRequestTo(oracle, request, fee);\n        requestByAddress[_requestId] = _owner;\n    }\n\n\n    /**\n     * Receive the response in the form of uint256\n     */\n    function fulfill(bytes32 _requestId, uint256 _badgeId) public {\n\n        validateChainlinkCallback(_requestId);\n        emit ApiResponse(_requestId, _badgeId);\n        if(_badgeId > 0) {\n            address badgeUser = requestByAddress[_requestId];\n            require(badgeUser != address(0), \"Badge user must exist.\");\n            if(!checkUserBadge(badgeUser, _badgeId)) {\n                string memory badgeUrl = getBadgeUrl(_badgeId);\n                mintNFT(badgeUser, badgeUrl);\n                badgesByUser[badgeUser].push(_badgeId);\n                totalUserBadges[badgeUser]++;\n            }\n        }\n    }\n\n    /**\n     * Mint the NFT.\n     */\n    function mintNFT(address _owner, string memory tokenURI) private {\n        _tokenIds.increment();\n        uint256 tokenId = _tokenIds.current();\n        _safeMint(_owner, tokenId);\n        _setTokenURI(tokenId, tokenURI);\n    }\n\n    /**\n     * Token lookup for myself or someone else.\n     */\n    function getTokens() view public returns(uint256[] memory) {\n        getTokens(msg.sender);\n    }\n\n    function getTokens(address _owner) view public returns(uint256[] memory) {\n        uint256 tokenCount = balanceOf(_owner);\n        if (tokenCount == 0) {\n            return new uint256[](0);\n        } else {\n            uint256[] memory result = new uint256[](tokenCount);\n            uint256 totalTokens = _tokenIds.current();\n            uint256 resultIndex = 0;\n            for (uint256 t = 1; t <= totalTokens; t++) {\n                if (_exists(t) && ownerOf(t) == _owner) {\n                    result[resultIndex] = t;\n                    resultIndex++;\n                }\n            }\n            return result;\n        }\n    }\n\n    function getTokenUrl(uint256 _id) view public returns(string memory _url) {\n        _url = tokenURI(_id);\n        return _url;\n    }\n\n    function checkUserBadge(address _owner, uint256 _id) public view returns(bool badgeFound) {\n        badgeFound = false;\n        for(uint256 i=0; i<totalUserBadges[_owner]; i++) {\n            if(badgesByUser[_owner][i] == _id) {\n                badgeFound = true;\n            }\n        }\n        return badgeFound;\n    }\n\n    function getUserBadges(address _owner) public view returns(uint256[] memory) {\n        return badgesByUser[_owner];\n    }\n\n    function getBadgeUrl(uint256 _id) public view returns(string memory badgeUrl) {\n        badgeUrl = BadgeLookup(badgeLookup).getBadgeById(_id);\n        return badgeUrl;\n    }\n\n    /**\n     * String functions necessary for appending address to a url.\n     */\n\n    function toString(address account) public pure returns(string memory) {\n        return toString(abi.encodePacked(account));\n    }\n\n    function toString(uint256 value) public pure returns(string memory) {\n        return toString(abi.encodePacked(value));\n    }\n\n    function toString(bytes32 value) public pure returns(string memory) {\n        return toString(abi.encodePacked(value));\n    }\n\n    function toString(bytes memory data) public pure returns(string memory) {\n        bytes memory alphabet = \"0123456789abcdef\";\n\n        bytes memory str = new bytes(2 + data.length * 2);\n        str[0] = \"0\";\n        str[1] = \"x\";\n        for (uint i = 0; i < data.length; i++) {\n            str[2+i*2] = alphabet[uint(uint8(data[i] >> 4))];\n            str[3+i*2] = alphabet[uint(uint8(data[i] & 0x0f))];\n        }\n        return string(str);\n    }\n}\n\n\n\n",
  "sourcePath": "/Users/Shared/Code/experimental/synthetix-badges/contracts/SynthBadge.sol",
  "compiler": {
    "name": "solc",
    "version": "0.8.4+commit.c7e474f2.Emscripten.clang"
  },
  "schemaVersion": "3.4.1",
  "updatedAt": "2021-05-22T22:22:25.933Z",
  "networkType": "ethereum",
  "devdoc": {
    "kind": "dev",
    "methods": {
      "approve(address,uint256)": {
        "details": "See {IERC721-approve}."
      },
      "balanceOf(address)": {
        "details": "See {IERC721-balanceOf}."
      },
      "getApproved(uint256)": {
        "details": "See {IERC721-getApproved}."
      },
      "isApprovedForAll(address,address)": {
        "details": "See {IERC721-isApprovedForAll}."
      },
      "name()": {
        "details": "See {IERC721Metadata-name}."
      },
      "ownerOf(uint256)": {
        "details": "See {IERC721-ownerOf}."
      },
      "safeTransferFrom(address,address,uint256)": {
        "details": "See {IERC721-safeTransferFrom}."
      },
      "safeTransferFrom(address,address,uint256,bytes)": {
        "details": "See {IERC721-safeTransferFrom}."
      },
      "setApprovalForAll(address,bool)": {
        "details": "See {IERC721-setApprovalForAll}."
      },
      "supportsInterface(bytes4)": {
        "details": "See {IERC165-supportsInterface}."
      },
      "symbol()": {
        "details": "See {IERC721Metadata-symbol}."
      },
      "tokenURI(uint256)": {
        "details": "See {IERC721Metadata-tokenURI}."
      },
      "transferFrom(address,address,uint256)": {
        "details": "See {IERC721-transferFrom}."
      },
      "updateFee(uint256)": {
        "details": "Updates the oracle contract."
      },
      "updateJob(bytes32)": {
        "details": "Updates the oracle contract."
      },
      "updateLookup(address)": {
        "details": "Updates the oracle contract."
      },
      "updateOracle(address)": {
        "details": "Updates the oracle contract."
      }
    },
    "version": 1
  },
  "userdoc": {
    "kind": "user",
    "methods": {
      "constructor": {
        "notice": "Network: Kovan Oracle: 0x2f90A6D021db21e1B2A077c5a37B3C7E75D15b7e Job ID: 29fa9aa13bf1468788b7cc4a500a45b8 Fee: 0.1 LINK"
      },
      "fulfill(bytes32,uint256)": {
        "notice": "Receive the response in the form of uint256"
      },
      "getTokens()": {
        "notice": "Token lookup for myself or someone else."
      },
      "requestBadges()": {
        "notice": "Create a Chainlink request to retrieve API response, find the target."
      },
      "toString(address)": {
        "notice": "String functions necessary for appending address to a url."
      }
    },
    "version": 1
  }
}